:030000000200C536
:0C00C500787FE4F6D8FD75810B0200384E
:060003008B088A09890A3E
:10000900EF1475F040A4FFED142F2480FF1200A314
:10001900AB08AA09A90A12005E6013050AE50A706D
:0E00290002050914F912005EFF1200B480E215
:0100370022A6
:10008F007F381200A37F0C1200A37F061200A37FFC
:04009F00010200A3B7
:0B00D10075A0FF1200DCEF20E7F92211
:0A00DC00C2B6D2B5D2B4AFA0C2B4D0
:0100E60022F7
:1000A3008F0B1200D1C2B6C2B5850BA0D2B4C2B4B5
:0100B300222A
:1000B4008F0B1200D1D2B6C2B5850BA0D2B4C2B494
:0100C4002219
:100077004E6562756C612D5069004C4344313630D2
:0800870032205465737421005E
:10003800E4F5A0D286C28612008F7BFF7A0079771A
:100048007D037F011200037BFF7A0079817D037FA6
:060058000212000380FE0D
:10005E00BB010689828A83E0225002E722BBFE02A0
:09006E00E32289828A83E49322D3
:00000001FF
