:1000F6004E6562756C612D504920556172742054AD
:06010600657374210A007C
:03001C00010B00D5
:100121001200E0D2AF7BFF7A0079F61200B280FEB6
:0300230002010CCB
:10010C00309807C298859999B290309907C299B2E4
:05011C0091750B00329B
:1000E000759850E4F587758920758BFD758DFDC277
:0600F000ABD28ED2AC225F
:1000B2008B088A09890AAB08AA09A90A12000360F7
:1000C2001CE50B70FC750B01AB08050AE50AAA09D1
:0E00D2007002050914F9120003F59980D92275
:03000000020026D5
:0C002600787FE4F6D8FD75810B02006DB8
:10000300BB010689828A83E0225002E722BBFE02FB
:09001300E32289828A83E493222E
:10003200020121E493A3F8E493A34003F68001F2C2
:1000420008DFF48029E493A3F85407240CC8C333CF
:10005200C4540F4420C8834004F456800146F6DF9E
:10006200E4800B010204081020408090001CE47E12
:10007200019360BCA3FF543F30E509541FFEE49393
:10008200A360010ECF54C025E060A840B8E493A35A
:10009200FAE493A3F8E493A3C8C582C8CAC583CA85
:1000A200F0A3C8C582C8CAC583CADFE9DEE780BE3D
:01001F0000E0
:00000001FF
