:0603CE008B0A8A0B890C6A
:1003D400EF1475F040A4FFED142F2480FF12045B8A
:1003E400AB0AAA0BA90C12037C6013050CE50C7074
:0E03F40002050B14F912037CFF12046C80E268
:0104020022D7
:100434007F3812045B7F0C12045B7F0612045B7F1F
:040444000102045B52
:0B00030075A0FF12047DEF20E7F9223A
:0A047D00C2B6D2B5D2B4AFA0C2B42B
:010487002252
:10045B008F0D120003C2B6C2B5850DA0D2B4C2B4C3
:01046B00226E
:10046C008F0D120003D2B6C2B5850DA0D2B4C2B4A2
:01047C00225D
:02048800C100B1
:10044800D2B35389F0438901C28CC2A9D28AD2AAF5
:03045800D2AF22FE
:060403008E088F09D201F2
:10040900E4F58CF58AD28CA2B3300101B3400BAF6D
:100419008CEF943E7480948040EDC28CAF8CEFFEDB
:0B042900AD8A7C00E42DFFEC3EFE22BB
:030013000201A641
:1001A600C0E0C083C082C0D075D000C000C002C00D
:0901B60003C004C005C006C00727
:1001BF00C201120409120403AB07AA06C3E509948E
:1001CF0040E508941F401DD3E5099410E5089427D6
:1001DF005012C3EB94ACEA940D4009D3EB9488EA28
:1001EF0094134004C28B8078900000C2011204095E
:1001FF00120403AA06AB07C3E509942CE508940182
:10020F00401DD3E50994BCE50894025012C3EB944A
:10021F002CEA94014009D3EB9408EA94074004C2F6
:10022F008B803DAF11AE10AD0FAC0E780112039560
:10023F008F118E108D0F8C0ED3EB9414EA94054012
:10024F0012E511F511E510F510E50FF50FE50E4468
:10025F0080F50EA3E58264204583708FD200C28B98
:10026F00D007D006D005D004D003D002D000D0D014
:07027F00D082D083D0E032F1
:100312004E6562756C612D5069204952004B4559FA
:100322003A0043482D0043480043482B00505245B1
:1003320056004E45585400504C41592F5041555388
:1003420045002D002B0045510030003130302B008C
:100352003230302B003100320033003400350036A9
:10036200003700380039006572726F722100202058
:0A0372002020202020202020200061
:05048A00031200000058
:100016001204347BFF7A0379127D027F011203CE2C
:100026007BFF7A03791F7D017F021203CE120448FB
:100036003000FDC200AF11AE10AD0FAC0E7810123D
:100046000395EF1203A800D707013E0800EF090148
:100056001D0C01120D00E31500FB160128180107FF
:100066001901491C00BF40015F4200CB4300B34465
:10007600008F45009B4600A74701754A016A520159
:10008600545A01335E000001807512FF7513037523
:1000960014240201897512FF7513037514280201D1
:1000A600897512FF75130375142B0201897512FFEA
:1000B60075130375142F0201897512FF75130375E5
:1000C60014340201897512FF751303751439020180
:1000D600897512FF7513037514440201897512FFA1
:1000E6007513037514460201897512FF751303759E
:1000F60014480201897512FF75130375144B02012A
:10010600897512FF75130375144D80777512FF7587
:100116001303751452806C7512FF7513037514570B
:1001260080617512FF75130375145980567512FF99
:1001360075130375145B804B7512FF7513037514E5
:100146005D80407512FF75130375145F8035751257
:10015600FF751303751461802A7512FF75130375F5
:100166001463801F7512FF7513037514658014756B
:1001760012FF75130375146780097512FF75130353
:100186007514697BFF7A0379707D057F021203CEB1
:10019600AB12AA13A9147D057F021203CE02003604
:0300000002028673
:0C028600787FE4F6D8FD7581200202CDDF
:10037C00BB010689828A83E0225002E722BBFE027F
:09038C00E32289828A83E49322B2
:10039500E8600FECC313FCED13FDEE13FEEF13FF46
:0303A500D8F1226A
:1003A800D083D082F8E4937012740193700DA3A3E4
:1003B80093F8740193F5828883E4737402936860F8
:0603C800EFA3A3A380DFF8
:10029200020016E493A3F8E493A34003F68001F26C
:1002A20008DFF48029E493A3F85407240CC8C3336D
:1002B200C4540F4420C8834004F456800146F6DF3C
:1002C200E4800B0102040810204080900488E47E40
:1002D200019360BCA3FF543F30E509541FFEE49331
:1002E200A360010ECF54C025E060A840B8E493A3F8
:1002F200FAE493A3F8E493A3C8C582C8CAC583CA23
:10030200F0A3C8C582C8CAC583CADFE9DEE780BEDA
:01048F00006C
:00000001FF
