:060240008B088A09890AFF
:10024600EF1475F040A4FFED142F2480FF120377FE
:10025600AB08AA09A90A1201796013050AE50A7012
:0E02660002050914F9120179FF12038880E2E3
:010274002267
:100363007F381203777F0C1203777F061203777FA0
:040373000102037709
:0B03A80075A0FF1203B3EF20E7F9225D
:0A03B300C2B6D2B5D2B4AFA0C2B4F6
:0103BD00221D
:100377008F0B1203A8C2B6C2B5850BA0D2B4C2B404
:010387002253
:100388008F0B1203A8D2B6C2B5850BA0D2B4C2B4E3
:010398002242
:100343007E01EED39408748094805013EF139200CF
:0F035300A2009284C283D283EFC313FF0E80E314
:010362002278
:10031E007E01EED39408748094805018D283C283E9
:10032E00A284E433FDC43333335480FCEFC3134C47
:04033E00FF0E80DE50
:010342002298
:0F039900D285120343AF05120343C285C28322EC
:0A03BE00D28512034312031EC2850C
:0103C8002212
:06020A008B0C8A0D890E29
:10021000D2857FBE120343E4FDEDD394067480942F
:10022000805015AB0CAA0DA90E8D827583001201AA
:0F02300092FF1203430D80E1E4FF120343C285E6
:01023F00229C
:1002A100D2857FBF120343E4F50FD3E50F940674A3
:1002B100809480501212031EEF1201BF740129F9BC
:0902C100E43AFA050F80E3C2855E
:0102CA002211
:0601D1008B088A09890A6F
:1001D700C285C283E4FD7F8E120399E4FCECD394BD
:1001E7000674809480501BEC25E02480FFAB08AA9E
:1001F70009A90A8C82758300120192FD1203990CDA
:0202070080DB9A
:0102090022D2
:10027500C285C283E4F508D3E508940674809480AA
:100285005019E50825E02481FF1203BEEF1201BFD6
:0B029500740129F9E43AFA050880DC46
:0102A000223B
:0700030056582301060221FB
:1002CB0001230017240000000000000000000000C4
:1002DB00000000000000000000000000073B0000D1
:0902EB00000000000002210000E7
:10000E0012036375A0FFD287C287758901758A674F
:10001E00758CFCD28CD2A9D2AF7BFF7A00790312F9
:10002E0001D1E52360FCE4F523FB7A00793B120253
:10003E0075752432752530E541C4540F2430F526EC
:10004E00E541540F2430F52775282DE53FC4540F94
:10005E002430F529E53F540F2430F52A752B2DE574
:10006E003EC4540F2430F52CE53E540F2430F52DAC
:10007E00E4F52EE53DC4540F2430F52FE53D540F25
:10008E002430F53075313AE53CC4540F2430F53246
:10009E00E53C540F2430F53375343AE53BC4540F28
:1000AE002430F535E53B540F2430F536753720E511
:1000BE0040C4540F2430F538E540540F2430F53940
:1000CE00E4F53AFB7A0079247D047F011202407B2D
:0F00DE00007A00792F7D037F021202400200306A
:03000B000202F5F9
:0402F500C0E0C0D0D5
:1002F900758A67758CFC0522E52270020521C39475
:10030900F4E5219401400975210075220075230146
:05031900D0D0D0E0325D
:030000000200ED0E
:0C00ED00787FE4F6D8FD758141020134F3
:10017900BB010689828A83E0225002E722BBFE0284
:09018900E32289828A83E49322B7
:10019200BB010CE58229F582E5833AF583E0225022
:1001A20006E92582F8E622BBFE06E92582F8E2226C
:0D01B200E58229F582E5833AF583E4932286
:1001BF00BB010689828A83F0225002F722BBFE011F
:0201CF00F32219
:1000F90002000EE493A3F8E493A34003F68001F20F
:1001090008DFF48029E493A3F85407240CC8C33307
:10011900C4540F4420C8834004F456800146F6DFD6
:10012900E4800B01020408102040809002CBE47E99
:10013900019360BCA3FF543F30E509541FFEE493CB
:10014900A360010ECF54C025E060A840B8E493A392
:10015900FAE493A3F8E493A3C8C582C8CAC583CABD
:10016900F0A3C8C582C8CAC583CADFE9DEE780BE75
:0102F4000009
:00000001FF
