:03000000020003F8
:0C000300787FE4F6D8FD75812102004AE8
:100289008F1C8D1D12030A7FA01201BEAF1C120123
:09029900BEAF1D1201BE0202ED10
:020267008F1CEA
:1002690012030A7FA01201BEAF1C1201BE12030ABB
:0F0279007FA11201BE12023F8F1D1202EDAF1DB9
:010288002253
:10013A008B128A1389148D15E516D39400403F1249
:10014A00030A7FA01201BE50051202ED80F1AF151D
:10015A001201BEE516D39400401FAB120514E51434
:10016A00AA137002051314F91201EAFF1201BE154F
:0F017A00160515E515540770DA1202ED80BA224A
:1000E6008B178A1889198D1A12030A7FA01201BE6E
:1000F60050051202ED80F1AF1A1201BE12030A7FFB
:10010600A11201BEE51BD394014019120215AB17CB
:100116000519E519AA187002051814F9EF12020359
:10012600151B80E012023FAB17AA18A919EF12029D
:04013600030202EDD1
:0202A2008F21AA
:1002A40012030AE52125E0FF1201BE92001202EDBD
:0202B400A200A6
:0102B6002225
:060189008B1C8A1D891E7B
:10018F00EF1475F040A4FFED142F2480FF1202CB63
:10019F00AB1CAA1DA91E1201EA6013051EE51E70F5
:0E01AF0002051D14F91201EAFF1202DC80E2C3
:0101BD00221F
:1002B7007F381202CB7F0C1202CB7F061202CB7F54
:0402C700010202CB63
:0B03300075A0FF12033BEF20E7F9224D
:0A033B00C2B6D2B5D2B4AFA0C2B46E
:010345002295
:1002CB008F1F120330C2B6C2B5851FA0D2B4C2B401
:0102DB002200
:1002DC008F1F120330D2B6C2B5851FA0D2B4C2B4E0
:0102EC0022EF
:07032400D28212032BD281EB
:05032B000000000022AB
:0D030A00C281120324C28212032BC2812281
:0F02ED00C281C282120326D28212032BC2812247
:1001BE007E80EE60145F7004C2828002D2821203CF
:1001CE0026C281EEC313FE80E9D28212032BD281A6
:0B01DE00A282920112032BC281A20139
:0101E90022F3
:10023F00D2827E80EE601B12032BD281208205F4C6
:10024F0052078003EE420712032BC281EEC313FE47
:07025F0080E2120324C281BA
:010266002275
:10021500D2827E80EE601B12032BD281208205F4F0
:1002250052078003EE420712032BC281EEC313FE71
:0902350080E2C282120326C2819C
:01023E00229D
:0E02FC0041543234433078207465737421000D
:0C0317000A0800000000000000000000C8
:10008F00E4FF1202B775A0FFD287C2877D6E7F088B
:10009F001202897BFF7A0279FC7D027F01120189AE
:1000AF007F08120267EF75F064842430F508EF754E
:1000BF00F06484E5F075F00A842430F509EF75F0EB
:1000CF000A84E5F02430F50A7B007A0079087D0672
:0700DF007F0212018980FE7F
:10000F0002008FE493A3F8E493A34003F68001F278
:10001F0008DFF48029E493A3F85407240CC8C333F2
:10002F00C4540F4420C8834004F456800146F6DFC1
:10003F00E4800B0102040810204080900317E47E37
:10004F00019360BCA3FF543F30E509541FFEE493B6
:10005F00A360010ECF54C025E060A840B8E493A37D
:10006F00FAE493A3F8E493A3C8C582C8CAC583CAA8
:10007F00F0A3C8C582C8CAC583CADFE9DEE780BE60
:0103230000D9
:1001EA00BB010689828A83E0225002E722BBFE0213
:0901FA00E32289828A83E4932246
:10020300BB010689828A83F0225002F722BBFE01DA
:02021300F322D4
:00000001FF
