:0A1211007886EBF208EAF208E9F231
:10121B00C2AFEF1475F040A4FFED142F2480FF1222
:10122B00177E7886E2FB08E2FA08E2F912082D60D5
:10123B001A7886E2FB0808E2F92401F218E2FA3484
:0D124B0000F212082DFF12179380D7D2AFCA
:011258002273
:1017BD007F3812177E7F0C12177E7F0612177E7FE1
:0417CD000102177E80
:0B18570075A0FF121862EF20E7F922D5
:0A186200C2B6D2B5D2B4AFA0C2B432
:01186C002259
:10177E007889EFF2121857C2B6C2B57889E2F5A091
:05178E00D2B4C2B42238
:101793007889EFF2121857D2B6C2B57889E2F5A06C
:0517A300D2B4C2B42223
:07184B00D282121852D28173
:0518520000000000226F
:0D183100C28112184BC282121852C28122CD
:0F180500C281C28212184DD282121852C28122A1
:101570007E80EE60145F7004C2828002D2821218F4
:101580004DC281EEC313FE80E9D282121852D2817D
:0B159000A282920D121852C281A20D1F
:01159B00222D
:10161B00D2827E80EE601B121852D281208205F49A
:10162B005FFF8003EF4EFF121852C281EEC313FE11
:07163B0080E212184BC2818E
:011642002285
:1015C800D2827E80EE601B121852D281208205F4EE
:1015D8005FFF8003EF4EFF121852C281EEC313FE65
:0915E80080E2C28212184DC2819A
:0115F10022D7
:1016F8007E01EED39408748094805013EF13920DFA
:0F170800A20D9284C283D283EFC313FF0E80E33E
:0117170022AF
:101643007E01EED39408748094805018D283C283B1
:10165300A284E433FDC43333335480FCEFC3134C0F
:04166300FF0E80DE18
:011667002260
:0F181400D2851216F8AF051216F8C285C28322CC
:0A186D00D2851216F8121643C28548
:01187700224E
:0A131A007800EBF208EAF208E9F2AD
:10132400D2857FBE1216F8E4FDEDD3940674809442
:101334008050197800E2FB08E2FA08E2F98D827520
:0E1344008300120846FF1216F80D80DDC285E8
:011352002278
:10151600D2857FBF1216F8E47803F27803E2D394FB
:1015260006748094805013121643EF1208737401E8
:0C15360029F9E43AFAE204F280E1C285EF
:011542002286
:0A1259007880EBF208EAF208E9F2EF
:10126300C285C283E4FD7F8E121814E4FCECD39490
:101273000674809480501FEC25E02480FF7880E280
:10128300FB08E2FA08E2F98C82758300120846FD36
:061293001218140C80D7B4
:011299002232
:10148900C285C283E47886F27886E2FFD394067433
:101499008094805019EF25E02481FF12186DEF1216
:0E14A9000873740129F9E43AFAE204F280DAD9
:0114B7002212
:1017E400AE071FEE600A000000000000000080F059
:0117F40022D2
:10176800C2B77F321217E4D2B77F061217E430B738
:06177800FD7F320217E4C0
:0215F200AD0743
:1015F4007B01EBD3940874809480501AED13920D00
:10160400EDC313FDC2B70000A20D92B77F061217F7
:06161400E4D2B70B80DCFC
:01161A0022AD
:101458007C01ECD39408748094805022C2B70000B9
:10146800D2B70000A2B7E433FB7F061217E4EBC43F
:101478003333335480FFEDC3134FFD0C80D4AF05D5
:011488002241
:101543001217687FCC1215F27F441215F212176836
:101553007FCC1215F27FBE1215F2121458AA07128D
:0C1563001458EFFE7C00E42AFFEC3EFE72
:01156F002259
:101668007880EFF208EDF21218317FA0121570E4BD
:10167800FF1215707880E2FF1215707881E2FF1270
:051688001570021805B9
:0414B8007880EFF257
:1014BC001218317FA0121570E4FF1215707880E2BB
:1014CC00FF1215701218317FA112157012161B78AD
:0A14DC0081EFF21218057881E2FF9B
:0114E60022E3
:10109D007804EBF208EAF208E9F208EDF27808E2DA
:1010AD00D3940074809480404D1218317FA0121596
:1010BD0070500512180580F17807E2FF121570784F
:1010CD0008E2D394007480948040267804E2FB08F3
:1010DD0008E2F92401F218E2FA3400F212082DFFA9
:1010ED001215707808E214F218E204F2E254077057
:0710FD00CE12180580A722A6
:101033007809EBF208EAF208E9F208EDF212183146
:101043007FA0121570500512180580F1780CE2FF8D
:101053001215701218317FA1121570780DE2D39416
:101063000174809480401F1215C87809E2FB0808B8
:10107300E2F92401F218E2FA3400F2EF120873786D
:101083000DE214F280D512161B7809E2FB08E2FA8E
:0A10930008E2F9EF120873021805D5
:04175000780EEFF22E
:10175400121831780EE225E0FF121570920E12185D
:0317640005A20ECD
:01176700225F
:020FBA00C10F65
:1017D100D2B35389F0438901C28CC2A9D28AD2AA59
:0317E100D2AF2262
:09138C007865EEF208EFF2D20CD4
:10139500E4F58CF58AD28CA2B3300C01B3400BAFC7
:1013A5008CEF943E7480948040EDC28CAF8CEFFE40
:0B13B500AD8A7C00E42DFFEC3EFE2220
:03001300020E3D9D
:100E3D00C0E0C0F0C083C082C0D075D000C000C07B
:0B0E4D0002C003C004C005C006C007BF
:100E5800C20C12139512138CAB07AA0618E2FE08EF
:100E6800E2FFC39440EE941F401BD3EF9410EE941E
:100E7800275012C3EB94ACEA940D4009D3EB948845
:100E8800EA94134005C289020F15900000C20C12A3
:100E9800139512138CAA06AB0718E2FE08E2FFC3EB
:100EA800942CEE9401401BD3EF94BCEE94025012A4
:100EB800C3EB942CEA94014009D3EB9408EA940715
:100EC8004004C2898047780FE2FC08E2FD08E2FE90
:100ED80008E2FF780112090E780F120921D3EB946A
:100EE80014EA94054016780FE2FC08E2FD08E2FED9
:100EF80008E2FFEC4480FC780F120921A3E5826424
:0D0F08002045837088D20FC291D291C2891A
:100F1500D007D006D005D004D003D002D000D0D061
:090F2500D082D083D0F0D0E0327C
:100AF800CEC2B6C83A2000A1E600202020CAB1D64E
:100B0800D33A2000200020202020B9D8BBFA28732F
:100B1800293A200020202020BAECCDE2D2A3BFD869
:100B2800A3BA000D0A0D0A0043482D0043480043AC
:100B3800482B005354433839204E524620527800EF
:100B480050524556004E45585400504C4159002DBE
:100B5800002B0045510030003130302B003230304E
:100B68002B003100320033003400350036003700E6
:100B7800380039006572726F7221003F065B4F665C
:100B88006D7D077F6FEE3E9C7A9E8E000001020409
:100B98000856582306050320202054696D653A320B
:100BA8003032302D30352D30362032333A35383A20
:100BB80035362033005C2D2A2D7C2D2A2D2F202020
:100BC80020202D202D53797374656D20666F722057
:100BD8003531204D43552D202D200D0A2D205259F9
:100BE8004D4355202D202020202D202D20207777A3
:100BF800772E72796D63752E636F6D20202D202DF1
:100C0800200D0A2F2D2A2D7C2D2A2D5C2020202016
:100C1800436F707972696768742062792072796DA0
:100C28006375207465616D200D0A0D0A00E0C0D05F
:100C380090B030706000010203040500000000005D
:010C480000AB
:100FBC008235000082310000822F00008440000046
:100FCC000000813700813E008A1E000000000000F6
:100FDC0000000000813900813300974400000000BC
:100FEC0000000000000000000000000000000000F5
:100FFC00000000875B000000000000008528000056
:10100C00000000841A00000000813800813D00C1FE
:10101C000AC109833A000000C10BC1088216000006
:06102C008118008119008B
:1000260078677C007DFE7BFF7A0C793D7E007F063B
:10003600120807786E7C007DFE7BFF7A0C79437E82
:10004600007F061208071217F51218781217A81261
:1000560017D11200031218237BFF7A0B799912121B
:10006600597F081214B87838EFF204FD7F0812168B
:10007600687834E264457024C2AFF2D20B12187865
:100086001217BD7D507F02120D497838E2FF121318
:10009600C0D2AF7BFF7A0B79BD121353783EE27064
:1000A600030201AA200B030201AA3008030201AAD7
:1000B600E4F2788374FEF2087400F208745BF27B53
:1000C600FE7A007944120496785BE2700B08E270BF
:1000D6000708E27003121823C2AF121543782DEEFB
:1000E600F208EFF2D2AF792DE3C4F854F0C868FAFB
:1000F60009E3C4540F48FB7C007D0AFFAE021208D8
:10010600B9EF24307828F27C007D0AAF03AE0212E4
:1001160008B9ED24307829F20874DFF2087443F246
:10012600E408F27BFE7A0079287D0D7F0212121117
:100136007BFF7A0A79F8121353E4782AF27BFE7A67
:100146000079281213537BFF7A0A79FF1213537B27
:10015600FF7A0B79021213537BFE7A00794412134D
:10016600537BFF7A0B790C1213537BFE7A00794F7F
:100176001213537BFF7A0B790E1213537BFE7A0010
:10018600791A1213537BFF7A0B791C121353783AA0
:10019600E2FB08E2FA08E2F91213537BFF7A0B79C5
:1001A6002B1213532008030202B412159C7BFE7A0D
:1001B60000796712129AE4786DF2786DE2C39403BF
:1001C6007480948040030202A3E2FF25E0246EF8C7
:1001D600E4F208F2EF25E02467F8E2FF786DE2FD2D
:1001E60025E0246EF8E4F208EFF2ED25E0246EF93E
:1001F60009E3FEED25E02468F8E27C002400FFEC2C
:100206003EFE786DE2FD25E0246EF8EEF208EFF290
:10021600ED25E0246EF8C000E2FE08E2FF7D311213
:1002260008A7D000EEF208EFF2786DE2FB25E02495
:100236006EF8E2FE08E2FF7C277D101208B9EF2473
:1002460030FFEB25E025E02474F8EFF2786DE2FB51
:1002560025E0246EF8E2FE08E2FF7C277D101208F6
:10026600B97E037FE8CFCDCFCECCCE1208B9EF242E
:1002760030FFEB25E025E02476F8EFF2786DE2FF1B
:1002860025E025E02475F8742EF2EF25E025E0241C
:1002960077F87420F2786DE204F20201C0E4787F08
:1002A600F27BFE7A0079747D037F02121211200F11
:1002B60003020077C20F780FE2FC08E2FD08E2FEB7
:1002C60008E2FF781012090E7834EFF212092D03B6
:1002D600940704260803B40903F60C03E60D03A4E9
:1002E6001503C61604061803D61904361C036E40F9
:1002F600045642038243035A44031845032846031F
:10030600384704764A04665204465A04165E0000CC
:100316000486783A74FFF208740BF2087430F2021D
:100326000077783A74FFF208740BF2087434F2021C
:100336000077783A74FFF208740BF2087437F2D239
:10034600081217BD7BFF7A0B793B7D027F011212E3
:1003560011020077783A74FFF208740BF2087448B9
:10036600F2C20AD209020077783A74FFF208740BD7
:10037600F208744DF2D20AD209020077783A74FF75
:10038600F208740BF2087452F2B209020077783A56
:1003960074FFF208740BF2087457F2020077783A89
:1003A60074FFF208740BF2087459F2020077783A77
:1003B60074FFF208740BF208745BF2B2EB0200777A
:1003C600783A74FFF208740BF208745EF202007752
:1003D600783A74FFF208740BF2087460F202007740
:1003E600783A74FFF208740BF2087465F20200772B
:1003F600783A74FFF208740BF208746AF202007716
:10040600783A74FFF208740BF208746CF202007703
:10041600783A74FFF208740BF208746EF2020077F1
:10042600783A74FFF208740BF2087470F2020077DF
:10043600783A74FFF208740BF2087472F2020077CD
:10044600783A74FFF208740BF2087474F2020077BB
:10045600783A74FFF208740BF2087476F2020077A9
:10046600783A74FFF208740BF2087478F202007797
:10047600783A74FFF208740BF208747AF202007785
:10048600783A74FFF208740BF208747CF202007773
:0818780075A0FFD287C2872290
:0E18230012168DD28012168F12168DD28022D0
:1011BF007813EBF208EAF208E9F2ED75F032A4FFCA
:1011CF00AEF07C007DFF1208B9AD07ED75F00A8413
:1011DF002430FF7813E2FB08E2FA08E2F9EF120875
:1011EF00737813E2FB08E2FA08E2F9900001742E1B
:1011FF00120885ED75F00A84E5F0243090000202A4
:02120F00088550
:10000300438910758B67758DFCD28ED2ABD2AF222C
:03001B0002095384
:10095300C0E0C0F0C083C082C0D075D000C000C06A
:0909630003C004C005C006C00772
:10096C00E4FB758B67758DFC7817E22401F218E2B5
:10097C003400F208E230E055200B52900B94E493D3
:10098C00F444F0F5A0D287C2877831E2FE08E2FF8A
:10099C002440F8E2900B8393F5A0D286C28674951E
:1009AC002FF582740B3EF583E493F444F0F5A0D25A
:1009BC0087C2877832E22401F218E23400F2C308CD
:1009CC00E2940418E294004004E4F208F2C37817AD
:1009DC00E294E818E294035003020A91E4F208F25C
:1009EC00783E04F27819E2FFF87401088002C333F0
:1009FC00D8FCF4F590C3EF94087480948078194077
:100A0C0004E4F28003E204F27830E22401F218E20A
:100A1C003400F2E2FE08E2FF7C007D0A1208B9788D
:100A2C0043EDF2782FE2FE08E2FF7C007D0A12080B
:100A3C00B97C007D0A1208B97842EDF2782FE2FEFB
:100A4C0008E2FF7C007D641208B97C007D0A120864
:100A5C00B97841EDF2782FE2FE08E2FF7C037DE8E5
:100A6C001208B97C007D0A1208B97840EDF2782F93
:100A7C00E2FE08E2FF7C007D051208B9ED4C700522
:100A8C00200B02B2EB30094D43A00FD2877818E24D
:100A9C00300A19FFC374079FFFE49400FE74352FCE
:100AAC00F582740C3EF583E493FB8005900C359332
:100ABC00FBEB3392A4EBA2E692A5A2E592A6A2E4EC
:100ACC0092A7C2877818E204F2E2C3940874809467
:050ADC00804002E4F27D
:100AE100D007D006D005D004D003D000D0D0D0821A
:070AF100D083D0F0D0E03209
:030023000214E7DD
:1014E700C0E0C0D075D000C000C00730980FC298C8
:1014F700AF99EF6455700375E76085999930990640
:0F150700C299783DE4F2D007D000D0D0D0E032C6
:1017A80075985075CADC75CCDC75CBFF75CDFF75A7
:0517B800C834D2AC2290
:101353007880EBF208EAF208E9F27880E2FB08E22F
:10136300FA08E2F912082D601F783DE270FB04F2DF
:101373007880E2FB0808E2F92401F218E2FA34006B
:09138300F212082DF59980D22226
:06168D00C2807F967E0082
:10169300D3EF9400EE940040147D467C00ED1D7062
:0D16A300011CED4C70F7EF1F70E61E80E398
:0116B0002217
:100496007880EBF208EAF208E9F2C2AF08E2FB085C
:1004A600E2FA08E2F9121489D2AF7880E2FB08E298
:1004B600FA08E2F974321208737880E2FB08E2FA6D
:1004C60008E2F990000174301208857883E2FB088F
:1004D600E2FA08E2F9900006120846C4540F2430E6
:1004E600FF7880E2FB08E2FA08E2F9900002EF12D8
:1004F60008857883E2FB08E2FA08E2F99000061222
:100506000846540F2430FF7880E2FB08E2FA08E23E
:10051600F9900003EF120885900004742D120885E7
:100526007883E2FB08E2FA08E2F990000412084632
:10053600C4540F2430FF7880E2FB08E2FA08E2F99F
:10054600900005EF1208857883E2FB08E2FA08E2DC
:10055600F9900004120846540F2430FF7880E2FB1D
:1005660008E2FA08E2F9900006EF12088590000703
:10057600742D1208857883E2FB08E2FA08E2F99006
:100586000003120846C4540F2430FF7880E2FB08AB
:10059600E2FA08E2F9900008EF1208857883E2FB98
:1005A60008E2FA08E2F9900003120846540F2430D4
:1005B600FF7880E2FB08E2FA08E2F9900009EF1200
:1005C600088590000AE41208857883E2FB08E2FABF
:1005D60008E2F9900002120846C4540F2430FF784E
:1005E60080E2FB08E2FA08E2F990000BEF120885B8
:1005F6007883E2FB08E2FA08E2F990000212084664
:10060600540F2430FF7880E2FB08E2FA08E2F99002
:10061600000CEF12088590000D743A120885788355
:10062600E2FB08E2FA08E2F9900001120846C45417
:100636000F2430FF7880E2FB08E2FA08E2F9900026
:100646000EEF1208857883E2FB08E2FA08E2F990D9
:100656000001120846540F2430FF7880E2FB08E2BE
:10066600FA08E2F990000FEF120885900010743A2C
:100676001208857883E2FB08E2FA08E2F912082DEF
:10068600FFC4540F2430FE7880E2FB08E2FA08E249
:10069600F9900011EE120885EF540F2430900012E5
:1006A600120885900013E41208857883E2FB08E2BD
:1006B600FA08E2F9900005120846C4540F2430FFE8
:1006C6007880E2FB08E2FA08E2F9900014EF1208DB
:1006D600857883E2FB08E2FA08E2F9900005120841
:1006E60046540F2430FF7880E2FB08E2FA08E2F96C
:1006F600900015EF120885900016E41208857D011A
:100706007F011212117880E2FB08E2FA08E2241552
:10071600F9E43AFA7D0C7F011212117880E2FB08A7
:10072600E2FA08E2240BF9E43AFA7D027F020212A9
:0107360011B1
:1013C000EF75F064842430781AF2EF75F06484E5E8
:1013D000F075F00A84243008F2EF75F00A84E5F025
:1013E000243008F2E408F27BFE7A00791A7D0E7F41
:0413F00001021211D3
:100C490004041F04000F081108081F08001F0102EF
:100C590007040407040407021C04041C04041C0000
:100C69000101010F0909090F0000001C0404041CFB
:100C7900000F00000001011F001C04080810001FDC
:100C890000001E02030D0D061010101E02040808B4
:100C99000008050501011D0500100E0A0A0A0A0AC5
:100CA9000505050D0E15050500001E020C0C0C0AA4
:100CB900000404040404040400000000000000000F
:100CC900010F0103050D1901001E10080804030096
:100CD9000407090902040501001E0A0A12120C047C
:100CE9000909090F090101000404041C0501011F78
:100CF90001010101010103010000000000000000E1
:100D0900040C0A0B11010204081818040404020156
:100D190005050505040C0B000A1E0C0808081F0030
:100D2900060504010D0D14070A0810000205051C2B
:100D3900040400000404000000000000000000009A
:0616B1007884E2FF7E00D8
:1016B700D3EF9400EE940040147D467C00ED1D703E
:0D16C700011CED4C70F7EF1F70E61E80E374
:0116D40022F3
:070D49007880EFF208EDF2E3
:100D5000E47883F2087414F27880E2FF14F2EF7002
:100D600003020E3C08E208F27882E2FF14F2EF6020
:100D70005CE4FF1211047F8012177EE47883F2781E
:100D800083E2FFC3940874809480500A121793780A
:100D900083E204F280E91216B17F0112177E7F020E
:100DA0001211047FC012177EE47883F27883E2FF89
:100DB000C3940874809480500A1217937883E204D5
:100DC000F280E91216B17F0112177E809B7881E2D2
:100DD00008F27882E2FF14F2EF7003020D587F01EF
:100DE0001211047F8812177E78837408F27883E2E8
:100DF000FFC3941074809480500A1217937883E292
:100E000004F280E91216B17F0112177E7F031211DE
:100E1000047FC812177E78837408F27883E2FFC3D8
:100E2000941074809480500A1217937883E204F22D
:0C0E300080E91216B17F0112177E809637
:010E3C002293
:041104007885EFF209
:101108007F4012177EE47886F27886E2C3940874EA
:101118008094805046E408F27887E2FFC39408740C
:10112800809480502F7885E275F008A4FE08E22E9E
:1011380075F008A42449F582E4340CF583E5822F80
:10114800F582E43583F583E493FF1217937887E2F9
:0B11580004F280C47886E204F280AE4E
:011163002269
:0500160034431010014D
:10171800D3EF9400EE940040147D6E7C00ED1D70B4
:0D172800011CED4C70F7EF1F70E61E80E312
:011735002291
:0A13F400EBF208EAF208E9F2C2E8A1
:1013FE00E4FEEEC3940874809480501BEF30E70433
:10140E00D2ED8002C2EDEF25E0FFD2E930EA0344CF
:07141E0001FFC2E90E80DBB3
:0114250022A4
:1017F5007F027E00121718C2ECD2E8C2E9D2EE22AF
:0C183E00C2E81213FEE4FF1213FED2E811
:01184A00227B
:091736007D017F2112173F7F2283
:10173F00C2E81213FEAC07AF051213FED2E8AF04D6
:01174F002277
:021426007884C8
:101428001213F4AD07E4FC7887E2FFECC39F501B6E
:10143800E4FF1213FE7884E2FB08E2FA08E2F98C72
:0F14480082758300EF1208850C80DCD2E8AF05B7
:011457002272
:0D12DB007BFF7A00791678847405F27F2A73
:0212E80078810B
:1012EA001213F4AD07E4FC7884E2FFECC39F501BB1
:1012FA007881E2FB0808E2F92401F218E2FA3400E4
:0F130A00F212082DFF1213FE0C80DCD2E8AF05A3
:0113190022B1
:101164007862EBF208EAF208E9F2C2EC7BFF7A005B
:10117400791678847405F27F301212E81212DB7843
:1011840062E2FB08E2FA08E2F978847406F27FA0CE
:101194001212E81217367D0A7F2412173F7D407F12
:1011A4002512173F7D077F2612173F7D0E7F2012E1
:0B11B400173FD2EC7F057E00021718E9
:10159C00C2EC1212DB1217367D407F2512173F7DED
:1015AC00067F3112173F0D7F2612173F7D0F7F20CC
:0C15BC0012173FD2EC7F057E00021718CA
:1016D5007F0712183E8F202005033004137DFF7FFE
:1016E5002712173FC2E87FE11213FED2E87F0022DE
:0316F5007F012250
:0A129A007880EBF208EAF208E9F2AE
:1012A400E4FB7F0712183E8F20300628C2EC7880BA
:1012B400E2FB08E2FA08E2F978877406F27F611229
:1012C40014267B017DFF7F2712173FC2E87FE212BD
:0612D40013FED2E8AF0397
:0112DA0022F1
:03000000020F2EBE
:0C0F2E00787FE4F6D8FD758121020F7574
:10073700E709F608DFFA8046E709F208DFFA803EA4
:1007470088828C83E709F0A3DFFA8032E309F60891
:10075700DFFA8078E309F208DFFA807088828C83F9
:10076700E309F0A3DFFA806489828A83E0A3F608AD
:10077700DFFA805889828A83E0A3F208DFFA804C87
:1007870080D280FA80C680D4806980F2803380105E
:1007970080A680EA809A80A880DA80E280CA8033C7
:1007A70089828A83ECFAE493A3C8C582C8CCC5833F
:1007B700CCF0A3C8C582C8CCC583CCDFE9DEE7800F
:1007C7000D89828A83E493A3F608DFF9ECFAA9F08E
:1007D700EDFB2289828A83ECFAE0A3C8C582C8CCE4
:1007E700C583CCF0A3C8C582C8CCC583CCDFEADEFD
:1007F700E880DB89828A83E493A3F208DFF980CC5F
:1008070088F0EF60010E4E60C388F0ED2402B40457
:100817000050B9F582EB2402B4040050AF232345FE
:0608270082239007877395
:10082D00BB010689828A83E0225002E722BBFE02C9
:09083D00E32289828A83E49322FC
:10084600BB010CE58229F582E5833AF583E0225067
:1008560006E92582F8E622BBFE06E92582F8E222B1
:0D086600E58229F582E5833AF583E49322CB
:10087300BB010689828A83F0225002F722BBFE0164
:02088300F3225E
:10088500F8BB010DE58229F582E5833AF583E8F0A9
:10089500225006E92582C8F622BBFE05E92582C855
:0208A500F2223D
:1008A700EF8DF0A4A8F0CF8CF0A428CE8DF0A42E65
:0208B700FE221F
:1008B900BC000BBE0029EF8DF084FFADF022E4CC23
:1008C900F875F008EF2FFFEE33FEEC33FCEE9DECEC
:1008D900984005FCEE9DFE0FD5F0E9E4CEFD22ED32
:1008E900F8F5F0EE8420D21CFEADF075F008EF2F7C
:1008F900FFED33FD4007985006D5F0F222C398FD6D
:050909000FD5F0EA2209
:10090E00E8600FECC313FCED13FDEE13FEEF13FFC7
:03091E00D8F122EB
:0C092100ECF208EDF208EEF208EFF22212
:10092D00D083D082F8E4937012740193700DA3A359
:10093D0093F8740193F5828883E47374029368606D
:06094D00EFA3A3A380DF6D
:100F3A00020026E493A3F8E493A34003F68001F2A7
:100F4A0008DFF48029E493A3F85407240CC8C333B8
:100F5A00C4540F4420C8834004F456800146F6DF87
:100F6A00E4800B0102040810204080900FBAE47E4E
:100F7A00019360BCA3FF543F30E509541FFEE4937C
:100F8A00A360010ECF54C025E060A840B8E493A343
:100F9A00FAE493A3F8E493A3C8C582C8CAC583CA6E
:100FAA00F0A3C8C582C8CAC583CADFE9DEE780BE26
:0110320000BD
:00000001FF
