:0604E7008B0A8A0B890C50
:1004ED0012050FAB0AAA0BA90C1204646013050CBC
:1004FD00E50C7002050B14F9120464FF120554800B
:01050D00E20B
:01050E0022CA
:020003008B0A66
:0B00050012050FE50A2430FF0205542D
:10052D007F3812051C7F0C12051C7F0612051C7FDF
:04053D000102051C96
:0B05650075A0FF120570EF20E7F922DF
:0A057000C2B6D2B5D2B4AFA0C2B437
:01057A00225E
:0D050F00EF1475F040A4FFED142F2480FFC1
:10051C008F0D120565C2B6C2B5850DA0D2B4C2B49A
:01052C0022AC
:100554008F0D120565D2B6C2B5850DA0D2B4C2B452
:010564002274
:02057B00C100BD
:10054100D2B35389F0438901C28CC2A9D28AD2AAFB
:03055100D2AF2204
:0604B6008E088F09D2013F
:1004BC00E4F58CF58AD28CA2B3300101B3400BAFBA
:1004CC008CEF943E7480948040EDC28CAF8CEFFE28
:0B04DC00AD8A7C00E42DFFEC3EFE2208
:030013000202489E
:10024800C0E0C083C082C0D075D000C000C002C06A
:0902580003C004C005C006C00784
:10026100C2011204BC1204B6AB07AA06C3E5099485
:1002710040E508941F401DD3E5099410E508942733
:100281005012C3EB94ACEA940D4009D3EB9488EA85
:1002910094134004C28B8078900000C2011204BC08
:1002A1001204B6AA06AB07C3E509942CE50894012C
:1002B100401DD3E50994BCE50894025012C3EB94A8
:1002C1002CEA94014009D3EB9408EA94074004C254
:1002D1008B803DAF16AE15AD14AC13780112047DC1
:1002E1008F168E158D148C13D3EB9414EA9405405C
:1002F10012E516F516E515F515E514F514E51344A3
:1003010080F513A3E58264204583708FD200C28BF0
:10031100D007D006D005D004D003D002D000D0D071
:07032100D082D083D0E0324E
:1003280047756573732047616D6500507265737317
:1003380020272B272073746172742100202020202D
:10034800202020202020202020202020005354413D
:100358005254003A796F7520676F742069742100D0
:100368003A746F6F2062696721003A746F6F207367
:100378006D616C6C2100696E707574206E756D3AD4
:10038800302D390043482D0043480043482B005086
:10039800524556004E45585400504C41592F504133
:1003A800555345002D002B004551003000313030A9
:1003B8002B003230302B003100320033003400354E
:1003C8000036003700380039006572726F722100FC
:08057D000310000000010F0053
:1001670012052D7BFF7A0379287D047F011204E7AE
:100177007BFF7A0379337D017F021204E712054181
:1001870012058F3000FDC200120016E50E641670CE
:10019700217BFF7A0379447D017F021204E77BFF0D
:1001A7007A0379557D077F021204E71205868F0FC0
:1001B70080D1D3E50E9409748094805067E50E656D
:1001C7000F70207BFF7A0379447D017F021204E7D9
:1001D700AB0E7D017F021200037BFF7A03795B7D03
:1001E700028039E50ED3950F7BFF7A0379447D01B1
:1001F7007F0240141204E7AB0E7D047F0212000356
:100207007BFF7A03796880121204E7AB0E7D047FC7
:10021700021200037BFF7A0379727D057F021204C5
:10022700E702018A7BFF7A0379447D017F0212048A
:10023700E77BFF7A03797E7D017F021204E70201E3
:010247008A2C
:10001600AF16AE15AD14AC13781012047DEF1204B2
:100026009000A607010F0800BD0900E80C00DE0DD0
:1000360000B01500C71600F51800D419011C1C00E5
:100046009240013642009C43008844006A45007491
:1000560046007E4701504A01435201295A01025E79
:100066000000015D7510FF75110375128C22751065
:10007600FF751103751290227510FF751103751225
:1000860093227510FF751103751297227510FF756F
:10009600110375129C227510FF7511037512A122AA
:1000A6007510FF7511037512AC227510FF751103DB
:1000B6007512AE750E16227510FF7511037512B006
:1000C600227510FF7511037512B3E4F50E22751033
:1000D600FF7511037512B5227510FF7511037512A0
:1000E600BA227510FF7511037512BF750E012275C0
:1000F60010FF7511037512C1750E02227510FF757A
:1001060011037512C3750E03227510FF7511037561
:1001160012C5750E04227510FF7511037512C77589
:100126000E05227510FF7511037512C9750E06228C
:100136007510FF7511037512CB750E07227510FF2A
:100146007511037512CD750E08227510FF75110312
:100156007512CF750E09227510FF7511037512D130
:010166002276
:08058F00438910D28EC2AB2299
:09058600E58B75F00A84AFF02248
:030000000203D820
:0C03D800787FE4F6D8FD75812002041F38
:10046400BB010689828A83E0225002E722BBFE0296
:09047400E32289828A83E49322C9
:10047D00E8600FECC313FCED13FDEE13FEEF13FF5D
:03048D00D8F12281
:10049000D083D082F8E4937012740193700DA3A3FB
:1004A00093F8740193F5828883E47374029368600F
:0604B000EFA3A3A380DF0F
:1003E400020167E493A3F8E493A34003F68001F2C7
:1003F40008DFF48029E493A3F85407240CC8C3331A
:10040400C4540F4420C8834004F456800146F6DFE8
:10041400E4800B010204081020408090057BE47EF8
:10042400019360BCA3FF543F30E509541FFEE493DD
:10043400A360010ECF54C025E060A840B8E493A3A4
:10044400FAE493A3F8E493A3C8C582C8CAC583CACF
:10045400F0A3C8C582C8CAC583CADFE9DEE780BE87
:010585000075
:00000001FF
