:0601A6008B168A17891870
:1001AC00EF1475F040A4FFED142F2480FF12028D84
:1001BC00AB16AA17A91812013860130518E51870A8
:0E01CC0002051714F9120138FF12029E80E29C
:0101DA002202
:100266007F3812028D7F0C12028D7F0612028D7F5F
:040276000102028DF2
:0B02DE0075A0FF1202E9EF20E7F922F3
:0A02E900C2B6D2B5D2B4AFA0C2B4C1
:0102F30022E8
:10028D008F191202DEC2B6C2B58519A0D2B4C2B49E
:01029D00223E
:10029E008F191202DED2B6C2B58519A0D2B4C2B47D
:0102AE00222D
:0D02D100526F6E6759692052592D3531006A
:1002AF000A0A000000000000000000000214000015
:10000E00758901758A67758CFCD28CD2A9D2AF1214
:10001E0002667BFF7A0279D17D037F011201A6C3AE
:10002E00E51594E8E514940340F5C2AFE4F514F534
:10003E00151201DB8E088F09E508C4F854F0C86864
:10004E00FAE509C4540F48FB7C007D0AFFAE02128C
:10005E000151EF2430F50A7C007D0AAF03AE021287
:10006E000151ED2430F50B750C2EE509AE08780321
:10007E00CEC313CE13D8F9FF7C007D0A120151EDC9
:10008E004C6005750D358003750D30E4F50EFB7A69
:0E009E0000790A7D037F021201A6D2AF808195
:03000B0002027A74
:10027A00C0E0758A67758CFC0515E51570020514D2
:03028A00D0E0328F
:1002C000AE071FEE600A000000000000000080F092
:0102D000220B
:10025000C2B77F321202C0D2B77F061202C030B7D7
:06026000FD7F320202C026
:02023000AD0718
:100232007B01ED139200EDC313FDC2B70000A200D3
:0D02420092B77F061202C0D2B70BBB09E5D0
:01024F00228C
:100208007C01C2B70000D2B70000A2B7E433FB7F7D
:10021800061202C0EBC43333335480FFEDC3134FCF
:07022800FD0CBC09DDAF0570
:01022F0022AC
:1001DB001202507FCC1202307F44120230120250B6
:1001EB007FCC1202307FBE120230120208AA071215
:0C01FB000208EFFE7C00E42AFFEC3EFE50
:0102070022D4
:030000000200AC4F
:0C00AC00787FE4F6D8FD7581200200F397
:10013800BB010689828A83E0225002E722BBFE02C5
:09014800E32289828A83E49322F8
:10015100BC000BBE0029EF8DF084FFADF022E4CC92
:10016100F875F008EF2FFFEE33FEEC33FCEE9DEC5B
:10017100984005FCEE9DFE0FD5F0E9E4CEFD22EDA1
:10018100F8F5F0EE8420D21CFEADF075F008EF2FEB
:10019100FFED33FD4007985006D5F0F222C398FDDC
:0501A1000FD5F0EA2279
:1000B80002000EE493A3F8E493A34003F68001F250
:1000C80008DFF48029E493A3F85407240CC8C33349
:1000D800C4540F4420C8834004F456800146F6DF18
:1000E800E4800B01020408102040809002AFE47EF7
:1000F800019360BCA3FF543F30E509541FFEE4930D
:10010800A360010ECF54C025E060A840B8E493A3D3
:10011800FAE493A3F8E493A3C8C582C8CAC583CAFE
:10012800F0A3C8C582C8CAC583CADFE9DEE780BEB6
:0102BF00003E
:00000001FF
