:060003008B088A09890A3E
:10000900EF1475F040A4FFED142F2480FF1200A116
:10001900AB08AA09A90A1200746013050AE50A7057
:0E00290002050914F9120074FF1200B280E201
:0100370022A6
:10008D007F381200A17F0C1200A17F061200A17F04
:04009D00010200A1BB
:0B00CF0075A0FF1200DAEF20E7F92215
:0A00DA00C2B6D2B5D2B4AFA0C2B4D2
:0100E40022F9
:1000A1008F0B1200CFC2B6C2B5850BA0D2B4C2B4B9
:0100B100222C
:1000B2008F0B1200CFD2B6C2B5850BA0D2B4C2B498
:0100C200221B
:10005700526F6E675969204D696E692D3531004CB5
:0D006700434431363032205465737421005B
:1000380012008D7BFF7A0079577D027F0112000341
:0F0048007BFF7A0079667D037F0212000380FE42
:030000000200C338
:0C00C300787FE4F6D8FD75810B02003850
:10007400BB010689828A83E0225002E722BBFE028A
:09008400E32289828A83E49322BD
:00000001FF
