:100202003F065B4F666D7D077F6F777C395E797144
:05021200FFFEFDFBF7FB
:1001E800020B00000215000002090000080D0000C3
:0901F800000000000000010800F5
:10011A00758901758A67758CFCD28CD2A9D2AFC356
:10012A00E51694E8E515940340F5E4F515F516058A
:10013A000AE50A70020509AE09FF7C007D0A120170
:10014A00938C138D14AE09AF0A7C007D0A120193B9
:10015A007C007D0A1201938C118D12AE09AF0A7CC4
:10016A00007D641201937C007D0A1201938C0F8D2D
:10017A0010AE09AF0A7C037DE81201937C007D0A68
:09018A001201938C0D8D0E80967C
:03000B0002009A56
:0F009A00C0E0C083C082C0D075D000C000C006D7
:1000A900758A67758CFC0516E51670020515050C31
:1000B900E50C7002050BC39402E50B9400404575ED
:1000C9000B00750C0075A000D286C286E508900267
:1000D9001393F5A0D287C287E50825E0240DF8E639
:1000E900FE08E62402F58274023EF583E493F5A046
:1000F900D286C2860508C3E50894047480948040BA
:040109000375080072
:0D010D00D006D000D0D0D082D083D0E03218
:0300000002000EED
:0C000E00787FE4F6D8FD758116020055DD
:10019300BC000BBE0029EF8DF084FFADF022E4CC50
:1001A300F875F008EF2FFFEE33FEEC33FCEE9DEC19
:1001B300984005FCEE9DFE0FD5F0E9E4CEFD22ED5F
:1001C300F8F5F0EE8420D21CFEADF075F008EF2FA9
:1001D300FFED33FD4007985006D5F0F222C398FD9A
:0501E3000FD5F0EA2237
:10001A0002011AE493A3F8E493A34003F68001F2E1
:10002A0008DFF48029E493A3F85407240CC8C333E7
:10003A00C4540F4420C8834004F456800146F6DFB6
:10004A00E4800B01020408102040809001E8E47E5D
:10005A00019360BCA3FF543F30E509541FFEE493AB
:10006A00A360010ECF54C025E060A840B8E493A372
:10007A00FAE493A3F8E493A3C8C582C8CAC583CA9D
:10008A00F0A3C8C582C8CAC583CADFE9DEE780BE55
:0102010000FC
:00000001FF
