:1000EF003F065B4F666D7D077F6F777C395E797159
:0500FF00FFFEFDFBF710
:0700030002090000010800E2
:10010400758901758A67758CFCD28CD2A9D2AF80AF
:01011400FEEC
:03000B0002009A56
:08009A00C0E0C083C082C0D0A9
:1000A200758A67758CFC050AE50A70020509C39416
:1000B200F4E5099401402D750900750A00E50890E0
:1000C200010093F5A0D287C287E5089000F093F56E
:1000D200A0D286C2860508E5089404748094804004
:0400E200037508009A
:0900E600D0D0D082D083D0E032EA
:0300000002000EED
:0C000E00787FE4F6D8FD75810A020055E9
:10001A00020104E493A3F8E493A34003F68001F2F7
:10002A0008DFF48029E493A3F85407240CC8C333E7
:10003A00C4540F4420C8834004F456800146F6DFB6
:10004A00E4800B0102040810204080900003E47E43
:10005A00019360BCA3FF543F30E509541FFEE493AB
:10006A00A360010ECF54C025E060A840B8E493A372
:10007A00FAE493A3F8E493A3C8C582C8CAC583CA9D
:10008A00F0A3C8C582C8CAC583CADFE9DEE780BE55
:01000A0000F5
:00000001FF
