:030000000200A556
:0C00A500787FE4F6D8FD7581200200ECA5
:06019F008B168A17891877
:1001A500EF1475F040A4FFED142F2480FF12029880
:1001B500AB16AA17A91812013160130518E51870B6
:0E01C50002051714F9120131FF1202A980E29F
:0101D3002209
:100271007F381202987F0C1202987F061202987F33
:0402810001020298DC
:0B02DC0075A0FF1202E7EF20E7F922F7
:0A02E700C2B6D2B5D2B4AFA0C2B4C3
:0102F10022EA
:100298008F191202DCC2B6C2B58519A0D2B4C2B495
:0102A8002233
:1002A9008F191202DCD2B6C2B58519A0D2B4C2B474
:0102B9002222
:1002BA00AE071FEE600A000000000000000080F098
:0102CA002211
:10025B00C2B77F321202BAD2B77F061202BA30B7D8
:06026B00FD7F320202BA21
:02023200AD0716
:100234007B01EBD3940874809480501AED139200E0
:10024400EDC313FDC2B70000A20092B77F061202ED
:06025400BAD2B70B80DCFA
:01025A002281
:1001D4007C01ECD39408748094805022C2B7000050
:1001E400D2B70000A2B7E433FB7F061202BAEBC415
:1001F4003333335480FFEDC3134FFD0C80D4AF056C
:0102040022D7
:1002050012025B7FCC1202327F4412023212025B71
:100215007FCC1202327FBE1202321201D4AA07121B
:0C02250001D4EFFE7C00E42AFFEC3EFE5A
:0102310022AA
:0A02F2004E6562756C612D506900C5
:1002CB000A0A0000000000000000000002140000F9
:10000E00758901758A67758CFCD28CD2A9D2AF1214
:10001E0002717BFF7A0279F27D037F0112019FC389
:10002E00E51594E8E514940340F5C2AFE4F514F534
:10003E00151202058E088F09E508C4F854F0C86839
:10004E00FAE509C4540F48FB7C007D0AFFAE02128C
:10005E00014AEF2430F50A7C007D0AAF03AE02128E
:10006E00014AED2430F50B750C2EAE08E509780328
:10007E00CEC313CE13D8F9FF7C007D0A12014AEDD0
:10008E002430F50DE4F50EFB7A00790A7D037F022C
:07009E0012019FD2AF808820
:03000B0002028569
:10028500C0E0758A67758CFC0515E51570020514C7
:03029500D0E03284
:1000B10002000EE493A3F8E493A34003F68001F257
:1000C10008DFF48029E493A3F85407240CC8C33350
:1000D100C4540F4420C8834004F456800146F6DF1F
:1000E100E4800B01020408102040809002CBE47EE2
:1000F100019360BCA3FF543F30E509541FFEE49314
:10010100A360010ECF54C025E060A840B8E493A3DA
:10011100FAE493A3F8E493A3C8C582C8CAC583CA05
:10012100F0A3C8C582C8CAC583CADFE9DEE780BEBD
:0102DB000022
:10013100BB010689828A83E0225002E722BBFE02CC
:09014100E32289828A83E49322FF
:10014A00BC000BBE0029EF8DF084FFADF022E4CC99
:10015A00F875F008EF2FFFEE33FEEC33FCEE9DEC62
:10016A00984005FCEE9DFE0FD5F0E9E4CEFD22EDA8
:10017A00F8F5F0EE8420D21CFEADF075F008EF2FF2
:10018A00FFED33FD4007985006D5F0F222C398FDE3
:05019A000FD5F0EA2280
:00000001FF
