:10065C002B2B2B0041542B524553544F52450D0A12
:10066C000041542B5253540D0A0041542B43574D07
:10067C004F44453D320D0A0041542B43574D4F44D6
:10068C00453D330D0A0041542B4349504D55583DBF
:10069C00310D0A0041542B43494653520D0A004177
:1006AC00542B4349504D4F44453D310D0A004154A4
:1006BC002B43495053454E440D0A0041542B43499A
:1006CC0050434C4F53453D340D0A0041542B435776
:1006DC004A41505F4445463D2254502D4C494E4BA7
:1006EC005F776A222C22776A3831303034220D0A37
:1006FC000041542B43574A41505F4445463D22002C
:10070C0054502D4C494E4B5F776A0000000000009E
:10071C0000000000000000000000000000000000CD
:10072C0000000000000000000000000000000000BD
:10073C0000000000000000000000000000000000AD
:10074C00000000000000000000000000000000009D
:10075C00000000000000000000000000000000008D
:10076C0000000000222C2200776A383731303034F8
:10077C00000000000000000000000000000000006D
:10078C00000000000000000000000000000000005D
:10079C00000000000000000000000000000000004D
:1007AC00000000000000000000000000000000003D
:1007BC00000000000000000000000000000000002D
:1007CC00000000000000000000000000220D0A00E4
:1007DC0041542B43575341503D2272796D6375221E
:1007EC002C2272796D63752E636F6D222C31312C36
:1007FC00330D0A0041542B43495053544152543D3C
:10080C0022544350222C223139322E3136382E309C
:10081C002E313034222C353030310D0A0041542B1E
:10082C004349505345525645523D312C35303030AA
:10083C000D0A0041542B43495053454E443D302C36
:10084C00350D0A0041542B43495053544152543DE9
:10085C00342C22554450222C223235352E3235354B
:10086C002E3235352E323535222C383038302C316D
:0F087C003131322C300D0A00415445300D0A0045
:1013A40052004541542B43574D4F44455F444546F5
:0513B4003D310D0A00AF
:041308007FC47E0917
:10130C00D3EF9400EE940040147DD27C00ED1D7060
:0E131C00011CED4C70F7EF1F70E61E80E322FF
:100DBA007FDC7E0512130C7FF47E0112130C7BFF7D
:100DCA007A0679601212527FAC7E0D12130C7BFFE9
:100DDA007A0679841212527FAC7E0D12130C7BFFB5
:100DEA007A0679FD1212527BFF7A07790C12125297
:100DFA007BFF7A0779701212527BFF7A0779741295
:100E0A0012527BFF7A0779D81212527F707E17121C
:100E1A00130C7BFF7A0679A01212521213087BFF79
:100E2A007A0679921212521213087BFF7A087950C5
:100E3A001212521213087BFF7A087984121252E4B2
:030E4A00FEFF2286
:0613B90041004400C100E8
:1013DB0075985075CDFF75CCFD75CBFF75CAFDD2D9
:0A13EB00CCD2CDC2C9C2CBD2CA22B7
:080003001213DBD2ACD2AF22D4
:1012520090007EEBF0A3EAF0A3E9F090007EE0FBC1
:10126200A3E0FAA3E0F9120CF7601C2000FDD20003
:1012720090007EE0FBA3E475F001120DA4A9F0FA40
:08128200120CF7F59980D4224B
:0300230002107850
:10107800C0E0C083C082C0D075D000C006C00730B1
:10108800983DC2989000007401F09000427405F0F9
:10109800900044E0FF3395E0FE74012FF582740060
:1010A8003EF583E599F0900044E004F0E0FF3395C5
:1010B800E0FEC3EF9440EE648094804002E4F03098
:1010C8009904C299C200D007D006D0D0D082D0836C
:0310D800D0E03233
:07142100D2B6121428D2A17B
:0514280000000000229D
:0D141400C2A1121421C2B6121428C2A122D6
:0F140500C2A1C2B6121423D2B6121428C2A12259
:10128A007E80EE60145F7004C2B68002D2B6121479
:10129A0023C2A1EEC313FE80E9D2B6121428D2A14A
:0C12AA00A2B69201121428C2A1A20122D7
:1012E000D2B67E80EE601B121428D2A120B605F47F
:1012F0005FFF8003EF4EFF121428C2A1EEC313FE5E
:0813000080E2121421C2A122B7
:1012B600D2B67E80EE601B121428D2A120B605F4A9
:1012C6005FFF8003EF4EFF121428C2A1EEC313FE88
:0A12D60080E2C2B6121423C2A12266
:1000260000000000000000000000000000000000CA
:10003600000000000000000000F8000000000000C2
:1000460000333000000000100C06100C0600000003
:1000560000000000000040C07840C0784000043F27
:1000660004043F040400007088FC083000000018F7
:1000760020FF211E0000F008F000E018000000211B
:100086001C031E211E0000F00888700000001E21BF
:1000960023241927211010160E000000000000006E
:1000A600000000000000000000E01804020000004C
:1000B60000071820400000020418E000000000407D
:1000C600201807000000404080F0804040000202F7
:1000D600010F01020200000000F000000000010113
:1000E600011F01010100000000000000000080B0B7
:1000F6007000000000000000000000000000000189
:1001060001010101010100000000000000000030B3
:10011600300000000000000000008060180400604D
:1001260018060100000000E010080810E000000FAB
:10013600102020100F00001010F800000000002012
:10014600203F20200000007008080888700000305A
:100156002824222130000030088888483000001802
:10016600202020110E000000C02010F8000000071B
:100176000424243F240000F8088888080800001991
:10018600212020110E0000E0108888180000000FC2
:10019600112020110E0000380808C8380800000099
:1001A600003F000000000070880808887000001CEE
:1001B600222121221C0000E010080810E0000000A7
:1001C600312222110F00000000C0C0000000000014
:1001D6000030300000000000008000000000000039
:1001E6008060000000000000804020100800000130
:1001F60002040810200040404040404040000404F3
:1002060004040404040000081020408000000020BC
:10021600100804020100007048080808F0000000F9
:10022600003036010000C030C828E810E00007188A
:10023600272423140B000000C038E0000000203CF7
:1002460023020227382008F8888888700000203F9B
:10025600202020110E00C0300808080838000718B2
:1002660020202010080008F808080810E000203FA9
:10027600202020100F0008F88888E8081000203F8A
:1002860020202320180008F88888E8081000203F5E
:10029600200003000000C0300808083800000718D6
:1002A6002020221E020008F808000008F808203F57
:1002B600210101213F20000808F80808000000205D
:1002C600203F2020000000000808F8080800C08031
:1002D60080807F00000008F888C028180800203FAA
:1002E60020012638200008F8080000000000203F02
:1002F60020202020300008F8F800F8F80800203FF9
:10030600003F003F200008F830C00008F808203FF2
:10031600200007183F00E01008080810E0000F1042
:10032600202020100F0008F808080808F000203FD9
:10033600210101010000E01008080810E0000F1874
:10034600242438504F0008F8888888887000203F99
:100356002000030C30200070880808083800003898
:10036600202121221C00180808F80808180000009F
:10037600203F2000000008F808000008F808001FC9
:10038600202020201F000878880000C838080000B8
:1003960007380E010000F80800F80008F800033CD2
:1003A6000700073C0300081868808068180820309A
:1003B6002C03032C30200838C800C8380800000079
:1003C600203F2000000010080808C8380800203820
:1003D600262120201800000000FE02020200000074
:1003E600007F40404000000C30C0000000000000CC
:1003F60000010638C00000020202FE0000000040B4
:1004060040407F00000000000402020204000000D9
:1004160000000000000000000000000000008080D6
:1004260080808080808000020204000000000000BE
:10043600000000000000000080808080000000199D
:10044600242222223F2008F8008080000000003F7E
:10045600112020110E000000008080800000000E98
:10046600112020201100000000808088F800000E76
:10047600112020103F200000808080800000001F97
:10048600222222221300008080F08888881800200B
:10049600203F202000000000808080808000006BCC
:1004A60094949493600008F8008080800000203FB8
:1004B600210000203F2000809898000000000020C6
:1004C600203F20200000000000809898000000C017
:1004D6008080807F000008F8000080808000203F38
:1004E60024022D302000000808F80000000000203B
:1004F600203F202000008080808080808000203F78
:1005060020003F20003F8080008080800000203F48
:10051600210000203F200000808080800000001F16
:10052600202020201F00808000808000000080FFA7
:10053600A12020110E000000008080808000000EA7
:10054600112020A0FF8080808000808080002020F5
:100556003F21200001000000808080808000003361
:10056600242424241900008080E0808000000000FC
:10057600001F202000008080000000808000001FF7
:10058600202020103F208080800000808080000195
:100596000E300806010080800080008080800F30C9
:1005A6000C030C300F00008080008080800000204B
:1005B600312E0E3120008080800000808080808176
:1005C6008E701806010000808080808080000021E7
:1005D600302C2221300000000000807C0202000046
:1005E6000000003F404000000000FF000000000047
:1005F6000000FF0000000002027C800000000040B6
:10060600403F000000000006010102020404000051
:10061600000000000000000C120C00C0701008085A
:100626000808103000000000000000000000000074
:1006360000000000000000000000000F183020201D
:100646002020301C00000000000000000000000018
:060656000000000000009E
:10136A00900087EFF01214147F7812128AE4FF12A9
:0D137A00128A900087E0FF12128A0214050B
:10138700900088EFF01214147F7812128A7F4012AF
:0D139700128A900088E0FF12128A021405ED
:06132A007F10E4FDFCFE53
:10133000900081EEF0A3EFF0ED4C9000816006A3E9
:0C134000E0FF021387A3E0FF12136A22F3
:100B31007FAE12132CE4FDFCFFFE12133012132AB8
:100B4100E4FDFC7F40FE121330E4FDFC7FB0FE1299
:100B51001330E4FDFC7F81FE121330E4FDFC7FFFC6
:100B6100FE121330E4FDFC7FA1FE121330E4FDFC04
:100B71007FA6FE121330E4FDFC7FA8FE121330E4C1
:100B8100FDFC7F3FFE121330E4FDFC7FC8FE121313
:100B910030E4FDFC7FD3FE121330E4FDFCFFFE12B6
:100BA1001330E4FDFC7FD5FE121330E4FDFC7F80A1
:100BB100FE121330E4FDFC7FD8FE121330E4FDFC7D
:100BC1007F05FE121330E4FDFC7FD9FE121330E4E1
:100BD100FDFC7FF1FE121330E4FDFC7FDAFE1213FF
:100BE10030E4FDFC7F12FE121330E4FDFC7FDBFEDE
:100BF100121330E4FDFC7F30FE121330E4FDFC7F64
:100C01008DFE121330E4FDFC7F14FE121330E4FD5F
:070C1100FC7FAFFE0213306F
:1013C000E4FDFC7F8DFE121330E4FDFC7F14FE1261
:0B13D0001330E4FDFC7FAFFE02133081
:10000E00E4FDFC7F8DFE12133012132AE4FDFC7FFB
:05001E00AEFE021330EC
:10113600E4900083F0900083E0FF7E00C39408747F
:101146008094805044EF24B0FFEE33FEE4FDFC12A1
:101156001330E4FDFCFFFE12133012132AE4900054
:1011660084F0900084E0C394807480948050127D53
:10117600017C00E4FFFE121330900084E004F0804E
:0A118600E1900083E004F080AC2249
:1010DB00E4900085F0900085E0FF7E00C3940874D7
:1010EB008094805045EF24B0FFEE33FEE4FDFC12FC
:1010FB001330E4FDFCFFFE12133012132AE49000B0
:10110B0086F0900086E0C394807480948050137DA9
:10111B00017C007F017E00121330900086E004F00A
:0B112B0080E0900085E004F080AB2223
:08121500900073E0FFA3E0FD6F
:10121D00900089EFF0ED24B0FFE433FEE4FDFC1205
:10122D001330900089E054F0C4540F7E004410FF39
:10123D00E4FDFC121330900089E0540FFF7E00E4B2
:05124D00FDFC0213305E
:10088B00900074EDF0900073EFF0FDE4900077F0C2
:10089B00A3F0EB24E0900077F0EDD3947F74809479
:1008AB0080400AE4900073F0A3E02402F0900076FD
:1008BB00E0641060030209B5121215E4900078F0A1
:1008CB00900078E0FFC3940874809480505D200200
:1008DB0023900077E075F010A42FF582E435F0F546
:1008EB0083E582242CF582E5833400F583E493FFC2
:1008FB007E008028900078E0FF900077E075F01084
:10090B00A42FF582E435F0F583E582242CF582E5FE
:10091B00833400F583E493F4FFE4F4FE7D017C0063
:10092B00121330900078E004F08095900073E0FF94
:10093B00A3E004FD12121DE4900078F0900078E023
:10094B00FFC39408748094804003020A262002237C
:10095B00900077E075F010A42FF582E435F0F58365
:10096B00E5822434F582E5833400F583E493FF7E3E
:10097B00008028900078E0FF900077E075F010A4DD
:10098B002FF582E435F0F583E5822434F582E58397
:10099B003400F583E493F4FFE4F4FE7D017C001254
:1009AB001330900078E004F08092121215E490005E
:1009BB0078F0900078E0FFC3940674809480505BCD
:1009CB00200222900077E075F006A42426F582E43D
:1009DB003400F583E5822FF582E43583F583E493C8
:1009EB00FF7E008027900078E0FF900077E075F0A5
:1009FB0006A42426F582E43400F583E5822FF582E4
:100A0B00E43583F583E493F4FFE4F4FE7D017C008D
:0C0A1B00121330900078E004F080972265
:10134C0090008AEFF0A9057F017E00AD0119ED60D8
:0E135C000C90008AE0FD7C00120D3D80EE2218
:100C1800900057EFF0A3EDF0A3EAF0A3EBF0E49017
:100C28000061F090005CE0641090005F7009740847
:100C3800F0A37410F080077406F0A37408F0E49031
:100C4800005DF090005BE0FF90005DE0FEC39F4018
:100C580003020CF6C3EF9E14FD7F0A12134C90009A
:100C680059E0FCA3E0FDCFCDCFCECCCE120D4F7C0A
:100C7800007D0A120D4F90005EEDF0900061E0706B
:100C88003890005BE014FF90005DE0FEC39F5029A0
:100C9800A3E0701FA3E08EF0A4FF900057E02FFFA1
:100CA800A3E0FD900060E0900076F0A20392027B42
:100CB80020802F9000617401F090005DE0FF9000AB
:100CC8005FE08FF0A4FF900057E02FFFA3E0FD90B6
:100CD800005EE02430FB900060E0900076F0A20314
:0F0CE800920212088B90005DE004F0020C4B2288
:100F6700900062EFF0A3EDF0A3EBF0A3EAF0A3E9A2
:100F7700F0E490006AF0900067E0641090006970F8
:100F87000B7408F09000687410F080097406F090F4
:100F970000687408F0900064E0FBA3E0FAA3E0F9AE
:100FA70090006AE0F582758300120D10FB603B909C
:100FB7000062E0FFA3E0FD900068E0900076F0A2F9
:100FC70004920212088B900069E0FF900062E02F04
:100FD700F0C374789FFFE0D39F4007E4F0A3E024B9
:0B0FE70002F090006AE004F080AB22F2
:100A270090007BEBF0900079EFF0A3EDF0E49000FD
:100A37007DF012121DE490007CF090007CE0FFC373
:100A4700941074809480506120052290007BE0759B
:100A5700F040A4241CF582E43406F583E5822FF5E3
:100A670082E43583F583E493FF7E00802790007C42
:100A7700E0FF90007BE075F040A4241CF582E4348D
:100A870006F583E5822FF582E43583F583E493F455
:100A9700FFE4F4FE7D017C0012133090007DE0043A
:100AA700F090007CE004F08091900079E0FFA3E0F3
:100AB70004FD12121DE490007CF090007CE0FFC35F
:100AC700941074809480506120052290007BE0751B
:100AD700F040A4243CF582E43406F583E5822FF543
:100AE70082E43583F583E493FF7E00802790007CC2
:100AF700E0FF90007BE075F040A4243CF582E434ED
:100B070006F583E5822FF582E43583F583E493F4D4
:100B1700FFE4F4FE7D017C0012133090007DE004B9
:0A0B2700F090007CE004F0809122C1
:100E4D0090006BEFF0A3EBF0A3EAF0A3E9F0E4A3BD
:100E5D00F0A3F0900072EDF0900072E0FDC39408E5
:100E6D0074809480506790006BE0FF12121D90000B
:100E7D006BE0900071F0900071E0C39480748094E9
:100E8D0080504290006CE0FBA3E0FAA3E0F9A3E4EC
:100E9D0075F001200610120DA485F082F583120D58
:100EAD0010FF7E008010120DA485F082F583120DC7
:100EBD0010F4FFE4F4FE7D017C00121330900071FC
:0E0ECD00E004F080B1900072E004F0808B220F
:1013F500438901758A67758CFCD28CD2A9D2AF223C
:03000B000211904F
:10119000C0E0C083C082C0D075D000C006C0077553
:1011A0008A67758CFC900000E0601B900042E014A0
:1011B000F0E0FF3395E0FEEF4E700B900000F090F2
:1011C000004304F0C291D007D006D0D0D082D083A3
:0311D000D0E0323A
:100FF20041542B524553544F52450D0A0041542B34
:101002005253540D0A0041542B43574D4F44455FF0
:101012004445463D330D0A0041542B43574A415043
:101022005F4445463D2254502D4C494E4B5F776AF2
:10103200222C22776A3831303034220D0A00415492
:101042002B43495053544152543D22544350222C75
:10105200223139322E3136382E3135302E31222C92
:10106200353030310D0A0041542B43495053454E1F
:06107200443D350D0A00AB
:1011D30012000375A0FFD287C2877BFF7A0F79F2D3
:1011E3001212527BFF7A0F79FF1212527BFF7A1091
:1011F30079081212527BFF7A10791A1212527BFF6E
:101203007A1079401212527BFF7A107969121252C6
:0212130080FE5B
:03000000020EDB12
:0C0EDB00787FE4F6D8FD758120020F221C
:100CF700BB010689828A83E0225002E722BBFE02FB
:090D0700E32289828A83E493222D
:100D1000BB010CE58229F582E5833AF583E0225098
:100D200006E92582F8E622BBFE06E92582F8E222E2
:0D0D3000E58229F582E5833AF583E49322FC
:100D3D00EF8DF0A4A8F0CF8CF0A428CE8DF0A42ECA
:020D4D00FE2284
:100D4F00BC000BBE0029EF8DF084FFADF022E4CC88
:100D5F00F875F008EF2FFFEE33FEEC33FCEE9DEC51
:100D6F00984005FCEE9DFE0FD5F0E9E4CEFD22ED97
:100D7F00F8F5F0EE8420D21CFEADF075F008EF2FE1
:100D8F00FFED33FD4007985006D5F0F222C398FDD2
:050D9F000FD5F0EA226F
:100DA400A3F8E0C5F025F0F0E58215827002158302
:060DB400E0C838F0E8225F
:100EE7000211D3E493A3F8E493A34003F68001F23D
:100EF70008DFF48029E493A3F85407240CC8C3330C
:100F0700C4540F4420C8834004F456800146F6DFDA
:100F1700E4800B01020408102040809013A4E47EB3
:100F2700019360BCA3FF543F30E509541FFEE493CF
:100F3700A360010ECF54C025E060A840B8E493A396
:100F4700FAE493A3F8E493A3C8C582C8CAC583CAC1
:100F5700F0A3C8C582C8CAC583CADFE9DEE780BE79
:0113BF00002D
:00000001FF
