:10065C002B2B2B0041542B524553544F52450D0A12
:10066C000041542B5253540D0A0041542B43574D07
:10067C004F44453D320D0A0041542B43574D4F44D6
:10068C00453D330D0A0041542B4349504D55583DBF
:10069C00310D0A0041542B43494653520D0A004177
:1006AC00542B4349504D4F44453D310D0A004154A4
:1006BC002B43495053454E440D0A0041542B43499A
:1006CC0050434C4F53453D340D0A0041542B435776
:1006DC004A41505F4445463D2254502D4C494E4BA7
:1006EC005F776A222C22776A3831303034220D0A37
:1006FC000041542B43574A41505F4445463D22002C
:10070C0054502D4C494E4B5F776A0000000000009E
:10071C0000000000000000000000000000000000CD
:10072C0000000000000000000000000000000000BD
:10073C0000000000000000000000000000000000AD
:10074C00000000000000000000000000000000009D
:10075C00000000000000000000000000000000008D
:10076C0000000000222C2200776A383731303034F8
:10077C00000000000000000000000000000000006D
:10078C00000000000000000000000000000000005D
:10079C00000000000000000000000000000000004D
:1007AC00000000000000000000000000000000003D
:1007BC00000000000000000000000000000000002D
:1007CC00000000000000000000000000220D0A00E4
:1007DC0041542B43575341503D2272796D6375221E
:1007EC002C2272796D63752E636F6D222C31312C36
:1007FC00330D0A0041542B43495053544152543D3C
:10080C0022544350222C223139322E3136382E309C
:10081C002E313034222C353030310D0A0041542B1E
:10082C004349505345525645523D312C35303030AA
:10083C000D0A0041542B43495053454E443D302C36
:10084C00350D0A0041542B43495053544152543DE9
:10085C00342C22554450222C223235352E3235354B
:10086C002E3235352E323535222C383038302C316D
:0F087C003131322C300D0A00415445300D0A0045
:1013A10052005841542B43574D4F44455F444546E5
:0513B1003D310D0A00B2
:041305007FC47E091A
:10130900D3EF9400EE940040147DD27C00ED1D7063
:0E131900011CED4C70F7EF1F70E61E80E32202
:100DBA007FDC7E051213097FF47E011213097BFF83
:100DCA007A06796012121B7FAC7E0D1213097BFF23
:100DDA007A06798412121B7FAC7E0D1213097BFFEF
:100DEA007A0679FD12121B7BFF7A07790C12121B05
:100DFA007BFF7A07797012121B7BFF7A07797412CC
:100E0A00121B7BFF7A0779D812121B7F707E17128A
:100E1A0013097BFF7A0679A012121B1213057BFFB6
:100E2A007A06799212121B1213057BFF7A087950FF
:100E3A0012121B1213057BFF7A08798412121BE423
:030E4A00FEFF2286
:1013F2004E6562756C612D50692C52594D435521D1
:0114020000E9
:10125300120003120B31121403121141C2B9D2BC92
:1012630075A0FFD287C2877BFF7A1379F290004A79
:101273007410F0C2007D02E4FF120FF8120DBA12CF
:041283000E4D80FB91
:100E4D00E4FF900043E07003020EDDC29290004477
:100E5D00E0F9C36480F8EF6480985042EFFD33955C
:100E6D00E0FC74012DF58274003CF583E0FD3395B3
:100E7D00E0FCC3ED9421EC64809480400BD3ED94A1
:100E8D007AEC648094804013EFFD3395E0FC74019F
:100E9D002DF58274003CF5837420F00F80AFE9FFCF
:100EAD003395E0FE74012FF58274003EF583E4F076
:100EBD001211417B017A00790190004A7410F0C241
:100ECD0000E4FDFF120FF8E4900044F0900043F0B1
:010EDD0022F2
:0613B60041004400C103E8
:1013D80075985075CDFF75CCFD75CBFF75CAFDD2DC
:0A13E800CCD2CDC2C9C2CBD2CA22BA
:080003001213D8D2ACD2AF22D7
:10121B00900045EBF0A3EAF0A3E9F0900045E0FB6A
:10122B00A3E0FAA3E0F9120CF7601C2003FDD20334
:10123B00900045E0FBA3E475F001120DA4A9F0FAB0
:08124B00120CF7F59980D42282
:0300230002108345
:10108300C0E0C083C082C0D075D000C006C00730A6
:10109300983DC2989000007401F09000427405F0EE
:1010A300900044E0FF3395E0FE74012FF582740055
:1010B3003EF583E599F0900044E004F0E0FF3395BA
:1010C300E0FEC3EF9440EE648094804002E4F0308D
:1010D3009904C299C203D007D006D0D0D082D0835E
:0310E300D0E03228
:07142F00D2B6121436D2A15F
:0514360000000000228F
:0D142200C2A112142FC2B6121436C2A122AC
:0F141300C2A1C2B6121431D2B6121436C2A1222F
:101287007E80EE60145F7004C2B68002D2B612147C
:1012970031C2A1EEC313FE80E9D2B6121436D2A131
:0C12A700A2B69202121436C2A1A20222CA
:1012DD00D2B67E80EE601B121436D2A120B605F474
:1012ED005FFF8003EF4EFF121436C2A1EEC313FE53
:0812FD0080E212142FC2A122AD
:1012B300D2B67E80EE601B121436D2A120B605F49E
:1012C3005FFF8003EF4EFF121436C2A1EEC313FE7D
:0A12D30080E2C2B6121431C2A1225B
:1000260000000000000000000000000000000000CA
:10003600000000000000000000F8000000000000C2
:1000460000333000000000100C06100C0600000003
:1000560000000000000040C07840C0784000043F27
:1000660004043F040400007088FC083000000018F7
:1000760020FF211E0000F008F000E018000000211B
:100086001C031E211E0000F00888700000001E21BF
:1000960023241927211010160E000000000000006E
:1000A600000000000000000000E01804020000004C
:1000B60000071820400000020418E000000000407D
:1000C600201807000000404080F0804040000202F7
:1000D600010F01020200000000F000000000010113
:1000E600011F01010100000000000000000080B0B7
:1000F6007000000000000000000000000000000189
:1001060001010101010100000000000000000030B3
:10011600300000000000000000008060180400604D
:1001260018060100000000E010080810E000000FAB
:10013600102020100F00001010F800000000002012
:10014600203F20200000007008080888700000305A
:100156002824222130000030088888483000001802
:10016600202020110E000000C02010F8000000071B
:100176000424243F240000F8088888080800001991
:10018600212020110E0000E0108888180000000FC2
:10019600112020110E0000380808C8380800000099
:1001A600003F000000000070880808887000001CEE
:1001B600222121221C0000E010080810E0000000A7
:1001C600312222110F00000000C0C0000000000014
:1001D6000030300000000000008000000000000039
:1001E6008060000000000000804020100800000130
:1001F60002040810200040404040404040000404F3
:1002060004040404040000081020408000000020BC
:10021600100804020100007048080808F0000000F9
:10022600003036010000C030C828E810E00007188A
:10023600272423140B000000C038E0000000203CF7
:1002460023020227382008F8888888700000203F9B
:10025600202020110E00C0300808080838000718B2
:1002660020202010080008F808080810E000203FA9
:10027600202020100F0008F88888E8081000203F8A
:1002860020202320180008F88888E8081000203F5E
:10029600200003000000C0300808083800000718D6
:1002A6002020221E020008F808000008F808203F57
:1002B600210101213F20000808F80808000000205D
:1002C600203F2020000000000808F8080800C08031
:1002D60080807F00000008F888C028180800203FAA
:1002E60020012638200008F8080000000000203F02
:1002F60020202020300008F8F800F8F80800203FF9
:10030600003F003F200008F830C00008F808203FF2
:10031600200007183F00E01008080810E0000F1042
:10032600202020100F0008F808080808F000203FD9
:10033600210101010000E01008080810E0000F1874
:10034600242438504F0008F8888888887000203F99
:100356002000030C30200070880808083800003898
:10036600202121221C00180808F80808180000009F
:10037600203F2000000008F808000008F808001FC9
:10038600202020201F000878880000C838080000B8
:1003960007380E010000F80800F80008F800033CD2
:1003A6000700073C0300081868808068180820309A
:1003B6002C03032C30200838C800C8380800000079
:1003C600203F2000000010080808C8380800203820
:1003D600262120201800000000FE02020200000074
:1003E600007F40404000000C30C0000000000000CC
:1003F60000010638C00000020202FE0000000040B4
:1004060040407F00000000000402020204000000D9
:1004160000000000000000000000000000008080D6
:1004260080808080808000020204000000000000BE
:10043600000000000000000080808080000000199D
:10044600242222223F2008F8008080000000003F7E
:10045600112020110E000000008080800000000E98
:10046600112020201100000000808088F800000E76
:10047600112020103F200000808080800000001F97
:10048600222222221300008080F08888881800200B
:10049600203F202000000000808080808000006BCC
:1004A60094949493600008F8008080800000203FB8
:1004B600210000203F2000809898000000000020C6
:1004C600203F20200000000000809898000000C017
:1004D6008080807F000008F8000080808000203F38
:1004E60024022D302000000808F80000000000203B
:1004F600203F202000008080808080808000203F78
:1005060020003F20003F8080008080800000203F48
:10051600210000203F200000808080800000001F16
:10052600202020201F00808000808000000080FFA7
:10053600A12020110E000000008080808000000EA7
:10054600112020A0FF8080808000808080002020F5
:100556003F21200001000000808080808000003361
:10056600242424241900008080E0808000000000FC
:10057600001F202000008080000000808000001FF7
:10058600202020103F208080800000808080000195
:100596000E300806010080800080008080800F30C9
:1005A6000C030C300F00008080008080800000204B
:1005B600312E0E3120008080800000808080808176
:1005C6008E701806010000808080808080000021E7
:1005D600302C2221300000000000807C0202000046
:1005E6000000003F404000000000FF000000000047
:1005F6000000FF0000000002027C800000000040B6
:10060600403F000000000006010102020404000051
:10061600000000000000000C120C00C0701008085A
:100626000808103000000000000000000000000074
:1006360000000000000000000000000F183020201D
:100646002020301C00000000000000000000000018
:060656000000000000009E
:10136700900057EFF01214227F78121287E4FF12D1
:0D1377001287900057E0FF12128702141336
:10138400900057EFF01214227F781212877F4012D8
:0D1394001287900057E0FF12128702141319
:061327007F10E4FDFCFE56
:10132D00900055EEF0A3EFF0ED4C9000556006A344
:0C133D00E0FF021384A3E0FF12136722FC
:100B31007FAE121329E4FDFCFFFE12132D121327C1
:100B4100E4FDFC7F40FE12132DE4FDFC7FB0FE129C
:100B5100132DE4FDFC7F81FE12132DE4FDFC7FFFCC
:100B6100FE12132DE4FDFC7FA1FE12132DE4FDFC0A
:100B71007FA6FE12132DE4FDFC7FA8FE12132DE4C7
:100B8100FDFC7F3FFE12132DE4FDFC7FC8FE121316
:100B91002DE4FDFC7FD3FE12132DE4FDFCFFFE12BC
:100BA100132DE4FDFC7FD5FE12132DE4FDFC7F80A7
:100BB100FE12132DE4FDFC7FD8FE12132DE4FDFC83
:100BC1007F05FE12132DE4FDFC7FD9FE12132DE4E7
:100BD100FDFC7FF1FE12132DE4FDFC7FDAFE121302
:100BE1002DE4FDFC7F12FE12132DE4FDFC7FDBFEE4
:100BF10012132DE4FDFC7F30FE12132DE4FDFC7F6A
:100C01008DFE12132DE4FDFC7F14FE12132DE4FD65
:070C1100FC7FAFFE02132D72
:1013BD00E4FDFC7F8DFE12132DE4FDFC7F14FE1267
:0B13CD00132DE4FDFC7FAFFE02132D8A
:10000E00E4FDFC7F8DFE12132D121327E4FDFC7F01
:05001E00AEFE02132DEF
:10114100E4900045F0900045E0FF7E00C3940874F0
:101151008094805044EF24B0FFEE33FEE4FDFC1296
:10116100132DE4FDFCFFFE12132D121327E4900052
:1011710046F0900046E0C394807480948050127DC4
:10118100017C00E4FFFE12132D900046E004F08084
:0A119100E1900045E004F080AC227C
:1010E600E4900082F0900082E0FF7E00C3940874D2
:1010F6008094805045EF24B0FFEE33FEE4FDFC12F1
:10110600132DE4FDFCFFFE12132D121327E49000AD
:1011160083F0900083E0C394807480948050137DA4
:10112600017C007F017E0012132D900083E004F005
:0B11360080E0900082E004F080AB221B
:0811DE0090004EE0FFA3E0FDCC
:1011E600900054EFF0ED24B0FFE433FEE4FDFC1272
:1011F600132D900054E054F0C4540F7E004410FFA9
:10120600E4FDFC12132D900054E0540FFF7E00E421
:05121600FDFC02132D98
:10088B0090004FEDF090004EEFF0FDE4900052F031
:10089B00A3F0EB24E0900052F0EDD3947F7480949E
:1008AB0080400AE490004EF0A3E02402F090005147
:1008BB00E0641060030209B51211DEE4900053F0FE
:1008CB00900053E0FFC3940874809480505D200126
:1008DB0023900052E075F010A42FF582E435F0F56B
:1008EB0083E582242CF582E5833400F583E493FFC2
:1008FB007E008028900053E0FF900052E075F010CE
:10090B00A42FF582E435F0F583E582242CF582E5FE
:10091B00833400F583E493F4FFE4F4FE7D017C0063
:10092B0012132D900053E004F0809590004EE0FFE1
:10093B00A3E004FD1211E6E4900053F0900053E0A5
:10094B00FFC39408748094804003020A262001237D
:10095B00900052E075F010A42FF582E435F0F5838A
:10096B00E5822434F582E5833400F583E493FF7E3E
:10097B00008028900053E0FF900052E075F010A427
:10098B002FF582E435F0F583E5822434F582E58397
:10099B003400F583E493F4FFE4F4FE7D017C001254
:1009AB00132D900053E004F080921211DEE49000BE
:1009BB0053F0900053E0FFC3940674809480505B17
:1009CB00200122900052E075F006A42426F582E463
:1009DB003400F583E5822FF582E43583F583E493C8
:1009EB00FF7E008027900053E0FF900052E075F0EF
:1009FB0006A42426F582E43400F583E5822FF582E4
:100A0B00E43583F583E493F4FFE4F4FE7D017C008D
:0C0A1B0012132D900053E004F08097228D
:10134900900084EFF0A9057F017E00AD0119ED60E1
:0E1359000C900084E0FD7C00120D3D80EE2221
:100C180090006AEFF0A3EDF0A3EAF0A3EBF0E49004
:100C28000074F090006FE06410900072700974080E
:100C3800F0A37410F080077406F0A37408F0E49031
:100C48000070F090006EE0FF900070E0FEC39F40DF
:100C580003020CF6C3EF9E14FD7F0A12134990009D
:100C68006CE0FCA3E0FDCFCDCFCECCCE120D4F7CF7
:100C7800007D0A120D4F900071EDF0900074E07045
:100C88003890006EE014FF900070E0FEC39F50297A
:100C9800A3E0701FA3E08EF0A4FF90006AE02FFF8E
:100CA800A3E0FD900073E0900051F0A20492017B54
:100CB80020802F9000747401F0900070E0FF900085
:100CC80072E08FF0A4FF90006AE02FFFA3E0FD9090
:100CD8000071E02430FB900073E0900051F0A20412
:0F0CE800920112088B900070E004F0020C4B2276
:100FF800900045EFF0A3EDF0A3EBF0A3EAF0A3E92E
:10100800F0E490004DF090004AE0641090004C70BD
:101018000B7408F090004B7410F080097406F0907F
:10102800004B7408F0900047E0FBA3E0FAA3E0F956
:1010380090004DE0F582758300120D10FB603B9027
:101048000045E0FFA3E0FD90004BE0900051F0A2C6
:1010580000920112088B90004CE0FF900045E02FB1
:10106800F0C374789FFFE0D39F4007E4F0A3E02427
:0B10780002F090004DE004F080AB227D
:100A270090007FEBF090007DEFF0A3EDF0E49000F5
:100A370081F01211E6E4900080F0900080E0FFC39F
:100A4700941074809480506120052290007FE07597
:100A5700F040A4241CF582E43406F583E5822FF5E3
:100A670082E43583F583E493FF7E0080279000803E
:100A7700E0FF90007FE075F040A4241CF582E43489
:100A870006F583E5822FF582E43583F583E493F455
:100A9700FFE4F4FE7D017C0012132D900081E00439
:100AA700F0900080E004F0809190007DE0FFA3E0EB
:100AB70004FD1211E6E4900080F0900080E0FFC38F
:100AC700941074809480506120052290007FE07517
:100AD700F040A4243CF582E43406F583E5822FF543
:100AE70082E43583F583E493FF7E008027900080BE
:100AF700E0FF90007FE075F040A4243CF582E434E9
:100B070006F583E5822FF582E43583F583E493F4D4
:100B1700FFE4F4FE7D017C0012132D900081E004B8
:0A0B2700F0900080E004F0809122BD
:100EDE00900075EFF0A3EBF0A3EAF0A3E9F0E4A322
:100EEE00F0A3F090007CEDF090007CE0FDC3940840
:100EFE00748094805067900075E0FF1211E69000A8
:100F0E0075E090007BF090007BE0C3948074809439
:100F1E00805042900076E0FBA3E0FAA3E0F9A3E450
:100F2E0075F001200610120DA485F082F583120DC6
:100F3E0010FF7E008010120DA485F082F583120D35
:100F4E0010F4FFE4F4FE7D017C0012132D90007B63
:0E0F5E00E004F080B190007CE004F0808B2273
:10140300438901758A67758CFCD28CD2A9D2AF222D
:03000B0002119B44
:10119B00C0E0C083C082C0D075D000C006C0077548
:1011AB008A67758CFC900000E0601B900042E01495
:1011BB00F0E0FF3395E0FEEF4E700B900000F090E7
:1011CB00004304F0C291D007D006D0D0D082D08398
:0311DB00D0E0322F
:03000000020F6C80
:0C0F6C00787FE4F6D8FD758120020FB3F9
:100CF700BB010689828A83E0225002E722BBFE02FB
:090D0700E32289828A83E493222D
:100D1000BB010CE58229F582E5833AF583E0225098
:100D200006E92582F8E622BBFE06E92582F8E222E2
:0D0D3000E58229F582E5833AF583E49322FC
:100D3D00EF8DF0A4A8F0CF8CF0A428CE8DF0A42ECA
:020D4D00FE2284
:100D4F00BC000BBE0029EF8DF084FFADF022E4CC88
:100D5F00F875F008EF2FFFEE33FEEC33FCEE9DEC51
:100D6F00984005FCEE9DFE0FD5F0E9E4CEFD22ED97
:100D7F00F8F5F0EE8420D21CFEADF075F008EF2FE1
:100D8F00FFED33FD4007985006D5F0F222C398FDD2
:050D9F000FD5F0EA226F
:100DA400A3F8E0C5F025F0F0E58215827002158302
:060DB400E0C838F0E8225F
:100F7800021253E493A3F8E493A34003F68001F22A
:100F880008DFF48029E493A3F85407240CC8C3337A
:100F9800C4540F4420C8834004F456800146F6DF49
:100FA800E4800B01020408102040809013A1E47E25
:100FB800019360BCA3FF543F30E509541FFEE4933E
:100FC800A360010ECF54C025E060A840B8E493A305
:100FD800FAE493A3F8E493A3C8C582C8CAC583CA30
:100FE800F0A3C8C582C8CAC583CADFE9DEE780BEE8
:0113BC000030
:00000001FF
