:100121003F065B4F666D7D077F6FEE3E9C7A9E8E2C
:06013100000001020408B9
:08013700020A000002080000AA
:10010800758901758A67758CFC75A006D286C286CA
:0901180075A0FED287C28780F0B9
:03000B0002009A56
:10009A00C0E0C083C082C0D0758A67758CFC050B2E
:1000AA00E50B7002050AC394F4E50A94014046750B
:1000BA000A00750B000509E509700205082421F5F7
:1000CA008274013508F583E493F5A0D286C286745A
:1000DA00322509F58274013508F583E493F4F5A015
:1000EA00D287C287C3E5099404E5089400400675DF
:0E00FA000800750900D0D0D082D083D0E0324B
:0300000002000EED
:0C000E00787FE4F6D8FD75810B020055E8
:10001A00020108E493A3F8E493A34003F68001F2F3
:10002A0008DFF48029E493A3F85407240CC8C333E7
:10003A00C4540F4420C8834004F456800146F6DFB6
:10004A00E4800B0102040810204080900137E47E0E
:10005A00019360BCA3FF543F30E509541FFEE493AB
:10006A00A360010ECF54C025E060A840B8E493A372
:10007A00FAE493A3F8E493A3C8C582C8CAC583CA9D
:10008A00F0A3C8C582C8CAC583CADFE9DEE780BE55
:01013F0000BF
:00000001FF
