:0603E2008B0A8A0B890C56
:1003E800EF1475F040A4FFED142F2480FF12046A67
:1003F800AB0AAA0BA90C1203906013050CE50C704C
:0E04080002050B14F9120390FF12047B80E230
:0104160022C3
:100443007F3812046A7F0C12046A7F0612046A7FE3
:040453000102046A34
:0B00030075A0FF12048CEF20E7F9222B
:0A048C00C2B6D2B5D2B4AFA0C2B41C
:010496002243
:10046A008F0D120003C2B6C2B5850DA0D2B4C2B4B4
:01047A00225F
:10047B008F0D120003D2B6C2B5850DA0D2B4C2B493
:01048B00224E
:02049700C100A2
:10045700D2B35389F0438901C28CC2A9D28AD2AAE6
:03046700D2AF22EF
:060417008E088F09D201DE
:10041D00E4F58CF58AD28CA2B3300101B34006E528
:10042D008C943E40F2C28CAF8CEFFEAD8A7C00E422
:06043D002DFFEC3EFE2243
:030013000201B334
:1001B300C0E0C083C082C0D075D000C000C002C000
:0901C30003C004C005C006C0071A
:1001CC00C20112041D120417AB07AA06C3E5099459
:1001DC0040E508941F401DD3E5099410E5089427C9
:1001EC005012C3EB94ACEA940D4009D3EB9488EA1B
:1001FC0094134005C289020281900000C2011204CE
:10020C001D120417AA06AB07C3E509942CE5089444
:10021C0001401DD3E50994BCE50894025012C3EBD0
:10022C00942CEA94014009D3EB9408EA9407400417
:10023C00C2898041AF11AE10AD0FAC0E7801120324
:10024C00A98F118E108D0F8C0ED3EB9414EA94059C
:10025C004012E511F511E510F510E50FF50FE50E5F
:10026C004480F50EA3E58264204583708FD200C2D2
:05027C0091D291C2893E
:10028100D007D006D005D004D003D002D000D0D002
:07029100D082D083D0E032DF
:10032400526F6E675969204D696E692D3531004BE6
:1003340045593A0043482D0043480043482B005098
:10034400524556004E45585400504C41592F504187
:10035400555345002D002B004551003000313030FD
:100364002B003230302B00310032003300340035A2
:100374000036003700380039006572726F72210050
:0C0384002020202020202020202020000D
:05049900031200000049
:10001600120443438910758B0C758D22D2ABD2AF77
:100026007BFF7A0379247D027F011203E27BFF7A4C
:100036000379337D017F021203E21204573000FD7B
:10004600C200AF11AE10AD0FAC0E78101203A9EFBF
:100056001203BC00E407014B0800FC09012A0C014D
:100066001F0D00F015010816013518011419015667
:100076001C00CC40016C4200D84300C044009C45A3
:1000860000A84600B44701824A01775201615A012D
:10009600405E0000018D7512FF751303751438025A
:1000A60001967512FF75130375143C0201967512BD
:1000B600FF75130375143F0201967512FF7513033E
:1000C6007514430201967512FF75130375144802E1
:1000D60001967512FF75130375144D02019675127C
:1000E600FF7513037514580201967512FF751303F5
:1000F60075145A0201967512FF75130375145C0286
:1001060001967512FF75130375145F020196751239
:10011600FF75130375146180777512FF75130375E8
:100126001466806C7512FF75130375146B80617508
:1001360012FF75130375146D80567512FF75130340
:1001460075146F804B7512FF75130375147180401B
:100156007512FF75130375147380357512FF7513C9
:1001660003751475802A7512FF751303751477804D
:100176001F7512FF75130375147980147512FF75B8
:10018600130375147B80097512FF75130375147DAF
:100196007BFF7A0379847D057F021203E2AB12AA04
:0D01A60013A9147D057F021203E20200433D
:0300000002029861
:0C029800787FE4F6D8FD7581200202DFBB
:10039000BB010689828A83E0225002E722BBFE026B
:0903A000E32289828A83E493229E
:1003A900E8600FECC313FCED13FDEE13FEEF13FF32
:0303B900D8F12256
:1003BC00D083D082F8E4937012740193700DA3A3D0
:1003CC0093F8740193F5828883E4737402936860E4
:0603DC00EFA3A3A380DFE4
:1002A400020016E493A3F8E493A34003F68001F25A
:1002B40008DFF48029E493A3F85407240CC8C3335B
:1002C400C4540F4420C8834004F456800146F6DF2A
:1002D400E4800B0102040810204080900497E47E1F
:1002E400019360BCA3FF543F30E509541FFEE4931F
:1002F400A360010ECF54C025E060A840B8E493A3E6
:10030400FAE493A3F8E493A3C8C582C8CAC583CA10
:10031400F0A3C8C582C8CAC583CADFE9DEE780BEC8
:01049E00005D
:00000001FF
