:08000300DFCFEF5F7F3FBF9FDD
:0300E10001080013
:1000C900E4F5A0D286C286758901758ACD758CF84A
:0800D900D28CD2A9D2AF80FE47
:03000B0002009A56
:08009A00C0E0C083C082C0D0A9
:1000A200758ACD758CF8E50890000393F5A00508D4
:0E00B200C3E50894087480948040037508002C
:0900C000D0D0D082D083D0E03210
:0300000002000EED
:0C000E00787FE4F6D8FD758108020055EB
:10001A000200C9E493A3F8E493A34003F68001F233
:10002A0008DFF48029E493A3F85407240CC8C333E7
:10003A00C4540F4420C8834004F456800146F6DFB6
:10004A00E4800B01020408102040809000E1E47E65
:10005A00019360BCA3FF543F30E509541FFEE493AB
:10006A00A360010ECF54C025E060A840B8E493A372
:10007A00FAE493A3F8E493A3C8C582C8CAC583CA9D
:10008A00F0A3C8C582C8CAC583CADFE9DEE780BE55
:0100E400001B
:00000001FF
