:08000300DFCFEF5F7F3FBF9FDD
:0F0283000409000000B4040D0000000001080091
:10024900E4F5A0D286C286FF7E10FDFCAB0CAA0B9A
:10025900A90AA80912000EE47B687A01F9F81200CC
:10026900998F108E0F8D0E8C0D758901758ACD753C
:0A0279008CF8D28CD2A9D2AF80FE1F
:03000B000201C827
:1001C800C0E0C0F0C083C082C0D075D000C000C0FD
:0D01D80001C002C003C004C005C006C0077E
:1001E500758ACD758CF8E4FFFEFDFCAB10AA0FA94E
:1001F5000EA80DC312012B6030E50890000393F59E
:10020500A00508C3E5089408748094804003750828
:1002150000E51024FFF510E50F34FFF50FE50E346A
:09022500FFF50EE50D34FFF50DA7
:10022E00D007D006D005D004D003D002D001D00024
:0B023E00D0D0D082D083D0F0D0E032CE
:0300000002013CBE
:0C013C00787FE4F6D8FD75811002018385
:10000E00E88FF0A4CC8BF0A42CFCE98EF0A42CFC91
:10001E008AF0EDA42CFCEA8EF0A4CDA8F08BF0A40F
:10002E002DCC3825F0FDE98FF0A42CCD35F0FCEB6E
:10003E008EF0A4FEA9F0EB8FF0A4CFC5F02ECD3933
:0F004E00FEE43CFCEAA42DCE35F0FDE43CFC22A0
:10005D0075F008758200EF2FFFEE33FECD33CDCC5A
:10006D0033CCC58233C5829BED9AEC99E5829840DD
:10007D000CF582EE9BFEED9AFDEC99FC0FD5F0D6BA
:10008D00E4CEFBE4CDFAE4CCF9A88222B800C1B9E4
:10009D000059BA002DEC8BF084CFCECDFCE5F0CB22
:1000AD00F97818EF2FFFEE33FEED33FDEC33FCEB5B
:1000BD0033FB10D703994004EB99FB0FD8E5E4F916
:1000CD00FA227818EF2FFFEE33FEED33FDEC33FC03
:1000DD00C933C910D7059BE99A4007EC9BFCE99AF7
:1000ED00F90FD8E0E4C9FAE4CCFB2275F010EF2F3C
:1000FD00FFEE33FEED33FDCC33CCC833C810D7073C
:10010D009BEC9AE899400AED9BFDEC9AFCE899F876
:0E011D000FD5F0DAE4CDFBE4CCFAE4C8F92209
:10012B00EB9FF5F0EA9E42F0E99D42F0E89C45F02A
:01013B0022A1
:10014800020249E493A3F8E493A34003F68001F282
:1001580008DFF48029E493A3F85407240CC8C333B8
:10016800C4540F4420C8834004F456800146F6DF87
:10017800E4800B0102040810204080900283E47E92
:10018800019360BCA3FF543F30E509541FFEE4937C
:10019800A360010ECF54C025E060A840B8E493A343
:1001A800FAE493A3F8E493A3C8C582C8CAC583CA6E
:1001B800F0A3C8C582C8CAC583CADFE9DEE780BE26
:01029200006B
:00000001FF
