:0300000002143FA8
:0C143F00787FE4F6D8FD75813902148630
:041BBF0043002E00B1
:0A1BA400011914010E0002160000E2
:031BC300DFFE2220
:041A94007F017E0050
:101A9800EF4E6015E4FDFC0DBD00010CED64794CC2
:091AA80070F5EF1F70EA1E80E7E3
:011AB1002212
:101B3300D2B77F01121BC3C2B77FFA121BC3D2B73E
:051B43007F64021BC3DA
:1019C400E4FD7E08EED3940074809480401BC2B77B
:1019D40000ED13FDD2B77F01121BC330B7034305DB
:0B19E400807F0A121BC31E80DBAF05D2
:0119EF0022D5
:021A4800AE07E7
:101A4A007D08EDD3940074809480401AC2B700EEEA
:101A5A001392B77F0A121BC3D2B7EEC313FE7F01DC
:061A6A00121BC31D80DC0D
:011A70002253
:1016CD00E4FCFF121B337FCC121A487F44121A48D8
:1016DD00121B337FCC121A487FBE121A481219C43E
:1016ED00AC071219C47514008F15E515751500F5A5
:1016FD0014AF04EF4215E4AC14AD15120E5EE4FB0D
:10170D00FA7980783D120D538F1D8E1C8D1B8C1A0E
:10171D00E4FFFE7D207C41AB1DAA1CA91BA81A125B
:10172D000D53E4FBFAF9783F120C62120E978E14EA
:02173D008F1506
:01173F002287
:1017DE001216CD8E168F177C037DE8120F577E00E2
:1017EE007F64CFCDCFCECCCE120F578E088F09AEE1
:1017FE0016AF177C007D64120F577E007F0ACFCD87
:10180E00CFCECCCE120F578E0A8F0BAE16AF177CE3
:0B181E00007D0A120F578C0C8D0D226C
:06182900C283C285D285D6
:10182F00EFA2E09284D283C283A2E19284D283C2D8
:10183F0083A2E29284D283C283A2E39284D283C230
:10184F0083A2E49284D283C283A2E59284D283C21C
:10185F0083A2E69284D283C283A2E79284D283C208
:02186F008322D2
:10187100D284A28492E0D283C283A28492E1D283F1
:10188100C283A28492E2D283C283A28492E3D283EE
:10189100C283A28492E4D283C283A28492E5D283DA
:1018A100C283A28492E6D283C283A28492E7D283C6
:0418B100C283FF22CD
:031B480025F0FD88
:0F1B4B00AE05121829AF0612182FC285D28322B9
:0C1B9700E4FE121829121871C285D283D6
:011BA300221F
:101740007F81121B97E51064807006FD7F8E121B4F
:101750004B7D137F8C121B4B7D037F8A121B4B7DAD
:10176000107F88121B4B7D147F86121B4B7D217FBF
:1017700084121B4B7D567F82121B4BE4FD7F80122F
:101780001B4B7DA57F90121B4B7D807F8E021B4BD8
:101308007F81121B978F10E510C4540F75F00AA443
:10131800FFE510540F2FF510121A947F83121B97B4
:101328008F13E513C4540F75F00AA4FFE513540F87
:101338002FF513121A947F85121B978F12E512C48A
:10134800540F75F00AA4FFE512540F2FF512121A64
:10135800947F87121B978F11E511C4540F75F00AFB
:10136800A4FFE511540F2FF511121A947F89121B4F
:10137800978F0FE50FC4540F75F00AA4FFE50F54BB
:101388000F2FF50F121A94121A947F8D121B978F34
:1013980018E518C4540F75F00AA4FFE518540F2F68
:0313A800F5182213
:101A7100D2902090077F0A7E00121A9820901005BC
:101A81000ED3E50E9405748094804003E4F50E3086
:031A910090FD22A3
:1015D500D2912091787F0A7E00121A9820916BE5AE
:1015E5000E24FE601F14602E14603D14604C24040C
:1015F50070580518D3E518946374809480404BE4C3
:10160500F5188046050FD3E50F940C74809480403F
:1016150039750F0180340511D3E511941F74809439
:1016250080402775110180220512C3E512941874B4
:101635008094804015E4F51280100513C3E51394DA
:0E1645003C748094804003E4F5133091FD2244
:1014CB00D2923092030215507F0A7E00121A982096
:1014DB009270E50E24FE602014603014604014609E
:1014EB00502404705DAF181518D3EF9400748094DA
:1014FB0080504F751863804AAF0F150FD3EF9401CF
:10150B0074809480503C750F0C8037AF111511D33C
:10151B00EF940174809480502975111F8024AF12B1
:10152B001512D3EF940074809480501675121780A7
:10153B0011AF131513D3EF9400748094805003757F
:06154B00133B3092FD226B
:1013AB00D3E50E940074809480500302143EE4FD48
:1013BB007F8E121B4BE51875F00A84C454F0FFE5C1
:1013CB001875F00A84EF7F8C121B48E50F75F00A35
:1013DB0084C454F0FFE50F75F00A84EF7F88121B6D
:1013EB0048E51175F00A84C454F0FFE51175F00A55
:1013FB0084EF25F0FD7F86121B4BE51275F00A84F6
:10140B00C454F0FFE51275F00A84EF25F0FD7F84DC
:10141B00121B4BE51375F00A84C454F0FFE51375EA
:10142B00F00A84EF25F0FD7F82121B4B7D807F8EAF
:04143B00121B4B2213
:100FBA0012114D121961121B331216CD7F0A7E00CF
:100FCA00121A981217401217DEE4FBFDFF12155190
:100FDA007B01E4FD7F121215517B02E4FD7F24128E
:100FEA0015517B03E4FD7F361215517B04E4FD7F26
:100FFA00481215517B05E4FD7F5A1215517B06E410
:10100A00FD7F6C1215517B077D02E4FF1215517B9F
:10101A00087D027F121215517B097D027F24121569
:10102A00517B0A7D027F361215517B0B7D047F248A
:10103A001215517B0C7D047F4A1215517B0D7D04DC
:10104A007F6E1215511213087B0E7D067F1C121536
:10105A00517B0F7D067F421215517B107D067F66FC
:10106A001215517BFF7A1B79BF7523107D027F7899
:10107A001218B5752201752310AB09AA087D027FE3
:10108A0054121653752201752310AB0BAA0A7D025E
:10109A007F5C1216537BFF7A1B79C17523107D0280
:1010AA007F641218B5752201752310AB0DAA0C7D49
:1010BA00027F6C121653E519FB7A0075220275231A
:1010CA00107D04E4FF121653E518FB7A007522021C
:1010DA007523107D047F12121653E50FFB7A0075F3
:1010EA0022027523107D047F36121653E511FB7A0E
:1010FA00007522027523107D047F5B121653E512D8
:10110A00FB7A007522027523107D067F0A12165398
:10111A00E513FB7A007522027523107D067F2E12D5
:10112A001653E510FB7A007522027523107D067F9F
:10113A0054121653121A711215D51214CB1213AB7C
:03114A00020FD0C1
:100003000000000000000000002F000000000700B7
:10001300070000147F147F1400242A7F2A12006231
:1000230064081323003649552250000005030000DD
:1000330000001C224100000041221C000014083E65
:1000430008140008083E0808000000A0600000082B
:10005300080808080000606000000020100804027F
:10006300003E5149453E0000427F4000004261513D
:100073004946002141454B31001814127F100027D7
:1000830045454539003C4A4949300001710905039A
:1000930000364949493600064949291E00003636CB
:1000A300000000005636000000081422410000142E
:1000B300141414140000412214080002015109060B
:1000C30000324959513E007C1211127C007F49498C
:1000D3004936003E41414122007F4141221C007FBD
:1000E30049494941007F09090901003E4149497ACB
:1000F300007F0808087F0000417F41000020404145
:100103003F01007F08142241007F40404040007FB0
:10011300020C027F007F0408107F003E4141413EF4
:10012300007F09090906003E4151215E007F09193C
:1001330029460046494949310001017F0101003F39
:100143004040403F001F2040201F003F4038403FB9
:10015300006314081463000708700807006151491D
:10016300454300007F41410000552A552A550000B0
:1001730041417F000004020102040040404040402E
:10018300000001020400002054545478007F4844C6
:10019300443800384444442000384444487F0038FD
:1001A3005454541800087E0901020018A4A4A47C26
:1001B300007F080404780000447D400000408084F0
:1001C3007D00007F102844000000417F4000007C38
:1001D30004180478007C0804047800384444443844
:1001E30000FC242424180018242418FC007C080490
:1001F300040800485454542000043F444020003C69
:100203004040207C001C2040201C003C4030403CEF
:10021300004428102844001CA0A0A07C004464547F
:100223004C441414141414140000000000000000C3
:100233000000000000000000000000F800000000C3
:10024300000000333000000000100C06100C060004
:10025300000000000000000040C07840C07840006B
:10026300043F04043F040400007088FC08300000CD
:10027300001820FF211E0000F008F000E018000025
:1002830000211C031E211E0000F0088870000000DE
:100293001E2123241927211010160E000000000030
:1002A3000000000000000000000000E0180402004D
:1002B300000000071820400000020418E0000000BE
:1002C3000040201807000000404080F080404000BC
:1002D3000202010F01020200000000F00000000012
:1002E3000101011F010101000000000000000000E6
:1002F30080B070000000000000000000000000005B
:1003030000010101010101010000000000000000E3
:10031300003030000000000000000000806018047E
:10032300006018060100000000E010080810E0005B
:10033300000F102020100F00001010F80000000024
:100343000020203F2020000000700808088870006B
:1003530000302824222130000030088888483000EB
:100363000018202020110E000000C02010F800000B
:1003730000070424243F240000F8088888080800A4
:100383000019212020110E0000E0108888180000B9
:10039300000F112020110E0000380808C83808008B
:1003A3000000003F0000000000708808088870000B
:1003B300001C222121221C0000E010080810E0008C
:1003C3000000312222110F00000000C0C000000015
:1003D300000000303000000000000080000000003A
:1003E3000000806000000000000080402010080032
:1003F30000010204081020004040404040404000FB
:1004030004040404040404000008102040800000D5
:100413000020100804020100007048080808F000DA
:100423000000003036010000C030C828E810E000AA
:100433000718272423140B000000C038E000000035
:10044300203C23020227382008F88888887000009F
:10045300203F202020110E00C03008080808380073
:10046300071820202010080008F808080810E000EA
:10047300203F202020100F0008F88888E80810008B
:10048300203F20202320180008F88888E80810005F
:10049300203F200003000000C03008080838000097
:1004A30007182020221E020008F808000008F80898
:1004B300203F210101213F20000808F8080800001F
:1004C3000020203F2020000000000808F808080052
:1004D300C08080807F00000008F888C028180800CA
:1004E300203F20012638200008F808000000000003
:1004F300203F20202020300008F8F800F8F80800FA
:10050300203F003F003F200008F830C00008F808F3
:10051300203F200007183F00E01008080810E00003
:100523000F10202020100F0008F808080808F0001A
:10053300203F210101010000E01008080810E0003D
:100543000F18242438504F0008F8888888887000D2
:10055300203F2000030C3020007088080808380072
:100563000038202121221C00180808F80808180068
:100573000000203F2000000008F808000008F808E9
:10058300001F202020201F000878880000C838089A
:10059300000007380E010000F80800F80008F80012
:1005A300033C0700073C03000818688080681808AC
:1005B30020302C03032C30200838C800C83808002A
:1005C3000000203F2000000010080808C838080079
:1005D3002038262120201800000000FE020202001D
:1005E3000000007F40404000000C30C000000000CD
:1005F300000000010638C00000020202FE000000F5
:10060300004040407F00000000000402020204009A
:1006130000000000000000000000000000000000D7
:1006230080808080808080800002020400000000BF
:1006330000000000000000000000808080800000B7
:100643000019242222223F2008F8008080000000A5
:10065300003F112020110E00000000808080000068
:10066300000E112020201100000000808088F80077
:10067300000E112020103F200000808080800000A9
:10068300001F222222221300008080F0888888180D
:100693000020203F20200000000080808080800018
:1006A300006B94949493600008F8008080800000AD
:1006B300203F210000203F20008098980000000088
:1006C3000020203F202000000000008098980000B8
:1006D30000C08080807F000008F8000080808000D8
:1006E300203F24022D302000000808F800000000FD
:1006F3000020203F202000008080808080808000B8
:10070300203F20003F20003F808000808080000049
:10071300203F210000203F200000808080800000D7
:10072300001F202020201F00808000808000000008
:1007330080FFA12020110E00000000808080800037
:10074300000E112020A0FF80808080008080800028
:1007530020203F2120000100000080808080800055
:100763000033242424241900008080E080800000CA
:100773000000001F20200000808000000080800017
:10078300001F202020103F20808080000080808078
:1007930000010E3008060100808000800080808008
:1007A3000F300C030C300F0000808000808080002D
:1007B3000020312E0E312000808080000080808058
:1007C30080818E7018060100008080808080800008
:1007D3000021302C2221300000000000807C020226
:1007E30000000000003F404000000000FF00000048
:1007F30000000000FF0000000002027C80000000F7
:100803000040403F00000000000601010202040412
:10081300000000000000000088C8B88FE888882026
:100823001C0BE80808180800000000000000000086
:10083300000000000000000008080808FF048460AE
:100843001806010618E04000000000000000000048
:1008530000000000000000004020F80F82601E141A
:1008630010FF101010100000000000000000000036
:1008730000000000000000000000FF000101010172
:1008830001FF010101010100000000000000000060
:1008930000000000000000004041CE04008040BE84
:1008A300828282BEC04040000000000000000000C1
:1008B300000000000000000000007F209080404303
:1008C3002C10102C43C0400000000000000000006A
:1008D300000000000000000020212EE40000202082
:1008E3002020FF2020202000000000000000000046
:1008F30000000000000000000000007F201008003E
:100903000000FF00000000000000000000000000E5
:1009130000000000000000000000FC84848484FCCC
:1009230084848484FC0000000000000000000000B8
:10093300000000000000000000007F101010101FD6
:10094300101010107F0000000000000000000000E5
:1009530000000000000000001010FF101000F98AD2
:10096300AEC8F8CCAB8AF80000000000000000001D
:10097300000000000000000008180F04040000FE3F
:100983004A4A4A4A4AFE00000000000000000000F4
:100993000000000000000000000000FC9494959605
:1009A3009494FC0000000000000000000000000020
:1009B3000000000000000000000040FF402003048E
:1009C3000814222340C04000000000000000000083
:1009D300000000000000000000100C044CB494055B
:1009E300F6040404140C04000000000000000000DE
:1009F3000000000000000000008282424223120A2D
:100A0300070A12E242020200000000000000000098
:100A130000000000000000000831866000FE02F2C2
:100A230002FE00F80000FF000000000000000000CC
:100A3300000000000000000004FC03008047300FAA
:100A43001067000740807F000000000000000000E6
:100A5300000000000000000010218670007E4A4A5A
:100A63004A4A4A7E00000000000000000000000027
:100A7300000000000000000002FE01407F41417FB2
:100A830041417F41417F4000000000000000000021
:100A930000000000000000000000FC042424FCA56A
:100AA300A6A4FC242424040000000000000000008D
:100AB300000000000000000080601F808042462A82
:100AC30012122A2642C0400000000000000000006D
:100AD30000000000000000004020100CE32222224E
:100AE300FE2222222202000000000000000000007B
:100AF30000000000000000000404040407040404D0
:100B0300FF040404040404000000000000000000CB
:100B130000000000000000000000000000FF1111B1
:100B2300111111FF00000000000000000000000090
:100B33000000000000000000004020100C03010131
:100B43000121413F00000000000000000000000000
:100B53000000000000000000000000FE424242428C
:100B6300424242FE000000000000000000000000BE
:100B730000000000000000000000003F10101010F3
:100B83001010103F000000000000000000000000F3
:100B9300000000000000000000FC444444FC1090EE
:100BA300101010FF101010000000000000000000E3
:100BB3000000000000000000000704040407000018
:100BC3000340807F000000000000000000000000E0
:100BD3000000000000000000804020988782808091
:100BE3008384983060C040000000000000000000D3
:100BF300000000000000000000804020100F0000F3
:100C030020403F0000000000000000000000000042
:100C130000000000000000001212D2FE9111C03843
:100C23001000FF000810600000000000000000003A
:100C33000000000000000000040300FF0083804068
:100C430040202310080403000000000000000000FF
:080C5300000000000000000099
:101AD000EF4E60157D087C07ED1DAA0470011C4ABD
:091AE00070F6EF1F70EA1E80E7AA
:011AE90022DA
:091BAF00D2A1D2B6C2B6C2A12235
:071BB800D2A1C2B6D2B62291
:0B1B6B0012199A121B76AF0412199A8F
:051B7600D2A1C2A12272
:07199300AC07121BAF7F78C7
:10199A00C2A1E4FEEEC3940874809480501BAD0784
:1019AA00530580ED64807004D2B68002C2B6EF257A
:0919BA00E0FFD2A1C2A10E80DB06
:0119C3002201
:0E1B7B00121993121B76E4FF121B6B021BB8AB
:0E1B8900121993121B767F40121B6B021BB8C1
:1019F000EF24B0FFEE33FEE4FDFC121A0BE4FDFC15
:0B1A0000FFFE121A0B7F10E4FDFCFE3D
:101A0B00AB07AA06ED4C6003021B89AF03121B7BCD
:011A1B0022A8
:0218F9008F3727
:1018FB00E4F9E9FF7E00C3940874809480502312AE
:10190B0019F0E4F538C3E538948074809480500F57
:10191B00AF377E007D017C00121A0B053880E6097B
:02192B0080D06A
:01192D002297
:101AB200D3EF9400EE940040147D657C18ED1D7008
:0D1AC200011CED4C70F7EF1F70E61E80E375
:011ACF0022F4
:101AEA00EF1FAA0670011E4A600FE4FDEDC3947B46
:091AFA007480948050EA0D80F321
:011B030022BF
:101A1C00A907ED24B0FFE433FEE4FDFC121A0BE938
:101A2C0054F0C4540F7E004410FFE4FDFC121A0B5A
:0C1A3C00E9540FFF7E00E4FDFC021A0BD1
:101B1C007F8D121A07E4FDFC7F14FE121A0BE4FDF4
:071B2C00FC7FAFFE021A0B63
:101B5A00E4FDFC7F8D121A01E4FDFC7FAEFE021A41
:011B6A000B6F
:10196100E4F9E9FF7E00C394087480948050221248
:1019710019F0E4F51EC3E51E948074809480500E26
:101981007D017C00E4FFFE121A0B051E80E7098031
:01199100D184
:011992002232
:10192E00E4F9E9FF7E00C39408748094805023127A
:10193E0019F0E4F539C3E539948074809480500F22
:10194E007D017C007F017E00121A0B053980E609AD
:02195E0080D037
:011960002264
:04122D008F278D2852
:10123100E4F52BF9EB24E0F52BD3EF947F74809444
:10124100804007E4F52705280528E52A6410707A0F
:10125100AD28AF27121A1CE4F9E9C39408748094ED
:1012610080502975F010E52BA429F582E435F0F5BD
:1012710083E582242BF582E5833402F583E493FF31
:101281007E007D017C00121A0B0980CDE52804FD4A
:10129100AF27121A1CE4F9E9C394087480948050B2
:1012A1006575F010E52BA429F582E435F0F583E5A9
:1012B100822433F582E5833402F583E493FF7E00D3
:1012C1007D017C00121A0B0980CDAD28AF27121ABF
:1012D1001CE4F9E9C3940674809480502975F006E2
:1012E100E52BA42403F582E5F03400F583E582299A
:1012F100F582E43583F583E493FF7E007D017C0074
:06130100121A0B0980CD59
:0113070022C3
:041B04008F27A90579
:101B08007F017E00AD0119ED6009AD277C00120F41
:031B18004580F114
:011B1B0022A7
:081653008F1E8D1F8A208B21E0
:10165B00E4F526F524E524C395225065C3E52295D0
:10166B002414FD7F0A121B04AC20AD21CFCDCFCEAD
:10167B00CCCE120F577C007D0A120F578D25E52615
:10168B007023E52214FFE524C39F5019E525701242
:10169B00E523C3138524F0A4251EFF85232A7B2075
:1016AB008016752601E523C3138524F0A4251EFFA0
:1016BB00E5252430FB85232AAD1F12122D0524802E
:0116CB00948A
:0116CC0022FB
:0A18B5008F1E8D1F8B208A218922CF
:1018BF00E4F524AB20AA21A9228524827583001286
:1018CF000F18FB602485232AAD1FAF1E12122D7433
:1018DF0008251EF51ED39478748094804007E4F594
:0918EF001E051F051F052480CA17
:0118F80022CD
:061551008F1E8D1F8B2090
:10155700E4F521121A1CE4F9E9C39410748094800D
:10156700502B75F040E520A4241BF582E5F03408E4
:10157700F583E58229F582E43583F583E493FF7EDD
:10158700007D017C00121A0B05210980CBE51F04A1
:10159700FDAF1E121A1CE4F9E9C3941074809480FD
:1015A700502B75F040E520A4243BF582E5F0340884
:1015B700F583E58229F582E43583F583E493FF7E9D
:0D15C700007D017C00121A0B05210980CB6C
:0115D40022F4
:041790008F2C8B2EE1
:10179400E4F533F5348D36E536C3952F503BAD363D
:1017A400AF2C121A1C852C35E535C3952E5026AB6B
:1017B40030AA31A9320534E534AE3370020533144E
:1017C400F5828E83120F18FF7E007D017C00121AB1
:0917D4000B053580D3053680BEFB
:0117DD0022E9
:10114D00E4FDFC7FAEFE1219FAE4FDFC7F40FE12B9
:10115D001A0BE4FDFC7FB0FE121A0BE4FDFC7F813F
:10116D00FE121A0BE4FDFC7FFFFE121A0BE4FDFCD0
:10117D007FA1FE121A0BE4FDFC7FA6FE121A0BE4F2
:10118D00FDFC7FA8FE121A0BE4FDFC7F3FFE121A38
:10119D000BE4FDFC7FC8FE121A0BE4FDFC7FD3FEB1
:1011AD00121A0BE4FDFCFFFE121A0BE4FDFC7FD5B9
:1011BD00FE121A0BE4FDFC7F80FE121A0BE4FDFCFF
:1011CD007FD8FE121A0BE4FDFC7F05FE121A0BE40C
:1011DD00FDFC7FD9FE121A0BE4FDFC7FF1FE121A05
:1011ED000BE4FDFC7FDAFE121A0BE4FDFC7F12FE10
:1011FD00121A0BE4FDFC7FDBFE121A0BE4FDFC7FE3
:10120D0030FE121A0BE4FDFC7F8DFE121A0BE4FD6D
:10121D00FC7F14FE121A0BE4FDFC7FAFFE021A0BCD
:100C5B00020F03E86480F8E933E83360110460F0B5
:100C6B00ED33EC337009E8FCE9FDEAFEEBFF2204FF
:100C7B0060DED3EB9FEA9EE99DE8C2E78CF0C2F7FA
:100C8B0095F0400CE8CCF8E9CDF9EACEFAEBCFFBC6
:100C9B00120ECE85D0F05804700320D5B3E8047043
:100CAB00075002B2D5020F0D92D5EC0460F7E4CCDD
:100CBB00C0E0C398F8603B94186008400DD0E0FB8F
:100CCB00020EE5E4FBFAC9FC8028E830E406E4C92F
:100CDB00FBE4CAFCE830E305E4C9CACBFCE85407E3
:100CEB006010F8C3E913F9EA13FAEB13FBEC13FCEE
:100CFB00D8F130F52FC3E49CFCEF9BFFEE9AFEED91
:100D0B0099FDD0E0FBEF4E4D4C701222DB03020F2E
:100D1B000AEC2CFCEF33FFEE33FEED33FDED30E749
:100D2B00EB020EE5EF2BFFEE3AFEED39FDD0E0FBCB
:100D3B0050130BBB0003020F0DED13FDEE13FEEF73
:080D4B0013FFEC13FC020EE59E
:100D5300EC4D6011E8497017ED33EC3304600DE49A
:100D6300FCFFFEFD22E933E8330470F8020F03129F
:100D73000ECE58046009E4CC2481500628500902A1
:100D83000F0D284003020F0AC0E0EB4A7044B980FC
:100D930006D0E0FB020EF9EF4E701CBD8008EBFF9E
:100DA300EAFEE9FD80EBE98DF0A4FEE5F0020E3CDE
:100DB300E9CDF9EAFEEBFFEF89F0A4FCE5F0CE897B
:100DC300F0A42EFFE435F0CD89F0A42DFEE435F038
:100DD3008067EF4E7005BD80D780C3EF8BF0A4AC66
:100DE300F0EE8BF0A42CFCE435F0F8EF8AF0A42CA1
:100DF300E5F038FCE433CB8DF0A42CFCE5F03BF8B4
:100E0300EE8AF0A42CFCE5F038F8E433CF89F0A4A3
:100E13002CFCE5F038CF3400CE89F0A42FFFE5F0A9
:100E23003EFEE433C98DF0A42EFEE5F039CD8AF001
:100E3300A42FFFE5F03EFEE43DFD33D0E0FB500779
:100E43000BBB000F020F0DEC2CFCEF33FFEE33FE58
:060E5300ED33FD020EE587
:100E590075F020800E75F010800575F0087D007E14
:100E6900007F003392D530D503120FACEC3340101C
:100E7900EF33FFEE33FEED33FDEC33FCD5F0ED221D
:0E0E8900E5F0247EA2D513CC92E7CDCEFF2259
:100E9700EDD2E7CD33EC3392D524814006E4FFFE53
:100EA700FDFC22FCE4CFCECDCC24E0501174FF80B2
:100EB700EDC3CC13CCCD13CDCE13CECF13CF04704F
:070EC700F030D5DE020FAC94
:100ECE00E9D2E7C933E833F892D5EDD2E7CD33EC6A
:070EDE0033FC5002B2D522E3
:100EE500EC30E7100FBF000C0EBE00080DBD00046E
:100EF5000BEB6014A2D5EB13FCED92E7FD2274FF1A
:100F0500FCFDFEFF22E480F8A2D574FF13FC7D8072
:030F1500E480EF86
:10144B00020FBAE493A3F8E493A34003F68001F2EE
:10145B0008DFF48029E493A3F85407240CC8C333A2
:10146B00C4540F4420C8834004F456800146F6DF71
:10147B00E4800B0102040810204080901BA4E47E42
:10148B00019360BCA3FF543F30E509541FFEE49366
:10149B00A360010ECF54C025E060A840B8E493A32D
:1014AB00FAE493A3F8E493A3C8C582C8CAC583CA58
:1014BB00F0A3C8C582C8CAC583CADFE9DEE780BE10
:011BAE000036
:100F1800BB010CE58229F582E5833AF583E022508E
:100F280006E92582F8E622BBFE06E92582F8E222D8
:0D0F3800E58229F582E5833AF583E49322F2
:100F4500EF8DF0A4A8F0CF8CF0A428CE8DF0A42EC0
:020F5500FE227A
:100F5700BC000BBE0029EF8DF084FFADF022E4CC7E
:100F6700F875F008EF2FFFEE33FEEC33FCEE9DEC47
:100F7700984005FCEE9DFE0FD5F0E9E4CEFD22ED8D
:100F8700F8F5F0EE8420D21CFEADF075F008EF2FD7
:100F9700FFED33FD4007985006D5F0F222C398FDC8
:050FA7000FD5F0EA2265
:0E0FAC00C3E49FFFE49EFEE49DFDE49CFC2256
:00000001FF
