:100ABE00008000C000E000F000FC0000000000001C
:100ACE000000000000000000000000000000000018
:100ADE000000000000000000000000000000000008
:100AEE0000000000000000000000000000000000F8
:100AFE0000000000000000000000000000000000E8
:100B0E0000000000000000000000000000000000D7
:100B1E0000000000000000000000000000000000C7
:100B2E00FEFEFEFEFEFEFE82828282FE383800004F
:100B3E0000000000000000000000000000000000A7
:100B4E000000000000000000000000000000000097
:100B5E000000000000000000000000000000000087
:100B6E000000000000000000000000000000000077
:100B7E000000000000000000000000000000000067
:100B8E000000000000000000000000000000000057
:100B9E000000000000000000000000000000000047
:100BAE000000000000000000000000000000000037
:100BBE000000000000000000000000000000000027
:100BCE000000000000000000000000000000000017
:100BDE0010101010303020E0C000003830C000007F
:100BEE00000080C038000000000038C08000000007
:100BFE00000080C070F800000000C0C04030301807
:100C0E00181838303020000000F8000000000000F6
:100C1E00000000F0000000000000000000000000D6
:100C2E0000000000000000000000000000000000B6
:100C3E0000000000000000000000000000000000A6
:100C4E00000000000000000000000000000000FC9A
:100C5E00000000003C7C848303000000000303BC02
:100C6E00BCFC03010000000000FCFC01030C1C3066
:100C7E001C02030100FF0000003F7F6180808000A6
:100C8E000000000080800000007F808000000000D7
:100C9E000080807F000000000000000000000000C7
:100CAE000000000000000000000000000000000036
:100CBE000000000000000000000000000000000026
:100CCE000000000000000000000000000000000115
:100CDE000000000000000001010000000000000103
:100CEE0001010000000000000001010000000000F2
:100CFE0000000000000100000000000000000103E1
:100D0E0003010101010000000000000101010301C7
:100D1E0001010000000000000000000000000000C3
:100D2E0000000000000000000000000000000000B5
:100D3E0000000000000000000000000000000000A5
:100D4E000000000000000000000000000000000095
:100D5E000000000000000000000000000000000085
:100D6E000000000000000000000000000000000075
:100D7E000000000000000000000000000000000065
:100D8E000000000000000000000000000000000055
:100D9E000000000000000000000000000000000045
:100DAE000000000000000000000000000000000035
:100DBE000000000000000000000000000000000025
:100DCE000000000000000000000000000000000015
:100DDE000000000000000000000000000000000005
:100DEE0000000000000000000000000000000000F5
:100DFE0000000000000000000000000000000000E5
:100E0E0000000000000000000000000000000000D4
:100E1E0000000000000000000000000000000000C4
:100E2E0000000000000000000000000000000000B4
:100E3E0000000000000000000000000000000000A4
:100E4E000000000000000000000000000000000094
:100E5E000000000000000000000000000000000084
:100E6E000000000000000000000000000000000074
:100E7E000000000000000000000000000000000064
:100E8E000000000000000000000000000000000054
:100E9E000000000000000000000000000000000044
:100EAE000000000000000000000000000000000034
:070EBE005059230106022137
:10198A004A00170000000000000000000047002184
:10199A0000000000000000570000000000000000E6
:1019AA00000000000000000000000000000000002D
:0E19BA0000013000012E00012F00022C000061
:1015D700AE2CAF2D7C007D0A12122EEFC4F8540FEB
:1015E700C868FBEEC454F048FAAE2CAF2D7C007DE2
:1015F7000A02122EE0FDC4540F75F00AA4FFAEF0E4
:10160700ED540F7C002FF52DEC3EF52CE52E22FF37
:10161700C4540F24301211A5EF540F243022E0FBDD
:10162700751610C2017D0622ED2BF52DEC3AF52C2F
:1016370022E0FB751608C2017D0522E50DC4F854AA
:10164700F0C868FEE50EC4540F48FF7C007D0A020F
:1016570011D9D3E52D943BE52C6480948022E0FFDB
:10166700C4540F243022ED2430AB0AAA0BA90C0274
:0216770011A5BB
:10151B00E4F508750906F5A0D286C286121DD47BA8
:10152B00FF7A0E79BE121A4012137F121A05121C83
:10153B00937BFF7A0A79BEC200E4FDFF12187D058A
:10154B0009D3E5099409748094804003750906C298
:10155B0000AB09E4FD7F6F1218077B017A00791746
:10156B001219407B017A007917750F10C200E4FD48
:10157B007F281218E1C200E4FBFD7F4B121807E530
:10158B00307B017A0079007008121CAEE4F50880FC
:10159B000612145E7508017B017A007900750F083D
:1015AB00E50824FF92007D057F231218E17B017A69
:1015BB0000790B750F10E50824FF92007D067F1450
:0C15CB001218E1120EC5121B8502154A11
:101B8500900022E07013900021E0700D121B9F7FE2
:101B9500327E00121C75121B9F22C2807FF47E01CB
:061BA500121C75D2802223
:100EC50020901612115E2090020530D3E53094086B
:100ED500748094804003E4F53020910812115E205F
:100EE5009102052E20920C7F017E00121C75209226
:100EF50002052FE5301212700F19010F6C020FBF9A
:100F05000310120410650510B306110107115408EA
:100F15000000115D9000271215FB600B052DE52DD6
:100F25007002052CE4F52EE52F600BE52D152D70CF
:100F350002152CE4F52FD3E52D946312165E4005BA
:100F4500E4F52CF52D1215D712162F900027E52D57
:100F5500F09000021216387F2F121296900003129D
:100F650016387F350211519000251215FB600B05CF
:100F75002DE52D7002052CE4F52EE52F600BE52DF2
:100F8500152D7002152CE4F52FD3E52D940C1216B2
:100F95005E4005E4F52CF52D1215D712162F90009D
:100FA50025E52DF09000051216387F411212969016
:100FB50000061216387F470211519000241215FBC6
:100FC500600B052DE52D7002052CE4F52EE52F604F
:100FD5000BE52D152D7002152CE4F52FD3E52D9479
:100FE5001F12165E4005E4F52CF52D1215D71216C5
:100FF5002F900024E52DF09000081216387F53122B
:1010050012969000091216387F590211519000234B
:101015001215FB600B052DE52D7002052CE4F52E50
:10102500E52F600BE52D152D7002152CE4F52FD35A
:10103500E52D941712165E4005E4F52CF52D1215D5
:10104500D712162F900023E52DF090000B121625D0
:101055007F1412129690000C1216257F1C02115156
:101065009000221215FB600B052DE52D7002052C55
:10107500E4F52EE52F600BE52D152D7002152CE4FA
:10108500F52F1216594005E4F52CF52D1215D7123A
:10109500162F900022E52DF090000E1216257F2CBC
:1010A50012129690000F1216257F340211519000EE
:1010B500211215FB600B052DE52D7002052CE4F5BD
:1010C5002EE52F600BE52D152D7002152CE4F52F5F
:1010D5001216594005E4F52CF52D1215D712162FC9
:1010E500900021E52DF09000111216257F44121273
:1010F500969000121216257F4C021151900026126F
:1011050015FB600B052DE52D7002052CE4F52EE58C
:101115002F600BE52D152D7002152CE4F52FD3E569
:101125002D940712165E4005E4F52CF52D1215D702
:1011350012162F900026E52DF09000141216257F2B
:101145005C1212969000151216257F640212967B8A
:08115500017A007921121A4011
:09115D00227F017E00121C7522A4
:061940008B0A8A0B890CE2
:10194600121B068E0D8F0E121642EF2430AB0AAA1A
:101956000BA90C12119312164290000112166D90EB
:101966000002742E1211A5AE0DE50E7803CEC31338
:10197600CE13D8F912165190000312166D9000047A
:04198600E40211A5C1
:101CAE008B0A8A0B890C7B017A007921121C16ABE8
:081CBE000AAA0BA90C02145E36
:10145E00743212119390000174301211A59000276E
:10146E00E09000021216169000031211A5900004CF
:10147E00742D1211A5900025E090000512161690FD
:10148E0000061211A5900007742D1211A5900024CC
:10149E0012166590000812161C9000091211A590E4
:1014AE00000AE41211A590002312166590000B128B
:1014BE00161C90000C1211A590000D743A1211A575
:1014CE0090002212166590000E12161C90000F123C
:1014DE0011A5900010743A1211A5900021121665F4
:1014EE0090001112161C9000121211A59000137488
:1014FE00201211A590002612166590001412161CCB
:0D150E009000151211A5900016E40211A521
:101C7500D3EF9400EE940040147D4E7C00ED1D7072
:0D1C8500011CED4C70F7EF1F70E61E80E3B0
:011C9200222F
:100026000000000000000000002F00000000070094
:10003600070000147F147F1400242A7F2A1200620E
:1000460064081323003649552250000005030000BA
:1000560000001C224100000041221C000014083E42
:1000660008140008083E0808000000A06000000808
:10007600080808080000606000000020100804025C
:10008600003E5149453E0000427F4000004261511A
:100096004946002141454B31001814127F100027B4
:1000A60045454539003C4A49493000017109050377
:1000B60000364949493600064949291E00003636A8
:1000C600000000005636000000081422410000140B
:1000D60014141414000041221408000201510906E8
:1000E60000324959513E007C1211127C007F494969
:1000F6004936003E41414122007F4141221C007F9A
:1001060049494941007F09090901003E4149497AA7
:10011600007F0808087F0000417F41000020404121
:100126003F01007F08142241007F40404040007F8D
:10013600020C027F007F0408107F003E4141413ED1
:10014600007F09090906003E4151215E007F091919
:1001560029460046494949310001017F0101003F16
:100166004040403F001F2040201F003F4038403F96
:1001760000631408146300070870080700615149FA
:10018600454300007F41410000552A552A5500008D
:1001960041417F000004020102040040404040400B
:1001A600000001020400002054545478007F4844A3
:1001B600443800384444442000384444487F0038DA
:1001C6005454541800087E0901020018A4A4A47C03
:1001D600007F080404780000447D400000408084CD
:1001E6007D00007F102844000000417F4000007C15
:1001F60004180478007C0804047800384444443821
:1002060000FC242424180018242418FC007C08046C
:10021600040800485454542000043F444020003C45
:100226004040207C001C2040201C003C4030403CCC
:10023600004428102844001CA0A0A07C004464545C
:100246004C441414141414140000000000000000A0
:100256000000000000000000000000F800000000A0
:10026600000000333000000000100C06100C0600E1
:10027600000000000000000040C07840C078400048
:10028600043F04043F040400007088FC08300000AA
:10029600001820FF211E0000F008F000E018000002
:1002A60000211C031E211E0000F0088870000000BB
:1002B6001E2123241927211010160E00000000000D
:1002C6000000000000000000000000E0180402002A
:1002D600000000071820400000020418E00000009B
:1002E6000040201807000000404080F08040400099
:1002F6000202010F01020200000000F000000000EF
:100306000101011F010101000000000000000000C2
:1003160080B0700000000000000000000000000037
:1003260000010101010101010000000000000000C0
:10033600003030000000000000000000806018045B
:10034600006018060100000000E010080810E00038
:10035600000F102020100F00001010F80000000001
:100366000020203F20200000007008080888700048
:1003760000302824222130000030088888483000C8
:100386000018202020110E000000C02010F80000E8
:1003960000070424243F240000F808888808080081
:1003A6000019212020110E0000E010888818000096
:1003B600000F112020110E0000380808C838080068
:1003C6000000003F000000000070880808887000E8
:1003D600001C222121221C0000E010080810E00069
:1003E6000000312222110F00000000C0C0000000F2
:1003F6000000003030000000000000800000000017
:10040600000080600000000000008040201008000E
:1004160000010204081020004040404040404000D7
:1004260004040404040404000008102040800000B2
:100436000020100804020100007048080808F000B7
:100446000000003036010000C030C828E810E00087
:100456000718272423140B000000C038E000000012
:10046600203C23020227382008F88888887000007C
:10047600203F202020110E00C03008080808380050
:10048600071820202010080008F808080810E000C7
:10049600203F202020100F0008F88888E808100068
:1004A600203F20202320180008F88888E80810003C
:1004B600203F200003000000C03008080838000074
:1004C60007182020221E020008F808000008F80875
:1004D600203F210101213F20000808F808080000FC
:1004E6000020203F2020000000000808F80808002F
:1004F600C08080807F00000008F888C028180800A7
:10050600203F20012638200008F8080000000000DF
:10051600203F20202020300008F8F800F8F80800D6
:10052600203F003F003F200008F830C00008F808D0
:10053600203F200007183F00E01008080810E000E0
:100546000F10202020100F0008F808080808F000F7
:10055600203F210101010000E01008080810E0001A
:100566000F18242438504F0008F8888888887000AF
:10057600203F2000030C302000708808080838004F
:100586000038202121221C00180808F80808180045
:100596000000203F2000000008F808000008F808C6
:1005A600001F202020201F000878880000C8380877
:1005B600000007380E010000F80800F80008F800EF
:1005C600033C0700073C0300081868808068180889
:1005D60020302C03032C30200838C800C838080007
:1005E6000000203F2000000010080808C838080056
:1005F6002038262120201800000000FE02020200FA
:100606000000007F40404000000C30C000000000A9
:10061600000000010638C00000020202FE000000D1
:10062600004040407F000000000004020202040077
:1006360000000000000000000000000000000000B4
:10064600808080808080808000020204000000009C
:100656000000000000000000000080808080000094
:100666000019242222223F2008F800808000000082
:10067600003F112020110E00000000808080000045
:10068600000E112020201100000000808088F80054
:10069600000E112020103F20000080808080000086
:1006A600001F222222221300008080F088888818EA
:1006B6000020203F202000000000808080808000F5
:1006C600006B94949493600008F80080808000008A
:1006D600203F210000203F20008098980000000065
:1006E6000020203F20200000000000809898000095
:1006F60000C08080807F000008F8000080808000B5
:10070600203F24022D302000000808F800000000D9
:100716000020203F20200000808080808080800094
:10072600203F20003F20003F808000808080000026
:10073600203F210000203F200000808080800000B4
:10074600001F202020201F008080008080000000E5
:1007560080FFA12020110E00000000808080800014
:10076600000E112020A0FF80808080008080800005
:1007760020203F2120000100000080808080800032
:100786000033242424241900008080E080800000A7
:100796000000001F202000008080000000808000F4
:1007A600001F202020103F20808080000080808055
:1007B60000010E30080601008080008000808080E5
:1007C6000F300C030C300F0000808000808080000A
:1007D6000020312E0E312000808080000080808035
:1007E60080818E70180601000080808080808000E5
:1007F6000021302C2221300000000000807C020203
:1008060000000000003F404000000000FF00000024
:1008160000000000FF0000000002027C80000000D3
:100826000040403F000000000006010102020404EF
:100836000000000000000000000C120C00C0701048
:100846000808080810300000000000000000000042
:10085600000000000000000000000000000F18303B
:1008660020202020301C00000000000000000000B6
:10087600000000000000000000020202028242F2B4
:100886000E4282020202000000000000000000008A
:10089600000000000000000010080402010000FF34
:1008A60000000001020C0000000000000000000033
:1008B6000000000000000000000000FE020202F23C
:1008C600020202FE0000000000000000000000001E
:1008D600000000000000000080804047201806014C
:1008E6007E8080878080E00000000000000000001D
:1008F600000000000000000000020202028242F234
:100906000E42820202020000000000000000000009
:10091600000000000000000010080402010000FFB3
:1009260000000001020C00000000000000000000B2
:10093600000000000000000020A4BFA4A4BFA42063
:1009460080708F0808F80800000000000000000012
:10095600000000000000000000FF0A0A4A8A7F002B
:100966008040330C3340800000000000000000008F
:100976000000000000000000000000FE0000000073
:100986000000000000000000000000000000000061
:10099600000000000000000000000033000000001E
:1009A6000000000000000000000000000000000041
:1009B6000000000000000000FE82828282828282A5
:1009C600828282FE3838000000000000000000002D
:1009D6000000000000000000000000000000000011
:1009E6000000000000000000000000000000000001
:1009F6000000000000000000FEFEFEFE82828282F1
:100A0600828282FE383800000000000000000000EC
:100A160000000000000000000000000000000000D0
:100A260000000000000000000000000000000000C0
:100A36000000000000000000FEFEFEFEFEFEFEFEC0
:100A4600828282FE383800000000000000000000AC
:100A56000000000000000000000000000000000090
:100A66000000000000000000000000000000000080
:100A76000000000000000000FEFEFEFEFEFEFEFE80
:100A8600FEFEFEFE383800000000000000000000F8
:100A96000000000000000000000000000000000050
:100AA6000000000000000000000000000000000040
:080AB600000000000000000038
:10178C00121264E582250DF582E43583F583E4932A
:10179C00227E00EFC394087480948022F582E43595
:1017AC00F0F583E58222244EF582E5833402F5833D
:1017BC00E493222456F582E5833402F583E49322E4
:1017CC00AB0BAA0CA90D050FE50FAE0E22C394802E
:1017DC007480948022EF24B0FFEE33FEE4FDFC22F3
:1017EC00E4FDFC7F10FE22E5298527F0A42521FFCE
:0B17FC0022C3E50D941074809480223D
:101D0E008F1C121DA67F78121B5CE4FF121B5CAFAA
:071D1E001C121B5C021D9763
:101D25008F1C121DA67F78121B5C7F40121B5CAFB7
:071D35001C121B5C021D974C
:101D66008E1A8F1BED4C6003021D25AF1B121D0E34
:011D7600224A
:10137F007FAE121414FFFE121D667F101214147F1D
:10138F0040FE121D667FB012141F7F81FE121D6674
:10139F007FFF12141F7FA1FE121D667FA612142A53
:1013AF007FA8FE121D667F3F12142A7FC8FE121DF2
:1013BF00667FD3121435FFFE121D667FD5121435CA
:1013CF007F80FE121D667FD81214407F05FE121D0E
:1013DF00667FD91214407FF1FE121D667FDA121458
:1013EF004B7F12FE121D667FDB12144B7F301214DF
:1013FF00567F8D1214567F14FE121D66E4FDFC7F7E
:10140F00AFFE021D66E4FDFCFE121D66E4FDFC222C
:10141F00E4FDFCFE121D66E4FDFC22E4FDFCFE1261
:10142F001D66E4FDFC22E4FDFCFE121D66E4FDFCDE
:10143F0022E4FDFCFE121D66E4FDFC22E4FDFCFE31
:0F144F00121D66E4FDFC22FE121D66E4FDFC2268
:101C9300E4FDFC7F8DFE121D66E4FDFC7F14FE1245
:0B1CA3001D66E4FDFC7FAFFE021D6625
:101CC600E4FDFC7F8DFE121D661217EC121D66E404
:081CD600FDFC7FAEFE021D665D
:101A0500E4F50AAF0A12179D50301217E1121D6650
:101A1500E4FDFCFFFE121D661217EC121D66E4F5CF
:101A25000BE50B1217D9500E7D017C00E4FFFE1269
:0A1A35001D66050B80EB050A80C951
:011A3F002284
:1019C900E4F531AF3112179D50311217E1121D663E
:1019D900E4FDFCFFFE121D661217EC121D66E4F50C
:1019E90032E5321217D9500F7D017C007F017E004C
:0B19F900121D66053280EA053180C82F
:011A040022BF
:101AD8008F19ED24B0FFE433FEE4FDFC121D66E52A
:101AE8001954F0C4540F7E004410FFE4FDFC121D8D
:0E1AF80066E519540FFF7E00E4FDFC021D663A
:041296008F138D1411
:10129A00E4F517F518EB24E0F517D3EF947F748083
:1012AA0094804007E4F51305140514E516641070DC
:1012BA006E12136CE5181217A0502875F010E51776
:1012CA00A4251820010B1217A81217B2FF7E00805E
:1012DA000B1217A81217B2F4FFE4F4FE12137705E3
:1012EA001880D1E51404FDAF13121AD8E4F518C317
:1012FA00E5181217A1506A75F010E517A4251820F1
:10130A00010B1217A81217BFFF7E00800B1217A835
:10131A001217BFF4FFE4F4FE121377051880D012F7
:10132A00136CC3E518940674809480503475F006E3
:10133A00E51790002620010F121264E58225181283
:10134A001793FF7E00800F121264E5822518121788
:10135A0093F4FFE4F4FE7D017C00121D66051880FB
:01136A00C1C1
:10136B0022AD14AF13121AD8E4F518227D017C00BC
:04137B00121D6622B7
:041CDE008F33A90592
:101CE2007F017E00AD0119ED6009AD337C00121158
:031CF200C780F1B7
:011CF50022CC
:081705008F218D228A238B2421
:10170D00E4F52BE52664107008752908752A1080FC
:10171D0006752906752A08E4F527E527C395255092
:10172D005DC3E525952714FD7F0A121CDEAC23ADA4
:10173D0024CFCDCFCECCCE1211D97C007D0A121183
:10174D00D98D28E52B701FE52514FFE527C39F5084
:10175D0015E528700E1217F3852A16A20392017B48
:10176D00208012752B011217F3E5282430FB852AF2
:0E177D0016A2039201AD221212960527809C3F
:01178B00223B
:0A18E1008F0A8D0B8B0C8A0D890E07
:1018EB00E4F512E50F64107008751108751010807F
:1018FB0006751106751008AB0CAA0DA90E85128280
:10190B00758300121166FB602B851016A2009201E5
:10191B00AD0BAF0A121296E511250AF50AC37478BE
:10192B009511FFE50AD39F4007E4F50A050B050B5C
:04193B00051280C34E
:01193F002285
:061807008F0A8D0B8B0C13
:10180D00E4F50E121AD8E4F50D1217FD502875F0F7
:10181D0040E50C90083E20000812178CFF7E0080DA
:10182D000812178CF4FFE4F4FE7D017C00121D6696
:10183D00050E050D80D3E50B04FDAF0A121AD8E491
:10184D00F50D1217FD502875F040E50C90085E203F
:10185D00000812178CFF7E00800812178CF4FFE42D
:0F186D00F4FE7D017C00121D66050E050D80D373
:01187C002249
:08187D008F0A8B0B8A0C890D08
:10188500E4F50EF50F8D11C3E5111217A1504CADFE
:1018950011AF0A121AD8850A10C3E5101217DA50CB
:1018A500362000141217CC7002050E14F5828E83B3
:1018B500121166FF7E0080141217CC7002050E14FB
:1018C500F5828E83121166F4FFE4F4FE7D017C003F
:0B18D500121D66051080C2051180ACDA
:0118E00022E5
:101D7700AE071FEE600A000000000000000080F0C0
:011D87002239
:101D3C00C2B77F32121D77D2B77F06121D7730B72C
:061D4C00FD7F32021D774D
:021B3300AD07FC
:101B35007B01EBD3940874809480501AED139200C6
:101B4500EDC313FDC2B70000A20092B77F06121DB8
:061B550077D2B70B80DC23
:011B5B002267
:101AA7007C01ECD39408748094805022C2B7000064
:101AB700D2B70000A2B7E433FB7F06121D77EBC451
:101AC7003333335480FFEDC3134FFD0C80D4AF0580
:011AD70022EC
:101B0600121D3C7FCC121B337F44121B33121D3C2B
:101B16007FCC121B337FBE121B33121AA7AA0712E1
:0C1B26001AA7EFFE7C00E42AFFEC3EFE54
:011B32002290
:101D5200D394067480948022EF121193740129F9AE
:041D6200E43AFA2243
:100003007E01EED39408748094805013EF13920012
:0F001300A2009284C283D283EFC313FF0E80E357
:0100220022BB
:101BAB007E01EED39408748094805018D283C28344
:101BBB00A284E433FDC43333335480FCEFC3134CA2
:041BCB00FF0E80DEAB
:011BCF0022F3
:0F1D8800D285120003AF05120003C285C2832269
:0A1DBF00D285120003121BABC2858F
:011DC90022F7
:061A75008B1D8A1E891F73
:101A7B00D2857FBE120003E4FDED121D525015AB53
:101A8B001DAA1EA91F8D82758300121166FF1200FD
:0B1A9B00030D80E5E4FF120003C2858C
:011AA600221D
:101C3700D2857FBF120003E4F534D3E534121D5378
:0E1C4700500A121BAB121D5A053480EEC285E6
:011C5500226C
:061A40008B0A8A0B890CE1
:101A4600C285C283E4FD7F8E121D88E4FCEC121D64
:101A560052501BEC25E02480FFAB0AAA0BA90C8C84
:0E1A660082758300121166FD121D880C80DF50
:011A7400224F
:101C1600C285C283E4F50DD3E50D121D535011E5BF
:101C26000D25E02481FF121DBF121D5A050D80E708
:011C3600228B
:0A1DCA00121DBAC2A1EEC313FE22DF
:071DB300D2B6121DBAD2A145
:051DBA00000000002202
:0D1DA600C2A1121DB3C2B6121DBAC2A12205
:0F1D9700C2A1C2B6121DB5D2B6121DBAC2A12288
:101B5C007E80EE60115F7004C2B68002D2B6121D98
:101B6C00B5121DCD80ECD2B6121DBAD2A1A2B6927E
:081B7C0002121DBAC2A1A2026F
:011B8400223E
:101BF400D2B67E80EE6015121DBAD2A120B605F4CD
:101C040052078003EE4207121DCA80E8121DB3C2B8
:011C1400A12E
:011C150022AC
:101BD000D2B67E80EE6015121DBAD2A120B605F4F1
:101BE00052078003EE4207121DCA80E8C2B6121DDA
:031BF000B5C2A1DA
:011BF30022CF
:03002300021C5666
:101C5600C0E0C0D075D000C00730980CC298AF99CC
:0F1C6600EF6455700343E760D007D0D0D0E03271
:101CF600759850E4F587758920758BFD758DFDC245
:081D0600ABD28ED2ACD2AF22A9
:031DD400021CF6F8
:030000000216796C
:0C167900787FE4F6D8FD7581340216C0BD
:10116600BB010CE58229F582E5833AF583E022503E
:1011760006E92582F8E622BBFE06E92582F8E22288
:0D118600E58229F582E5833AF583E49322A2
:10119300BB010689828A83F0225002F722BBFE013B
:0211A300F32235
:1011A500F8BB010DE58229F582E5833AF583E8F080
:1011B500225006E92582C8F622BBFE05E92582C82C
:0211C500F22214
:1011C700EF8DF0A4A8F0CF8CF0A428CE8DF0A42E3C
:0211D700FE22F6
:1011D900BC000BBE0029EF8DF084FFADF022E4CCFA
:1011E900F875F008EF2FFFEE33FEEC33FCEE9DECC3
:1011F900984005FCEE9DFE0FD5F0E9E4CEFD22ED09
:10120900F8F5F0EE8420D21CFEADF075F008EF2F52
:10121900FFED33FD4007985006D5F0F222C398FD43
:051229000FD5F0EA22E0
:10122E00C2D5EC30E709B2D5E4C39DFDE49CFCEEDB
:10123E0030E715B2D5E4C39FFFE49EFE1211D9C369
:10124E00E49DFDE49CFC80031211D930D507C3E464
:06125E009FFFE49EFE224A
:0C126400A42582F582E5F03583F5832295
:10127000D083D082F8E4937012740193700DA3A30D
:1012800093F8740193F5828883E473740293686021
:06129000EFA3A3A380DF21
:1016850002151BE493A3F8E493A34003F68001F24B
:1016950008DFF48029E493A3F85407240CC8C33366
:1016A500C4540F4420C8834004F456800146F6DF35
:1016B500E4800B010204081020408090198AE47E22
:1016C500019360BCA3FF543F30E509541FFEE4932A
:1016D500A360010ECF54C025E060A840B8E493A3F1
:1016E500FAE493A3F8E493A3C8C582C8CAC583CA1C
:1016F500F0A3C8C582C8CAC583CADFE9DEE780BED4
:0119C800001E
:00000001FF
