:100C7E004E6562756C612D50692C52594D4355204D
:100C8E00202020353120746573742100000305097E
:100C9E0011FF118905C300E000F000F8000000000C
:100CAE000000004428FF11AA4400000000000000CC
:100CBE000000000000000000000000000000000026
:100CCE000000000000000000000000000000000016
:100CDE000000000000000000000000000000000006
:100CEE000000000000008301384482929274018358
:100CFE00000000000000007C44FF017D7D7D017D31
:100D0E007D7D7D017D7D7D7D7D01FF0000000000EC
:100D1E0000010001000100010001000100000000BF
:100D2E0000000000000101000000000000000000B3
:100D3E0000000000000000000000000000000000A5
:100D4E000000000000000000000000000000000095
:100D5E000000000000000000000000000000000085
:100D6E000000000000000101000000000000010171
:100D7E00000000000000000000010101010101015E
:100D8E00010101010101010101010100000000004A
:100D9E000000000000000000000000000000000045
:100DAE0000000000000000003F3F0303F313111189
:100DBE001111111101F1116181010101816111F115
:100DCE00010101014141F10101010101C121111195
:100DDE00111121C1010101014141F1010101010185
:100DEE0001010101011111111111D33303033F3F11
:100DFE0000000000000000000000000000000000E5
:100E0E0000000000000000000000000000000000D4
:100E1E0000000000000000000000000000000000C4
:100E2E000000000000000000E0E000007F01010172
:100E3E0001010100007F0000010618060100007F7D
:100E4E000000000040407F40400000001F20404056
:100E5E004040201F0000000040407F404000000046
:100E6E0000600000000040300C0300000000E0E0D5
:100E7E000000000000000000000000000000000064
:100E8E000000000000000000000000000000000054
:100E9E000000000000000000000000000000000044
:100EAE000000000000000000070706060606040406
:100EBE000484444444840404844444448404040464
:100ECE0084C40404040484444444840404040404D4
:100EDE008444444484040404040484444444840444
:100EEE0004844444448404040404060606060707E6
:100EFE0000000000000000000000000000000000E4
:100F0E0000000000000000000000000000000000D3
:100F1E0000000000000000000000000000000000C3
:100F2E0000000000000000000000000000000000B3
:100F3E0000101814121100000F1010100F000000F6
:100F4E00101F10000000081012120D0000180000F3
:100F5E000D1212120D0000180000101814121100BC
:100F6E000010181412110000000000000000000014
:100F7E000000000000000000000000000000000063
:100F8E000000000000000000000000000000000053
:100F9E000000000000000000000000000000000043
:100FAE000000000000000000000000000000000033
:100FBE000000000000000000000000000000000023
:100FCE000000000000000000808080808080808013
:100FDE000000000000000000000000000000000003
:100FEE0000000000000000000000000000000000F3
:100FFE0000000000000000000000000000000000E3
:10100E00000000000000000000000000007F030C44
:10101E00300C037F00003854545800007C040478D0
:10102E0000003C40407C000000000000000000007A
:10103E0000000000000000000000000000000000A2
:10104E000000000000000000FFAAAAAA280800FF66
:10105E000000000000000000000000000000000082
:10106E000000000000000000000000000000000072
:10107E0000000000007F030C300C037F00002649A7
:10108E0049493200007F020408107F0056582301A0
:03109E0006022126
:10174800011914010E00021600004A0017000000DB
:101758000000000000000047002100000000000019
:10176800005700000000000000000000000000001A
:0B177800000000000000000000000066
:1017FB00FFC4540F2430121297EF540F243022E5FC
:10180B0024C4F854F0C868FEE525C4540F48FF7C87
:10181B00007D0A0212CBE0FFC4540F243022ED24CA
:0A182B0030AB21AA22A92302129774
:10132000E4F5A0D286C286121B6D7BFF7A10799AF3
:101330001218351210A11217C0121A44752F107B03
:1013400041E4FDFF1213E7752F107B427F08121353
:10135000DE7B437F101213DE7B44E4FD7F18121303
:10136000E77525057526107B0C7A007D02E4FF12D7
:1013700015187BFF7A0C797E7526107D04E4FF1228
:1013800015F9E4FB7D017F321216547BFF7A0C794C
:101390009AE4FDFF1216AE1217C07B017A0079178E
:1013A0001216FE7B017A0079001211807B017A000F
:1013B00079177526107D017F321215F97B017A00AD
:1013C00079007526087D057F1E1215F97B017A00CC
:1013D000790B7526107D067F0F1215F980BCE4FD90
:0713E0001213E7752F102224
:0616FE008B218A228923E2
:101704001218FB8E248F2512180AEF2430AB21AA5D
:1017140022A92312128512180A9000011218299086
:101724000002742E121297AE24E5257803CEC3135B
:10173400CE13D8F912181990000312182990000436
:04174400E402129712
:101180008B218A2289237B017A0079211219E5AB10
:1011900021AA22A9237432121285AB21AA22A923E3
:1011A0009000017430121297900027E09000021214
:1011B00017FB900003121297900004742D121297DF
:1011C000900025E09000051217FB90000612129780
:1011D000900007742D12129790002412182190008D
:1011E0000812180190000912129790000AE41212D6
:1011F0009790002312182190000B12180190000CF8
:1012000012129790000D743A121297900022121841
:101210002190000E12180190000F121297900010EA
:10122000743A12129790002112182190001112188E
:1012300001900012121297900013742012129790CE
:101240000026121821900014121801900015121295
:0812500097900016E4021297CA
:100026000000000000000000002F00000000070094
:10003600070000147F147F1400242A7F2A1200620E
:1000460064081323003649552250000005030000BA
:1000560000001C224100000041221C000014083E42
:1000660008140008083E0808000000A06000000808
:10007600080808080000606000000020100804025C
:10008600003E5149453E0000427F4000004261511A
:100096004946002141454B31001814127F100027B4
:1000A60045454539003C4A49493000017109050377
:1000B60000364949493600064949291E00003636A8
:1000C600000000005636000000081422410000140B
:1000D60014141414000041221408000201510906E8
:1000E60000324959513E007C1211127C007F494969
:1000F6004936003E41414122007F4141221C007F9A
:1001060049494941007F09090901003E4149497AA7
:10011600007F0808087F0000417F41000020404121
:100126003F01007F08142241007F40404040007F8D
:10013600020C027F007F0408107F003E4141413ED1
:10014600007F09090906003E4151215E007F091919
:1001560029460046494949310001017F0101003F16
:100166004040403F001F2040201F003F4038403F96
:1001760000631408146300070870080700615149FA
:10018600454300007F41410000552A552A5500008D
:1001960041417F000004020102040040404040400B
:1001A600000001020400002054545478007F4844A3
:1001B600443800384444442000384444487F0038DA
:1001C6005454541800087E0901020018A4A4A47C03
:1001D600007F080404780000447D400000408084CD
:1001E6007D00007F102844000000417F4000007C15
:1001F60004180478007C0804047800384444443821
:1002060000FC242424180018242418FC007C08046C
:10021600040800485454542000043F444020003C45
:100226004040207C001C2040201C003C4030403CCC
:10023600004428102844001CA0A0A07C004464545C
:100246004C441414141414140000000000000000A0
:100256000000000000000000000000F800000000A0
:10026600000000333000000000100C06100C0600E1
:10027600000000000000000040C07840C078400048
:10028600043F04043F040400007088FC08300000AA
:10029600001820FF211E0000F008F000E018000002
:1002A60000211C031E211E0000F0088870000000BB
:1002B6001E2123241927211010160E00000000000D
:1002C6000000000000000000000000E0180402002A
:1002D600000000071820400000020418E00000009B
:1002E6000040201807000000404080F08040400099
:1002F6000202010F01020200000000F000000000EF
:100306000101011F010101000000000000000000C2
:1003160080B0700000000000000000000000000037
:1003260000010101010101010000000000000000C0
:10033600003030000000000000000000806018045B
:10034600006018060100000000E010080810E00038
:10035600000F102020100F00001010F80000000001
:100366000020203F20200000007008080888700048
:1003760000302824222130000030088888483000C8
:100386000018202020110E000000C02010F80000E8
:1003960000070424243F240000F808888808080081
:1003A6000019212020110E0000E010888818000096
:1003B600000F112020110E0000380808C838080068
:1003C6000000003F000000000070880808887000E8
:1003D600001C222121221C0000E010080810E00069
:1003E6000000312222110F00000000C0C0000000F2
:1003F6000000003030000000000000800000000017
:10040600000080600000000000008040201008000E
:1004160000010204081020004040404040404000D7
:1004260004040404040404000008102040800000B2
:100436000020100804020100007048080808F000B7
:100446000000003036010000C030C828E810E00087
:100456000718272423140B000000C038E000000012
:10046600203C23020227382008F88888887000007C
:10047600203F202020110E00C03008080808380050
:10048600071820202010080008F808080810E000C7
:10049600203F202020100F0008F88888E808100068
:1004A600203F20202320180008F88888E80810003C
:1004B600203F200003000000C03008080838000074
:1004C60007182020221E020008F808000008F80875
:1004D600203F210101213F20000808F808080000FC
:1004E6000020203F2020000000000808F80808002F
:1004F600C08080807F00000008F888C028180800A7
:10050600203F20012638200008F8080000000000DF
:10051600203F20202020300008F8F800F8F80800D6
:10052600203F003F003F200008F830C00008F808D0
:10053600203F200007183F00E01008080810E000E0
:100546000F10202020100F0008F808080808F000F7
:10055600203F210101010000E01008080810E0001A
:100566000F18242438504F0008F8888888887000AF
:10057600203F2000030C302000708808080838004F
:100586000038202121221C00180808F80808180045
:100596000000203F2000000008F808000008F808C6
:1005A600001F202020201F000878880000C8380877
:1005B600000007380E010000F80800F80008F800EF
:1005C600033C0700073C0300081868808068180889
:1005D60020302C03032C30200838C800C838080007
:1005E6000000203F2000000010080808C838080056
:1005F6002038262120201800000000FE02020200FA
:100606000000007F40404000000C30C000000000A9
:10061600000000010638C00000020202FE000000D1
:10062600004040407F000000000004020202040077
:1006360000000000000000000000000000000000B4
:10064600808080808080808000020204000000009C
:100656000000000000000000000080808080000094
:100666000019242222223F2008F800808000000082
:10067600003F112020110E00000000808080000045
:10068600000E112020201100000000808088F80054
:10069600000E112020103F20000080808080000086
:1006A600001F222222221300008080F088888818EA
:1006B6000020203F202000000000808080808000F5
:1006C600006B94949493600008F80080808000008A
:1006D600203F210000203F20008098980000000065
:1006E6000020203F20200000000000809898000095
:1006F60000C08080807F000008F8000080808000B5
:10070600203F24022D302000000808F800000000D9
:100716000020203F20200000808080808080800094
:10072600203F20003F20003F808000808080000026
:10073600203F210000203F200000808080800000B4
:10074600001F202020201F008080008080000000E5
:1007560080FFA12020110E00000000808080800014
:10076600000E112020A0FF80808080008080800005
:1007760020203F2120000100000080808080800032
:100786000033242424241900008080E080800000A7
:100796000000001F202000008080000000808000F4
:1007A600001F202020103F20808080000080808055
:1007B60000010E30080601008080008000808080E5
:1007C6000F300C030C300F0000808000808080000A
:1007D6000020312E0E312000808080000080808035
:1007E60080818E70180601000080808080808000E5
:1007F6000021302C2221300000000000807C020203
:1008060000000000003F404000000000FF00000024
:1008160000000000FF0000000002027C80000000D3
:100826000040403F000000000006010102020404EF
:10083600000000000000000088C8B88FE888882003
:100846001C0BE80808180800000000000000000063
:10085600000000000000000008080808FF0484608B
:100866001806010618E04000000000000000000025
:1008760000000000000000004020F80F82601E14F7
:1008860010FF101010100000000000000000000013
:1008960000000000000000000000FF00010101014F
:1008A60001FF01010101010000000000000000003D
:1008B60000000000000000004041CE04008040BE61
:1008C600828282BEC040400000000000000000009E
:1008D600000000000000000000007F2090804043E0
:1008E6002C10102C43C04000000000000000000047
:1008F600000000000000000020212EE4000020205F
:100906002020FF2020202000000000000000000022
:1009160000000000000000000000007F201008001A
:100926000000FF00000000000000000000000000C2
:1009360000000000000000000000FC84848484FCA9
:1009460084848484FC000000000000000000000095
:10095600000000000000000000007F101010101FB3
:10096600101010107F0000000000000000000000C2
:1009760000000000000000001010FF101000F98AAF
:10098600AEC8F8CCAB8AF8000000000000000000FA
:10099600000000000000000008180F04040000FE1C
:1009A6004A4A4A4A4AFE00000000000000000000D1
:1009B6000000000000000000000000FC94949596E2
:1009C6009494FC00000000000000000000000000FD
:1009D6000000000000000000000040FF402003046B
:1009E6000814222340C04000000000000000000060
:1009F600000000000000000000100C044CB4940538
:100A0600F6040404140C04000000000000000000BA
:100A16000000000000000000008282424223120A09
:100A2600070A12E242020200000000000000000075
:100A360000000000000000000831866000FE02F29F
:100A460002FE00F80000FF000000000000000000A9
:100A5600000000000000000004FC03008047300F87
:100A66001067000740807F000000000000000000C3
:100A7600000000000000000010218670007E4A4A37
:100A86004A4A4A7E00000000000000000000000004
:100A9600000000000000000002FE01407F41417F8F
:100AA60041417F41417F40000000000000000000FE
:100AB60000000000000000000000FC042424FCA547
:100AC600A6A4FC242424040000000000000000006A
:100AD600000000000000000080601F808042462A5F
:100AE60012122A2642C0400000000000000000004A
:100AF60000000000000000004020100CE32222222B
:100B0600FE22222222020000000000000000000057
:100B160000000000000000000404040407040404AC
:100B2600FF040404040404000000000000000000A8
:100B360000000000000000000000000000FF11118E
:100B4600111111FF0000000000000000000000006D
:100B56000000000000000000004020100C0301010E
:100B66000121413F000000000000000000000000DD
:100B76000000000000000000000000FE4242424269
:100B8600424242FE0000000000000000000000009B
:100B960000000000000000000000003F10101010D0
:100BA6001010103F000000000000000000000000D0
:100BB600000000000000000000FC444444FC1090CB
:100BC600101010FF101010000000000000000000C0
:100BD60000000000000000000007040404070000F5
:100BE6000340807F000000000000000000000000BD
:100BF600000000000000000080402098878280806E
:100C06008384983060C040000000000000000000AF
:100C1600000000000000000000804020100F0000CF
:100C260020403F000000000000000000000000001F
:100C360000000000000000001212D2FE9111C03820
:100C46001000FF0008106000000000000000000017
:100C56000000000000000000040300FF0083804045
:100C660040202310080403000000000000000000DC
:080C7600000000000000000076
:10159700F583E5822524F582E43583F583E493FF1B
:1015A7007E007D017C00227E00EFC3940874809446
:1015B700802275F010E530A42531F582E435F0F589
:1015C70083E58222C394807480948022EF24B0FF45
:1015D700EE33FEE4FDFC22E4FDFC7F10FE22E5294C
:1015E7008527F0A42521FF22C3E524941074809455
:0215F700802250
:101AA7008F35121B3F7F78121951E4FF121951AF7E
:071AB70035121951021B302A
:101ABE008F35121B3F7F781219517F40121951AF8B
:071ACE0035121951021B3013
:101AFF008E338F34ED4C6003021ABEAF34121AA727
:011B0F0022B3
:1010A1007FAE121136FFFE121AFF7F101211367F2A
:1010B10040FE121AFF7FB01211417F81FE121AFF0A
:1010C1007FFF1211417FA1FE121AFF7FA612114C60
:1010D1007FA8FE121AFF7F3F12114C7FC8FE121A21
:1010E100FF7FD3121157FFFE121AFF7FD51211573E
:1010F1007F80FE121AFF7FD81211627F05FE121A3D
:10110100FF7FD91211627FF1FE121AFF7FDA1211ED
:101111006D7F12FE121AFF7FDB12116D7F301211EB
:10112100787F8D1211787F14FE121AFFE4FDFC7F87
:10113100AFFE021AFFE4FDFCFE121AFFE4FDFC22E1
:10114100E4FDFCFE121AFFE4FDFC22E4FDFCFE12AC
:101151001AFFE4FDFC22E4FDFCFE121AFFE4FDFC93
:1011610022E4FDFCFE121AFFE4FDFC22E4FDFCFE7C
:0F117100121AFFE4FDFC22FE121AFFE4FDFC221D
:101A4400E4FDFC7F8DFE121AFFE4FDFC7F14FE1200
:0B1A54001AFFE4FDFC7FAFFE021AFF4A
:101A5F00E4FDFC7F8DFE121AFF1215DE121AFFE451
:081A6F00FDFC7FAEFE021AFF30
:1017C000E4F521AF211215AE50301215D3121AFFD5
:1017D000E4FDFCFFFE121AFF1215DE121AFFE4F5FB
:1017E00022E5221215CB500E7D017C00E4FFFE1293
:0A17F0001AFF052280EB052180C9D5
:0117FA0022CC
:10178400E4F51EAF1E1215AE50311215D3121AFF16
:10179400E4FDFCFFFE121AFF1215DE121AFFE4F537
:1017A4001FE51F1215CB500F7D017C007F017E00C9
:0B17B400121AFF051F80EA051E80C806
:0117BF002207
:1018CD008F32ED24B0FFE433FEE4FDFC121AFFE588
:1018DD003254F0C4540F7E004410FFE4FDFC121A84
:0E18ED00FFE532540FFF7E00E4FDFC021AFFFF
:0413E7008F2C8D2D8D
:1013EB00E4F530F531EB24E0F530D3EF947F7480E6
:1013FB0094804007E4F52C052D052DE52F64107026
:10140B0048121481E5311215B150151215B9244E3D
:10141B00F582E58334021215A2121AFF053180E41E
:10142B00E52D04FDAF2C1218CDE4F531C3E53112D7
:10143B0015B250411215B92456F582E583340212C8
:10144B0015A2121AFF053180E3121481C3E5319402
:10145B000674809480501E75F006E530A42426F5A2
:10146B0082E5F03400F583E582253112159D121AC1
:05147B00FF053180D7E0
:0C14800022AD2DAF2C1218CDE4F5312266
:041A77008F2CA90502
:101A7B007F017E00AD0119ED6009AD2C7C001212C7
:031A8B00B980F12E
:011A8E002235
:081518008F218D228A238B2410
:10152000E4F52BE52664107008752908752A1080EB
:1015300006752906752A08E4F527E527C395255081
:1015400055C3E525952714FD7F0A121A77AC23AD04
:1015500024CFCDCFCECCCE1212CB7C007D0A12127E
:10156000CB8D28E52B701BE52514FFE527C39F5085
:1015700011E528700A1215E5852A2F7B20800E754B
:101580002B011215E5E5282430FB852A2FAD221208
:0615900013E7052780A40B
:011596002232
:0A15F9008F218D228B238A2489257F
:10160300E4F529E52664107008752808752710800D
:1016130006752806752708AB23AA24A925852982E0
:10162300758300121258FB602785272FAD22AF2147
:101633001213E7E5282521F521C374789528FFE5E2
:1016430021D39F4007E4F52105220522052980C700
:011653002274
:061654008F218D228B2383
:10165A00E4F5251218CDE4F5241215EF501A75F0A9
:10166A0040E523A4243EF582E5F0340812159712CA
:10167A001AFF0525052480E1E52204FDAF21121891
:10168A00CDE4F5241215EF501A75F040E523A42491
:10169A005EF582E5F03408121597121AFF05250542
:0316AA002480E1B8
:0116AD00221A
:0816AE008F218B228A2389247D
:1016B600E4F525F5268D28C3E5281215B25038AD78
:1016C60028AF211218CD852127C3E5271215CC5046
:1016D60022AB22AA23A9240526E526AE25700205FB
:1016E6002514F5828E831212581215A6121AFF05BA
:0716F6002780D6052880C003
:0116FD0022CA
:101B1000AE071FEE600A000000000000000080F029
:011B200022A2
:101AD500C2B77F32121B10D2B77F06121B1030B768
:061AE500FD7F32021B1020
:02192800AD0709
:10192A007B01EBD3940874809480501AED139200D3
:10193A00EDC313FDC2B70000A20092B77F06121BC7
:06194A0010D2B70B80DC97
:011950002274
:10189C007C01ECD39408748094805022C2B7000071
:1018AC00D2B70000A2B7E433FB7F06121B10EBC4C7
:1018BC003333335480FFEDC3134FFD0C80D4AF058D
:0118CC0022F9
:1018FB00121AD57FCC1219287F44121928121AD527
:10190B007FCC1219287FBE12192812189CAA071215
:0C191B00189CEFFE7C00E42AFFEC3EFE6E
:01192700229D
:101AEB00D394067480948022EF121285740129F925
:041AFB00E43AFA22AD
:100003007E01EED39408748094805013EF13920012
:0F001300A2009284C283D283EFC313FF0E80E357
:0100220022BB
:10197A007E01EED39408748094805018D283C28377
:10198A00A284E433FDC43333335480FCEFC3134CD5
:04199A00FF0E80DEDE
:01199E002226
:0F1B2100D285120003AF05120003C285C28322D2
:0A1B5800D28512000312197AC2852B
:011B62002260
:06186A008B368A37893835
:10187000D2857FBE120003E4FDED121AEB5015ABCA
:1018800036AA37A9388D82758300121258FF1200CC
:0B189000030D80E5E4FF120003C28599
:01189B00222A
:101A0600D2857FBF120003E4F539D3E539121AEC0B
:0E1A1600500A12197A121AF3053980EEC285B1
:011A2400229F
:061835008B218A228923A9
:10183B00C285C283E4FD7F8E121B21E4FCEC121ADD
:10184B00EB501BEC25E02480FFAB21AA22A9238CB3
:0E185B0082758300121258FD121B210C80DFD3
:01186900225C
:1019E500C285C283E4F524D3E524121AEC5011E52F
:1019F5002425E02481FF121B58121AF3052480E7E1
:011A050022BE
:0A1B6300121B53C2A1EEC313FE22B1
:071B4C00D2B6121B53D2A117
:051B530000000000226B
:0D1B3F00C2A1121B4CC2B6121B53C2A12240
:0F1B3000C2A1C2B6121B4ED2B6121B53C2A122C3
:101951007E80EE60115F7004C2B68002D2B6121BA7
:101961004E121B6680ECD2B6121B53D2A1A2B692C4
:0819710000121B53C2A1A200E9
:01197900224B
:1019C300D2B67E80EE6015121B53D2A120B605F469
:1019D30052078003EE4207121B6380E8121B4CC2BE
:0119E300A162
:0119E40022E0
:10199F00D2B67E80EE6015121B53D2A120B605F48D
:1019AF0052078003EE4207121B6380E8C2B6121B78
:0319BF004EC2A174
:0119C2002202
:03002300021A2599
:101A2500C0E0C0D075D000C00730980CC298AF99FF
:0F1A3500EF6455700343E760D007D0D0D0E032A4
:101A8F00759850E4F587758920758BFD758DFDC2AE
:081A9F00ABD28ED2ACD2AF2213
:031B6D00021A8FCA
:0300000002148C5B
:0C148C00787FE4F6D8FD7581390214D396
:10125800BB010CE58229F582E5833AF583E022504B
:1012680006E92582F8E622BBFE06E92582F8E22295
:0D127800E58229F582E5833AF583E49322AF
:10128500BB010689828A83F0225002F722BBFE0148
:02129500F32242
:10129700F8BB010DE58229F582E5833AF583E8F08D
:1012A700225006E92582C8F622BBFE05E92582C839
:0212B700F22221
:1012B900EF8DF0A4A8F0CF8CF0A428CE8DF0A42E49
:0212C900FE2203
:1012CB00BC000BBE0029EF8DF084FFADF022E4CC07
:1012DB00F875F008EF2FFFEE33FEEC33FCEE9DECD0
:1012EB00984005FCEE9DFE0FD5F0E9E4CEFD22ED16
:1012FB00F8F5F0EE8420D21CFEADF075F008EF2F60
:10130B00FFED33FD4007985006D5F0F222C398FD50
:05131B000FD5F0EA22ED
:10149800021320E493A3F8E493A34003F68001F237
:1014A80008DFF48029E493A3F85407240CC8C33355
:1014B800C4540F4420C8834004F456800146F6DF24
:1014C800E4800B0102040810204080901748E47E55
:1014D800019360BCA3FF543F30E509541FFEE49319
:1014E800A360010ECF54C025E060A840B8E493A3E0
:1014F800FAE493A3F8E493A3C8C582C8CAC583CA0B
:10150800F0A3C8C582C8CAC583CADFE9DEE780BEC2
:011783000065
:00000001FF
