:1009BE000000000000000000000000000000000029
:1009CE000000000000000000000000000000000019
:1009DE000000000000000000000000000000000009
:1009EE0000000000000000000000000000000000F9
:1009FE0000000000000000000000000000000000E9
:100A0E0000000000000000000000000000000000D8
:100A1E0000000000000000000000000000000000C8
:100A2E0000000000000000000000000000000000B8
:100A3E0000000000000000000000000000000000A8
:100A4E000000000000000000000000000000000098
:100A5E000000000000000000000000000000000088
:100A6E000000000000000000000000000000000078
:100A7E000000000000000000000000000000000068
:100A8E000000000000000000000000000000000058
:100A9E000000000000000000000000000000000048
:100AAE000000000000000000000000000000000038
:100ABE000000000000000000000070202020202018
:100ACE0020606060E0C0C0800000000070E0C000E8
:100ADE000000000000000000C0E0700000000000F8
:100AEE000070E08000000000000000000000000028
:100AFE0080E0F0F0000000000000000080C0E06028
:100B0E006030303030307060E0C000000000000017
:100B1E00F0E000000000000000000000000000F007
:100B2E00E0000000000000000000000000000000D7
:100B3E000000000000000000008080800000000027
:100B4E00000080C0C0E17F3F000000000000030FE6
:100B5E001E78E0C0E0783C0F0301000000000000AA
:100B6E00808001030E3C70C080000080E0703C0F5E
:100B7E000303FFFF0000000000F8FE0F030100005A
:100B8E000000000000000000000000000000000057
:100B9E00FFFF00000000000000000000000000FF4A
:100BAE00FF00000000000000000000000000000038
:100BBE00000000000000000000FFFFFF000000002A
:100BCE000000071F3CF0E080000000000000000065
:100BDE000000C7C7CF0000000000000000000000AA
:100BEE00FFFF0000000000010306060301000000E5
:100BFE000000FFFF0000000000071F3C70E0C0C0B7
:100C0E008080800000808080C0C000000000000056
:100C1E003F7FF0C08080800000008080C0E07C3F7D
:100C2E000F000000000000000000000000000000A7
:100C3E0000000000000000000001010100000000A3
:100C4E000000000000000101010000000000000093
:100C5E000000010101000000000000000000000083
:100C6E000101000000000000000000000000000074
:100C7E000000010100000000000000000000000163
:100C8E000101030303010101010000000000000047
:100C9E000000000101010103030101010100000038
:100CAE000000000000000000000000000000000036
:100CBE000000000000000000000000000000000026
:100CCE000000000000000000000000000000000016
:100CDE000000000000000000000000000000000006
:100CEE0000000000000000000000000000000000F6
:100CFE0000000000000000000000000000000000E6
:100D0E0000000000000000000000000000000000D5
:100D1E0000000000000000000000000000000000C5
:100D2E0000000000000000000000000000000000B5
:100D3E0000000000000000000000000000000000A5
:100D4E000000000000000000000000000000000095
:100D5E000000000000000000000000000000000085
:100D6E000000000000000000000000000000000075
:100D7E000000000000000000000000000000000065
:100D8E000000000000000000000000000000000055
:100D9E000000000000000000000000000000000045
:100DAE000000000000000000000000000000000035
:100DBE000000000000000000000000000000000025
:100DCE000000000000000000000000000000000015
:100DDE000000000000000000000000000000000005
:100DEE0000000000808080C0C0C0C0C0C0C0C0C0B5
:100DFE00C0808080000000000000000000000000A5
:100E0E0000000000000000000000000000000000D4
:100E1E0000000000000000000000000000000000C4
:100E2E0000000000000000000000000000000000B4
:100E3E0000000000000000000000000000000000A4
:100E4E000000000000000000000000000000000094
:100E5E000000000000000000000080E0E070381C80
:100E6E000E0E07070707030303030303030303031E
:100E7E00030307070F0F1F1E3E7CF8F0E0E0800013
:100E8E000000000000000000000000000000000054
:100E9E000000000000000000000000000000000044
:100EAE000000000000000000000000000000000034
:100EBE000000000000000000000000000000000024
:100ECE000000000000000000000000000000000014
:100EDE00000000000080F0F83E0F07010000000047
:100EEE000000000018181818181838383878F8F05C
:100EFE00C00000000000000000000001030F3FFFD3
:100F0E00FEF8C0000000000000000000000000001D
:100F1E0000000000000000000000000000000000C3
:100F2E0000000000000000000000000000000000B3
:100F3E0000000000000000000000000000000000A3
:100F4E000000000000000000000000000000000093
:100F5E0000000000FCFFFF01000000000000000088
:100F6E0000000000FCFCFC00000070F8FCFE9F0F6F
:100F7E00070000C0E0E0600000000000000000017B
:100F8E00FFFFFFFEE0000000000000000000000078
:100F9E000000000000000000000000000000000043
:100FAE000000000000000000000000000000000033
:100FBE000000000000000000000000000000000023
:100FCE000000000000000000000000000000000013
:100FDE00000000000FFFFFF880000000000000007E
:100FEE00000000000707070000000001030F1FFEAE
:100FFE00FCFE3F0F0701000000000000000080F023
:10100E00FFFF3F3F0700000000000000000000004F
:10101E0000000000000000000000000000000000C2
:10102E0000000000000000000000000000000000B2
:10103E0000000000000000000000000000000000A2
:10104E000000000000000000000000000000000092
:10105E00000000000000030F1F3F7CF8F0E08080CE
:10106E000000000000000000000000000000001E54
:10107E001E1E00000000000080C0E0F0F8BE1F073A
:10108E00030000000000000000000000000000004F
:10109E000000000000000000000000000000000042
:1010AE000000000000000000000000000000000032
:1010BE000000000000000000000000000000000022
:1010CE000000000000000000000000000000000012
:1010DE0000000000000000000000000001030307F4
:1010EE00070E0E0C1C18383838303030303030388F
:1010FE003838181C1C1E0E0F0707030301000000D2
:10110E0000000000000000000000000000000000D1
:10111E0000000000000000000000000000000000C1
:10112E0000000000000000000000000000000000B1
:10113E0000000000000000000000000000000000A1
:10114E000000000000000000000000000000000091
:10115E000000000000000000000000000000000081
:10116E000000000000000000000000000000000071
:10117E000000000000000000000000000000000061
:10118E000000000000000000000000000000000051
:10119E000000000000000000000000000000000041
:1011AE000000000000000000000000000000000031
:0711BE00565823010602212F
:101943004A001700000000000000000000470021CB
:10195300000000000000005700000000000000002D
:101963000000000000000000000000000000000074
:011973000073
:1018D400FFC4540F24301213BBEF540F243022E5FD
:1018E4000BC4F854F0C868FEE50CC4540F48FF7CE0
:1018F400007D0A0213EFE0FFC4540F243022ED24CC
:0A19040030AB08AA09A90A0213BBC0
:101B4F00D3EF9400EE940040147D4E7C00ED1D7099
:0D1B5F00011CED4C70F7EF1F70E61E80E3D7
:011B6C002256
:10145000E4F5A0D286C286121C967BFF7A1179BE73
:1014600012190E1211C5121899121B6D7A0979BE44
:101470001215011218997B017D037F161218197B32
:10148000027D037F261218197B037D037F36121815
:10149000197B047D037F461218197B057D037F5657
:1014A0001218197FD07E07121B4F7A0D79BE1215C4
:1014B000011218997B017A0079171217CF7B017AF4
:1014C0000079001212A47B017A007917750D107D46
:1014D000017F28121724E4FB7D017F4B1218197B32
:1014E000017A007900750D087D057F231217247B92
:1014F000017A00790B750D107D067F141217248078
:10150000B37BFFE4FDFF12177F7FD07E07121B4FD6
:0115100022B8
:0617CF008B088A09890A5B
:1017D500121A068E0B8F0C1218E3EF2430AB08AAF1
:1017E50009A90A1213A91218E3900001121902900F
:1017F5000002742E1213BBAE0BE50C7803CEC31397
:10180500CE13D8F91218F2900003121902900004B1
:04181500E40213BB1B
:1012A4008B088A09890A7B017A007921121AF0AB2A
:1012B40008AA09A90A74321213A9AB08AA09A90A2F
:1012C40090000174301213BB900027E090000212CA
:1012D40018D49000031213BB900004742D1213BB96
:1012E400900025E09000051218D49000061213BB5C
:1012F400900007742D1213BB9000241218FA90006A
:10130400081218DA9000091213BB90000AE41213B1
:10131400BB9000231218FA90000B1218DA90000CFC
:101324001213BB90000D743A1213BB9000221218D2
:10133400FA90000E1218DA90000F1213BB900010EE
:10134400743A1213BB9000211218FA90001112186B
:10135400DA9000121213BB90001374201213BB9086
:1013640000261218FA9000141218DA9000151213BD
:08137400BB900016E40213BB5C
:100026000000000000000000002F00000000070094
:10003600070000147F147F1400242A7F2A1200620E
:1000460064081323003649552250000005030000BA
:1000560000001C224100000041221C000014083E42
:1000660008140008083E0808000000A06000000808
:10007600080808080000606000000020100804025C
:10008600003E5149453E0000427F4000004261511A
:100096004946002141454B31001814127F100027B4
:1000A60045454539003C4A49493000017109050377
:1000B60000364949493600064949291E00003636A8
:1000C600000000005636000000081422410000140B
:1000D60014141414000041221408000201510906E8
:1000E60000324959513E007C1211127C007F494969
:1000F6004936003E41414122007F4141221C007F9A
:1001060049494941007F09090901003E4149497AA7
:10011600007F0808087F0000417F41000020404121
:100126003F01007F08142241007F40404040007F8D
:10013600020C027F007F0408107F003E4141413ED1
:10014600007F09090906003E4151215E007F091919
:1001560029460046494949310001017F0101003F16
:100166004040403F001F2040201F003F4038403F96
:1001760000631408146300070870080700615149FA
:10018600454300007F41410000552A552A5500008D
:1001960041417F000004020102040040404040400B
:1001A600000001020400002054545478007F4844A3
:1001B600443800384444442000384444487F0038DA
:1001C6005454541800087E0901020018A4A4A47C03
:1001D600007F080404780000447D400000408084CD
:1001E6007D00007F102844000000417F4000007C15
:1001F60004180478007C0804047800384444443821
:1002060000FC242424180018242418FC007C08046C
:10021600040800485454542000043F444020003C45
:100226004040207C001C2040201C003C4030403CCC
:10023600004428102844001CA0A0A07C004464545C
:100246004C441414141414140000000000000000A0
:100256000000000000000000000000F800000000A0
:10026600000000333000000000100C06100C0600E1
:10027600000000000000000040C07840C078400048
:10028600043F04043F040400007088FC08300000AA
:10029600001820FF211E0000F008F000E018000002
:1002A60000211C031E211E0000F0088870000000BB
:1002B6001E2123241927211010160E00000000000D
:1002C6000000000000000000000000E0180402002A
:1002D600000000071820400000020418E00000009B
:1002E6000040201807000000404080F08040400099
:1002F6000202010F01020200000000F000000000EF
:100306000101011F010101000000000000000000C2
:1003160080B0700000000000000000000000000037
:1003260000010101010101010000000000000000C0
:10033600003030000000000000000000806018045B
:10034600006018060100000000E010080810E00038
:10035600000F102020100F00001010F80000000001
:100366000020203F20200000007008080888700048
:1003760000302824222130000030088888483000C8
:100386000018202020110E000000C02010F80000E8
:1003960000070424243F240000F808888808080081
:1003A6000019212020110E0000E010888818000096
:1003B600000F112020110E0000380808C838080068
:1003C6000000003F000000000070880808887000E8
:1003D600001C222121221C0000E010080810E00069
:1003E6000000312222110F00000000C0C0000000F2
:1003F6000000003030000000000000800000000017
:10040600000080600000000000008040201008000E
:1004160000010204081020004040404040404000D7
:1004260004040404040404000008102040800000B2
:100436000020100804020100007048080808F000B7
:100446000000003036010000C030C828E810E00087
:100456000718272423140B000000C038E000000012
:10046600203C23020227382008F88888887000007C
:10047600203F202020110E00C03008080808380050
:10048600071820202010080008F808080810E000C7
:10049600203F202020100F0008F88888E808100068
:1004A600203F20202320180008F88888E80810003C
:1004B600203F200003000000C03008080838000074
:1004C60007182020221E020008F808000008F80875
:1004D600203F210101213F20000808F808080000FC
:1004E6000020203F2020000000000808F80808002F
:1004F600C08080807F00000008F888C028180800A7
:10050600203F20012638200008F8080000000000DF
:10051600203F20202020300008F8F800F8F80800D6
:10052600203F003F003F200008F830C00008F808D0
:10053600203F200007183F00E01008080810E000E0
:100546000F10202020100F0008F808080808F000F7
:10055600203F210101010000E01008080810E0001A
:100566000F18242438504F0008F8888888887000AF
:10057600203F2000030C302000708808080838004F
:100586000038202121221C00180808F80808180045
:100596000000203F2000000008F808000008F808C6
:1005A600001F202020201F000878880000C8380877
:1005B600000007380E010000F80800F80008F800EF
:1005C600033C0700073C0300081868808068180889
:1005D60020302C03032C30200838C800C838080007
:1005E6000000203F2000000010080808C838080056
:1005F6002038262120201800000000FE02020200FA
:100606000000007F40404000000C30C000000000A9
:10061600000000010638C00000020202FE000000D1
:10062600004040407F000000000004020202040077
:1006360000000000000000000000000000000000B4
:10064600808080808080808000020204000000009C
:100656000000000000000000000080808080000094
:100666000019242222223F2008F800808000000082
:10067600003F112020110E00000000808080000045
:10068600000E112020201100000000808088F80054
:10069600000E112020103F20000080808080000086
:1006A600001F222222221300008080F088888818EA
:1006B6000020203F202000000000808080808000F5
:1006C600006B94949493600008F80080808000008A
:1006D600203F210000203F20008098980000000065
:1006E6000020203F20200000000000809898000095
:1006F60000C08080807F000008F8000080808000B5
:10070600203F24022D302000000808F800000000D9
:100716000020203F20200000808080808080800094
:10072600203F20003F20003F808000808080000026
:10073600203F210000203F200000808080800000B4
:10074600001F202020201F008080008080000000E5
:1007560080FFA12020110E00000000808080800014
:10076600000E112020A0FF80808080008080800005
:1007760020203F2120000100000080808080800032
:100786000033242424241900008080E080800000A7
:100796000000001F202000008080000000808000F4
:1007A600001F202020103F20808080000080808055
:1007B60000010E30080601008080008000808080E5
:1007C6000F300C030C300F0000808000808080000A
:1007D6000020312E0E312000808080000080808035
:1007E60080818E70180601000080808080808000E5
:1007F6000021302C2221300000000000807C020203
:1008060000000000003F404000000000FF00000024
:1008160000000000FF0000000002027C80000000D3
:100826000040403F000000000006010102020404EF
:100836000000000000000000000C120C00C0701048
:100846000808080810300000000000000000000042
:10085600000000000000000000000000000F18303B
:1008660020202020301C00000000000000000000B6
:10087600000000000000000000020202028242F2B4
:100886000E4282020202000000000000000000008A
:10089600000000000000000010080402010000FF34
:1008A60000000001020C0000000000000000000033
:1008B6000000000000000000000000FE020202F23C
:1008C600020202FE0000000000000000000000001E
:1008D600000000000000000080804047201806014C
:1008E6007E8080878080E00000000000000000001D
:1008F600000000000000000000020202028242F234
:100906000E42820202020000000000000000000009
:10091600000000000000000010080402010000FFB3
:1009260000000001020C00000000000000000000B2
:10093600000000000000000020A4BFA4A4BFA42063
:1009460080708F0808F80800000000000000000012
:10095600000000000000000000FF0A0A4A8A7F002B
:100966008040330C3340800000000000000000008F
:100976000000000000000000000000FE0000000073
:100986000000000000000000000000000000000061
:10099600000000000000000000000033000000001E
:1009A6000000000000000000000000000000000041
:0809B600000000000000000039
:1016BC0075F040E50A121444E582250BF582E435F9
:1016CC0083F583E493FF7E007D017C00227E00EF96
:1016DC00C39408748094802275F010E515A4251627
:1016EC00F582E435F0F583E58222C394807480940E
:1016FC008022EF24B0FFEE33FEE4FDFC22E4FDFC7F
:10170C007F10FE22E5298527F0A42521FF22C3E5C1
:08171C000B94107480948022EC
:101BD0008F1A121C687F78121A5CE4FF121A5CAF2D
:071BE0001A121A5C021C59E5
:101BE7008F1A121C687F78121A5C7F40121A5CAF3A
:071BF7001A121A5C021C59CE
:101C28008E188F19ED4C6003021BE7AF19121BD0F9
:011C38002289
:1011C5007FAE12125AFFFE121C287F1012125A7F90
:1011D50040FE121C287FB01212657F81FE121C286A
:1011E5007FFF1212657FA1FE121C287FA6121270C6
:1011F5007FA8FE121C287F3F1212707FC8FE121CAA
:10120500287FD312127BFFFE121C287FD512127B7A
:101215007F80FE121C287FD81212867F05FE121CC5
:10122500287FD91212867FF1FE121C287FDA12124E
:10123500917F12FE121C287FDB1212917F30121251
:101245009C7F8D12129C7F14FE121C28E4FDFC7FEE
:10125500AFFE021C28E4FDFCFE121C28E4FDFC2266
:10126500E4FDFCFE121C28E4FDFC22E4FDFCFE125C
:101275001C28E4FDFC22E4FDFCFE121C28E4FDFC18
:1012850022E4FDFCFE121C28E4FDFC22E4FDFCFE2C
:0F129500121C28E4FDFC22FE121C28E4FDFC22A2
:101B6D00E4FDFC7F8DFE121C28E4FDFC7F14FE12AB
:0B1B7D001C28E4FDFC7FAFFE021C28CA
:101B8800E4FDFC7F8DFE121C28121709121C28E4A4
:081B9800FDFC7FAEFE021C28DB
:10189900E4F508AF081216D950301216FE121C28AA
:1018A900E4FDFCFFFE121C28121709121C28E4F59E
:1018B90009E5091216F6500E7D017C00E4FFFE12BF
:0A18C9001C28050980EB050880C902
:0118D30022F2
:10185D00E4F51EAF1E1216D950311216FE121C28B9
:10186D00E4FDFCFFFE121C28121709121C28E4F5DA
:10187D001FE51F1216F6500F7D017C007F017E00C3
:0B188D00121C28051F80EA051E80C801
:01189800222D
:1019D8008F17ED24B0FFE433FEE4FDFC121C28E56C
:1019E8001754F0C4540F7E004410FFE4FDFC121C91
:0E19F80028E517540FFF7E00E4FDFC021C28BA
:041511008F118D1297
:10151500E4F515F516EB24E0F515D3EF947F74800B
:1015250094804007E4F51105120512E51464107066
:10153500481215A6E5161216DC50151216E4244EAF
:10154500F582E58334021216CD121C28051680E4B7
:10155500E51204FDAF111219D8E4F516C3E516120C
:1015650016DD503C1216E42456F582E5833402124A
:1015750016CD121C28051680E31215A6C3E5169490
:101585000674809480501975F006E51590002612B2
:101595001444E58225161216C8121C28051680DC8F
:0C15A50022AD12AF111219D8E4F5162285
:041BA0008F2CA905D8
:101BA4007F017E00AD0119ED6009AD2C7C0012139C
:031BB400DD80F1E0
:011BB700220B
:08163D008F218D228A238B24EA
:10164500E4F52BE52664107008752908752A1080C5
:1016550006752906752A08E4F527E527C39525505B
:1016650055C3E525952714FD7F0A121BA0AC23ADB4
:1016750024CFCDCFCECCCE1213EF7C007D0A121332
:10168500EF8D28E52B701BE52514FFE527C39F503B
:1016950011E528700A121710852A147B20800E7513
:1016A5002B01121710E5282430FB852A14AD2212D0
:0616B5001511052780A4B9
:0116BB00220C
:0A1724008F088D098B0A8A0B890CCF
:10172E00E4F510E50D64107008750F08750E108045
:10173E0006750F06750E08AB0AAA0BA90C8510824A
:10174E0075830012137CFB6027850E14AD09AF085C
:10175E00121511E50F2508F508C37478950FFFE5EE
:10176E0008D39F4007E4F50805090509051080C751
:01177E002248
:061819008F088D098B0A07
:10181F00E4F50C1219D8E4F50B12171A500F9008B3
:10182F003E1216BC121C28050C050B80ECE50904B2
:10183F00FDAF081219D8E4F50B12171A500F9008C4
:0D184F005E1216BC121C28050C050B80EC67
:01185C002269
:08177F008F088B098A0A890B0F
:10178700E4F50CF50D8D0FC3E50F1216DD5038ADDE
:101797000FAF081219D885080EC3E50E1216F750B9
:1017A70022AB09AA0AA90B050DE50DAE0C700205BF
:1017B7000C14F5828E8312137C1216D1121C280585
:0717C7000E80D6050F80C063
:0117CE0022F8
:101C3900AE071FEE600A000000000000000080F0FF
:011C49002278
:101BFE00C2B77F32121C39D2B77F06121C3930B7EA
:061C0E00FD7F32021C39CB
:021A3300AD07FD
:101A35007B01EBD3940874809480501AED139200C7
:101A4500EDC313FDC2B70000A20092B77F06121CBA
:061A550039D2B70B80DC62
:011A5B002268
:1019A7007C01ECD39408748094805022C2B7000065
:1019B700D2B70000A2B7E433FB7F06121C39EBC491
:1019C7003333335480FFEDC3134FFD0C80D4AF0581
:0119D70022ED
:101A0600121BFE7FCC121A337F44121A33121BFEAE
:101A16007FCC121A337FBE121A331219A7AA0712E5
:0C1A260019A7EFFE7C00E42AFFEC3EFE56
:011A32002291
:101C1400D394067480948022EF1213A9740129F9D5
:041C2400E43AFA2282
:100003007E01EED39408748094805013EF13920012
:0F001300A2009284C283D283EFC313FF0E80E357
:0100220022BB
:101A85007E01EED39408748094805018D283C2836B
:101A9500A284E433FDC43333335480FCEFC3134CC9
:041AA500FF0E80DED2
:011AA900221A
:0F1C4A00D285120003AF05120003C285C28322A8
:0A1C8100D285120003121A85C285F5
:011C8B002236
:061975008B1B8A1C891D7A
:10197B00D2857FBE120003E4FDED121C145015AB93
:10198B001BAA1CA91D8D8275830012137CFF1200EC
:0B199B00030D80E5E4FF120003C2858D
:0119A600221E
:101B1100D2857FBF120003E4F52DD3E52D121C15EC
:0E1B2100500A121A85121C1C052D80EEC2857A
:011B2F002293
:06190E008B088A09890A1A
:10191400C285C283E4FD7F8E121C4AE4FCEC121CD7
:1019240014501BEC25E02480FFAB08AA09A90A8CFB
:0E1934008275830012137CFD121C4A0C80DFAA
:011942002282
:101AF000C285C283E4F50BD3E50B121C155011E52A
:101B00000B25E02481FF121C81121C1C050B80E7B1
:011B100022B2
:0A1C8C00121C7CC2A1EEC313FE225D
:071C7500D2B6121C7CD2A1C3
:051C7C00000000002241
:0D1C6800C2A1121C75C2B6121C7CC2A122C2
:0F1C5900C2A1C2B6121C77D2B6121C7CC2A12245
:101A5C007E80EE60115F7004C2B68002D2B6121C9A
:101A6C0077121C8F80ECD2B6121C7CD2A1A2B6923B
:081A7C0000121C7CC2A1A200B3
:011A8400223F
:101ACE00D2B67E80EE6015121C7CD2A120B605F433
:101ADE0052078003EE4207121C8C80E8121C75C25E
:011AEE00A156
:011AEF0022D4
:101AAA00D2B67E80EE6015121C7CD2A120B605F457
:101ABA0052078003EE4207121C8C80E8C2B6121C41
:031ACA0077C2A13F
:011ACD0022F6
:03002300021B308D
:101B3000C0E0C0D075D000C00730980CC298AF99F3
:0F1B4000EF6455700343E760D007D0D0D0E03298
:101BB800759850E4F587758920758BFD758DFDC284
:081BC800ABD28ED2ACD2AF22E9
:031C9600021BB876
:030000000215B135
:0C15B100787FE4F6D8FD75812D0215F856
:10137C00BB010CE58229F582E5833AF583E0225026
:10138C0006E92582F8E622BBFE06E92582F8E22270
:0D139C00E58229F582E5833AF583E493228A
:1013A900BB010689828A83F0225002F722BBFE0123
:0213B900F3221D
:1013BB00F8BB010DE58229F582E5833AF583E8F068
:1013CB00225006E92582C8F622BBFE05E92582C814
:0213DB00F222FC
:1013DD00EF8DF0A4A8F0CF8CF0A428CE8DF0A42E24
:0213ED00FE22DE
:1013EF00BC000BBE0029EF8DF084FFADF022E4CCE2
:1013FF00F875F008EF2FFFEE33FEEC33FCEE9DECAB
:10140F00984005FCEE9DFE0FD5F0E9E4CEFD22EDF0
:10141F00F8F5F0EE8420D21CFEADF075F008EF2F3A
:10142F00FFED33FD4007985006D5F0F222C398FD2B
:05143F000FD5F0EA22C8
:0C144400A42582F582E5F03583F58322B3
:1015BD00021450E493A3F8E493A34003F68001F2E0
:1015CD0008DFF48029E493A3F85407240CC8C3332F
:1015DD00C4540F4420C8834004F456800146F6DFFE
:1015ED00E4800B0102040810204080901943E47E32
:1015FD00019360BCA3FF543F30E509541FFEE493F3
:10160D00A360010ECF54C025E060A840B8E493A3B9
:10161D00FAE493A3F8E493A3C8C582C8CAC583CAE4
:10162D00F0A3C8C582C8CAC583CADFE9DEE780BE9C
:011974000072
:00000001FF
