:1014C7004E6562756C612D50692C52594D435520FC
:0914D700353120746573742100A5
:0A15C800011914010E0002160000C4
:10118F001215DE120D691212261214AC752D107B7A
:10119F0041E4FDFF120C7E752D087B427D02E4FFBA
:1011AF00120C7E752D107B437D04E4FF120C7E75AF
:1011BF002D107B447D06E4FF120C7E7BFF7A1479A1
:0C11CF00C7752608E4FDFF12109980FE91
:100026000000000000000000002F00000000070094
:10003600070000147F147F1400242A7F2A1200620E
:1000460064081323003649552250000005030000BA
:1000560000001C224100000041221C000014083E42
:1000660008140008083E0808000000A06000000808
:10007600080808080000606000000020100804025C
:10008600003E5149453E0000427F4000004261511A
:100096004946002141454B31001814127F100027B4
:1000A60045454539003C4A49493000017109050377
:1000B60000364949493600064949291E00003636A8
:1000C600000000005636000000081422410000140B
:1000D60014141414000041221408000201510906E8
:1000E60000324959513E007C1211127C007F494969
:1000F6004936003E41414122007F4141221C007F9A
:1001060049494941007F09090901003E4149497AA7
:10011600007F0808087F0000417F41000020404121
:100126003F01007F08142241007F40404040007F8D
:10013600020C027F007F0408107F003E4141413ED1
:10014600007F09090906003E4151215E007F091919
:1001560029460046494949310001017F0101003F16
:100166004040403F001F2040201F003F4038403F96
:1001760000631408146300070870080700615149FA
:10018600454300007F41410000552A552A5500008D
:1001960041417F000004020102040040404040400B
:1001A600000001020400002054545478007F4844A3
:1001B600443800384444442000384444487F0038DA
:1001C6005454541800087E0901020018A4A4A47C03
:1001D600007F080404780000447D400000408084CD
:1001E6007D00007F102844000000417F4000007C15
:1001F60004180478007C0804047800384444443821
:1002060000FC242424180018242418FC007C08046C
:10021600040800485454542000043F444020003C45
:100226004040207C001C2040201C003C4030403CCC
:10023600004428102844001CA0A0A07C004464545C
:100246004C441414141414140000000000000000A0
:100256000000000000000000000000F800000000A0
:10026600000000333000000000100C06100C0600E1
:10027600000000000000000040C07840C078400048
:10028600043F04043F040400007088FC08300000AA
:10029600001820FF211E0000F008F000E018000002
:1002A60000211C031E211E0000F0088870000000BB
:1002B6001E2123241927211010160E00000000000D
:1002C6000000000000000000000000E0180402002A
:1002D600000000071820400000020418E00000009B
:1002E6000040201807000000404080F08040400099
:1002F6000202010F01020200000000F000000000EF
:100306000101011F010101000000000000000000C2
:1003160080B0700000000000000000000000000037
:1003260000010101010101010000000000000000C0
:10033600003030000000000000000000806018045B
:10034600006018060100000000E010080810E00038
:10035600000F102020100F00001010F80000000001
:100366000020203F20200000007008080888700048
:1003760000302824222130000030088888483000C8
:100386000018202020110E000000C02010F80000E8
:1003960000070424243F240000F808888808080081
:1003A6000019212020110E0000E010888818000096
:1003B600000F112020110E0000380808C838080068
:1003C6000000003F000000000070880808887000E8
:1003D600001C222121221C0000E010080810E00069
:1003E6000000312222110F00000000C0C0000000F2
:1003F6000000003030000000000000800000000017
:10040600000080600000000000008040201008000E
:1004160000010204081020004040404040404000D7
:1004260004040404040404000008102040800000B2
:100436000020100804020100007048080808F000B7
:100446000000003036010000C030C828E810E00087
:100456000718272423140B000000C038E000000012
:10046600203C23020227382008F88888887000007C
:10047600203F202020110E00C03008080808380050
:10048600071820202010080008F808080810E000C7
:10049600203F202020100F0008F88888E808100068
:1004A600203F20202320180008F88888E80810003C
:1004B600203F200003000000C03008080838000074
:1004C60007182020221E020008F808000008F80875
:1004D600203F210101213F20000808F808080000FC
:1004E6000020203F2020000000000808F80808002F
:1004F600C08080807F00000008F888C028180800A7
:10050600203F20012638200008F8080000000000DF
:10051600203F20202020300008F8F800F8F80800D6
:10052600203F003F003F200008F830C00008F808D0
:10053600203F200007183F00E01008080810E000E0
:100546000F10202020100F0008F808080808F000F7
:10055600203F210101010000E01008080810E0001A
:100566000F18242438504F0008F8888888887000AF
:10057600203F2000030C302000708808080838004F
:100586000038202121221C00180808F80808180045
:100596000000203F2000000008F808000008F808C6
:1005A600001F202020201F000878880000C8380877
:1005B600000007380E010000F80800F80008F800EF
:1005C600033C0700073C0300081868808068180889
:1005D60020302C03032C30200838C800C838080007
:1005E6000000203F2000000010080808C838080056
:1005F6002038262120201800000000FE02020200FA
:100606000000007F40404000000C30C000000000A9
:10061600000000010638C00000020202FE000000D1
:10062600004040407F000000000004020202040077
:1006360000000000000000000000000000000000B4
:10064600808080808080808000020204000000009C
:100656000000000000000000000080808080000094
:100666000019242222223F2008F800808000000082
:10067600003F112020110E00000000808080000045
:10068600000E112020201100000000808088F80054
:10069600000E112020103F20000080808080000086
:1006A600001F222222221300008080F088888818EA
:1006B6000020203F202000000000808080808000F5
:1006C600006B94949493600008F80080808000008A
:1006D600203F210000203F20008098980000000065
:1006E6000020203F20200000000000809898000095
:1006F60000C08080807F000008F8000080808000B5
:10070600203F24022D302000000808F800000000D9
:100716000020203F20200000808080808080800094
:10072600203F20003F20003F808000808080000026
:10073600203F210000203F200000808080800000B4
:10074600001F202020201F008080008080000000E5
:1007560080FFA12020110E00000000808080800014
:10076600000E112020A0FF80808080008080800005
:1007760020203F2120000100000080808080800032
:100786000033242424241900008080E080800000A7
:100796000000001F202000008080000000808000F4
:1007A600001F202020103F20808080000080808055
:1007B60000010E30080601008080008000808080E5
:1007C6000F300C030C300F0000808000808080000A
:1007D6000020312E0E312000808080000080808035
:1007E60080818E70180601000080808080808000E5
:1007F6000021302C2221300000000000807C020203
:1008060000000000003F404000000000FF00000024
:1008160000000000FF0000000002027C80000000D3
:100826000040403F000000000006010102020404EF
:10083600000000000000000088C8B88FE888882003
:100846001C0BE80808180800000000000000000063
:10085600000000000000000008080808FF0484608B
:100866001806010618E04000000000000000000025
:1008760000000000000000004020F80F82601E14F7
:1008860010FF101010100000000000000000000013
:1008960000000000000000000000FF00010101014F
:1008A60001FF01010101010000000000000000003D
:1008B60000000000000000004041CE04008040BE61
:1008C600828282BEC040400000000000000000009E
:1008D600000000000000000000007F2090804043E0
:1008E6002C10102C43C04000000000000000000047
:1008F600000000000000000020212EE4000020205F
:100906002020FF2020202000000000000000000022
:1009160000000000000000000000007F201008001A
:100926000000FF00000000000000000000000000C2
:1009360000000000000000000000FC84848484FCA9
:1009460084848484FC000000000000000000000095
:10095600000000000000000000007F101010101FB3
:10096600101010107F0000000000000000000000C2
:1009760000000000000000001010FF101000F98AAF
:10098600AEC8F8CCAB8AF8000000000000000000FA
:10099600000000000000000008180F04040000FE1C
:1009A6004A4A4A4A4AFE00000000000000000000D1
:1009B6000000000000000000000000FC94949596E2
:1009C6009494FC00000000000000000000000000FD
:1009D6000000000000000000000040FF402003046B
:1009E6000814222340C04000000000000000000060
:1009F600000000000000000000100C044CB4940538
:100A0600F6040404140C04000000000000000000BA
:100A16000000000000000000008282424223120A09
:100A2600070A12E242020200000000000000000075
:100A360000000000000000000831866000FE02F29F
:100A460002FE00F80000FF000000000000000000A9
:100A5600000000000000000004FC03008047300F87
:100A66001067000740807F000000000000000000C3
:100A7600000000000000000010218670007E4A4A37
:100A86004A4A4A7E00000000000000000000000004
:100A9600000000000000000002FE01407F41417F8F
:100AA60041417F41417F40000000000000000000FE
:100AB60000000000000000000000FC042424FCA547
:100AC600A6A4FC242424040000000000000000006A
:100AD600000000000000000080601F808042462A5F
:100AE60012122A2642C0400000000000000000004A
:100AF60000000000000000004020100CE32222222B
:100B0600FE22222222020000000000000000000057
:100B160000000000000000000404040407040404AC
:100B2600FF040404040404000000000000000000A8
:100B360000000000000000000000000000FF11118E
:100B4600111111FF0000000000000000000000006D
:100B56000000000000000000004020100C0301010E
:100B66000121413F000000000000000000000000DD
:100B76000000000000000000000000FE4242424269
:100B8600424242FE0000000000000000000000009B
:100B960000000000000000000000003F10101010D0
:100BA6001010103F000000000000000000000000D0
:100BB600000000000000000000FC444444FC1090CB
:100BC600101010FF101010000000000000000000C0
:100BD60000000000000000000007040404070000F5
:100BE6000340807F000000000000000000000000BD
:100BF600000000000000000080402098878280806E
:100C06008384983060C040000000000000000000AF
:100C1600000000000000000000804020100F0000CF
:100C260020403F000000000000000000000000001F
:100C360000000000000000001212D2FE9111C03820
:100C46001000FF0008106000000000000000000017
:100C56000000000000000000040300FF0083804045
:100C660040202310080403000000000000000000DC
:080C7600000000000000000076
:101510008F331215AF7F78121397E4FF121397AF32
:07152000331213970215A01E
:101527008F331215AF7F781213977F40121397AF3F
:07153700331213970215A007
:06153E007F10E4FDFCFE3D
:101544008E318F32ED4C6003021527AF3212151025
:011554002274
:100D69007FAE121540E4FDFCFFFE12154412153E3C
:100D7900E4FDFC7F40FE121544E4FDFC7FB0FE1249
:100D89001544E4FDFC7F81FE121544E4FDFC7FFF60
:100D9900FE121544E4FDFC7FA1FE121544E4FDFC9E
:100DA9007FA6FE121544E4FDFC7FA8FE121544E45B
:100DB900FDFC7F3FFE121544E4FDFC7FC8FE1215C1
:100DC90044E4FDFC7FD3FE121544E4FDFCFFFE1252
:100DD9001544E4FDFC7FD5FE121544E4FDFC7F803B
:100DE900FE121544E4FDFC7FD8FE121544E4FDFC17
:100DF9007F05FE121544E4FDFC7FD9FE121544E47B
:100E0900FDFC7FF1FE121544E4FDFC7FDAFE1215AC
:100E190044E4FDFC7F12FE121544E4FDFC7FDBFE79
:100E2900121544E4FDFC7F30FE121544E4FDFC7FFD
:100E39008DFE121544E4FDFC7F14FE121544E4FDF9
:070E4900FC7FAFFE0215441F
:1014AC00E4FDFC7F8DFE121544E4FDFC7F14FE125E
:0B14BC001544E4FDFC7FAFFE02154468
:10156B00E4FDFC7F8DFE12154412153EE4FDFC7F5D
:05157B00AEFE02154464
:10122600E4F521AF217E00C3EF94087480948050CA
:1012360038EF24B0FFEE33FEE4FDFC121544E4FD66
:10124600FCFFFE12154412153EE4F522C3E5229476
:101256008074809480500E7D017C00E4FFFE1215A0
:0912660044052280E7052180BA4D
:01126F00225C
:1011DB00E4F51EAF1E7E00C3EF940874809480501C
:1011EB0039EF24B0FFEE33FEE4FDFC121544E4FDB1
:1011FB00FCFFFE12154412153EE4F51FC3E51F94C8
:10120B008074809480500F7D017C007F017E0012E2
:0A121B001544051F80E6051E80B98A
:0112250022A6
:101310008F30ED24B0FFE433FEE4FDFC121544E50C
:101320003054F0C4540F7E004410FFE4FDFC12154D
:0E13300044E530540FFF7E00E4FDFC0215443E
:021142008F4FCD
:10114400E4F550AF507E00C3EF940874809480504F
:1011540039EF24B0FFEE33FEE4FDFC121544E4FD48
:10116400FCFFFE12154412153EE4F551C3E55194FB
:101174008074809480500FAF4F7E007D017C0012FC
:0A1184001544055180E6055080B9BE
:01118E00223E
:040C7E008F2A8D2B01
:100C8200E4F52EF52FEB24E0F52ED3EF947F74805C
:100C920094804007E4F52A052B052BE52D641060AE
:100CA20003020D28AD2BAF2A121310E4F52FC3E572
:100CB2002F940874809480502B75F010E52EA42593
:100CC2002FF582E435F0F583E582244EF582E58343
:100CD2003402F583E493FF7E007D017C001215440B
:100CE200052F80CAE52B04FDAF2A121310E4F52F5D
:100CF200C3E52F940874809480506B75F010E52E34
:100D0200A4252FF582E435F0F583E5822456F58299
:100D1200E5833402F583E493FF7E007D017C0012BB
:100D22001544052F80CAAD2BAF2A121310E4F52FFC
:100D3200C3E52F940674809480502B75F006E52E3F
:100D4200A42426F582E5F03400F583E582252FF50B
:100D520082E43583F583E493FF7E007D017C0012FB
:060D62001544052F80CAB4
:010D68002268
:0414E0008F58A90573
:1014E4007F017E00AD0119ED6009AD587C00120E3C
:0314F4008F80F1F5
:0114F70022D2
:08100E008F348D358A368B37D3
:10101600E4F53EE53964107008753C08753D1080AE
:1010260006753C06753D08E4F53AE53AC395385031
:1010360061C3E538953A14FD7F0A1214E0AC36AD6B
:1010460037CFCDCFCECCCE120EA17C007D0A120EAC
:10105600A18D3BE53E7021E53814FFE53AC39F506C
:1010660017E53B7010E53C853AF0A42534FF853D35
:101076002D7B208014753E01E53C853AF0A425348D
:10108600FFE53B2430FB853D2DAD35120C7E053A40
:02109600809840
:011098002235
:0A1099008F218D228B238A248925E4
:1010A300E4F529E526641070087528087527108073
:1010B30006752806752708AB23AA24A92585298246
:1010C300758300120E50FB602785272DAD22AF21BB
:1010D300120C7EE5282521F521C374789528FFE5B8
:1010E30021D39F4007E4F52105220522052980C766
:0110F30022DA
:060EF6008F4A8D4B8B4C6E
:100EFC00E4F54E121310E4F54DC3E54D94107480D7
:100F0C009480502D75F040E54CA4243EF582E5F01C
:100F1C003408F583E582254DF582E43583F583E4C9
:100F2C0093FF7E007D017C00121544054E054D801B
:100F3C00C8E54B04FDAF4A121310E4F54DC3E54D63
:100F4C00941074809480502D75F040E54CA4245E70
:100F5C00F582E5F03408F583E582254DF582E4351C
:100F6C0083F583E493FF7E007D017C00121544051C
:050F7C004E054D80C888
:010F8100224D
:0410F4008F3F8B415E
:1010F800E4F546F5478D49E549C39542503BAD496E
:10110800AF3F121310853F48E548C395415026ABC1
:1011180043AA44A9450547E547AE4670020546146B
:10112800F5828E83120E50FF7E007D017C00121521
:0911380044054880D3054980BE3E
:01114100228B
:10158000AE071FEE600A000000000000000080F0BF
:011590002238
:10155500C2B77F32121580D2B77F0612158030B719
:06156500FD7F320215803B
:02141700AD071F
:101419007B01EBD3940874809480501AED139200E9
:10142900EDC313FDC2B70000A20092B77F061215E3
:0614390080D2B70B80DC3D
:01143F00228A
:1012DF007C01ECD39408748094805022C2B7000034
:1012EF00D2B70000A2B7E433FB7F06121580EBC420
:1012FF003333335480FFEDC3134FFD0C80D4AF0550
:01130F0022BB
:10133E001215557FCC1214177F441214171215551F
:10134E007FCC1214177FBE1214171212DFAA0712C7
:0C135E0012DFEFFE7C00E42AFFEC3EFEF4
:01136A002260
:100003007E01EED39408748094805013EF13920111
:0F001300A2019284C283D283EFC313FF0E80E356
:0100220022BB
:101468007E01EED39408748094805018D283C2838E
:10147800A284E433FDC43333335480FCEFC3134CEC
:04148800FF0E80DEF5
:01148C00223D
:0F159100D285120003AF05120003C285C2832268
:0A15D300D285120003121468C285CD
:0115DD0022EB
:0612A9008B528A538954A8
:1012AF00D2857FBE120003E4FDEDD39406748094C3
:1012BF00805015AB52AA53A9548D82758300120E1C
:0F12CF0050FF1200030D80E1E4FF120003C285FF
:0112DE0022ED
:1013C300D2857FBF120003E4F559D3E5599406741F
:1013D3008094805012121468EF120E7D740129F963
:0913E300E43AFA055980E3C285E1
:0113EC0022DE
:061270008B558A568957D8
:10127600C285C283E4FD7F8E121591E4FCECD39403
:101286000674809480501BEC25E02480FFAB55AAA1
:1012960056A9578C82758300120E50FD1215910CBB
:0212A60080DBEB
:0112A8002223
:10136B00C285C283E4F55AD3E55A940674809480FF
:10137B005019E55A25E02481FF1215D3EF120E7D8B
:0B138B00740129F9E43AFA055A80DCED
:011396002234
:0715BC00D2B61215C3D2A143
:0515C300000000002201
:0D15AF00C2A11215BCC2B61215C3C2A12202
:0F15A000C2A1C2B61215BED2B61215C3C2A12285
:101397007E80EE60145F7004C2B68002D2B612156A
:1013A700BEC2A1EEC313FE80E9D2B61215C3D2A105
:0B13B700A2B692021215C3C2A1A2024E
:0113C2002208
:10144000D2B67E80EE601B1215C3D2A120B605F481
:1014500052078003EE42071215C3C2A1EEC313FE6A
:0714600080E21215BCC2A1DD
:011467002262
:1013ED00D2B67E80EE601B1215C3D2A120B605F4D5
:1013FD0052078003EE42071215C3C2A1EEC313FEBE
:09140D0080E2C2B61215BEC2A1B4
:0114160022B3
:0300230002148D37
:10148D00C0E0C0D075D000C00730980CC298AF999D
:0F149D00EF6455700343E760D007D0D0D0E03242
:1014F800759850E4F587758920758BFD758DFDC24B
:08150800ABD28ED2ACD2AF22AF
:0315DE000214F8FC
:03000000020F826A
:0C0F8200787FE4F6D8FD75815A020FC993
:100E5000BB010CE58229F582E5833AF583E0225057
:100E600006E92582F8E622BBFE06E92582F8E222A1
:0D0E7000E58229F582E5833AF583E49322BB
:100E7D00BB010689828A83F0225002F722BBFE0154
:020E8D00F3224E
:100E8F00EF8DF0A4A8F0CF8CF0A428CE8DF0A42E77
:020E9F00FE2231
:100EA100BC000BBE0029EF8DF084FFADF022E4CC35
:100EB100F875F008EF2FFFEE33FEEC33FCEE9DECFE
:100EC100984005FCEE9DFE0FD5F0E9E4CEFD22ED44
:100ED100F8F5F0EE8420D21CFEADF075F008EF2F8E
:100EE100FFED33FD4007985006D5F0F222C398FD7F
:050EF1000FD5F0EA221C
:100F8E0002118FE493A3F8E493A34003F68001F2D9
:100F9E0008DFF48029E493A3F85407240CC8C33364
:100FAE00C4540F4420C8834004F456800146F6DF33
:100FBE00E4800B01020408102040809015C8E47EE6
:100FCE00019360BCA3FF543F30E509541FFEE49328
:100FDE00A360010ECF54C025E060A840B8E493A3EF
:100FEE00FAE493A3F8E493A3C8C582C8CAC583CA1A
:100FFE00F0A3C8C582C8CAC583CADFE9DEE780BED2
:0115D2000018
:00000001FF
