:100ABE0043686172205465737421004E756D205425
:100ACE00657374210043484E205465737421004EA3
:100ADE006562756C612D50692C52594D435521003C
:100AEE005374722054657374210050494320546529
:100AFE0073742100008000C000E000F000FC0000D4
:100B0E0000000000000000000000000000000000D7
:100B1E0000000000000000000000000000000000C7
:100B2E0000000000000000000000000000000000B7
:100B3E0000000000000000000000000000000000A7
:100B4E000000000000000000000000000000000097
:100B5E000000000000000000000000000000000087
:100B6E0000000000FEFEFEFEFEFEFE82828282FE7F
:100B7E0038380000000000000000000000000000F7
:100B8E000000000000000000000000000000000057
:100B9E000000000000000000000000000000000047
:100BAE000000000000000000000000000000000037
:100BBE000000000000000000000000000000000027
:100BCE000000000000000000000000000000000017
:100BDE000000000000000000000000000000000007
:100BEE0000000000000000000000000000000000F7
:100BFE0000000000000000000000000000000000E7
:100C0E0000000000000000000000000000000000D6
:100C1E000000000010101010303020E0C00000382E
:100C2E0030C00000000080C038000000000038C056
:100C3E0080000000000080C070F800000000C0C0FE
:100C4E0040303018181838303020000000F80000FE
:100C5E0000000000000000F0000000000000000096
:100C6E000000000000000000000000000000000076
:100C7E000000000000000000000000000000000066
:100C8E000000000000000000000000000000000056
:100C9E00000000FC000000003C7C84830300000088
:100CAE00000303BCBCFC03010000000000FCFC01BF
:100CBE00030C1C301C02030100FF0000003F7F618B
:100CCE00808080000000000080800000007F808017
:100CDE00000000000080807F000000000000000087
:100CEE0000000000000000000000000000000000F6
:100CFE0000000000000000000000000000000000E6
:100D0E0000000000000000000000000000000000D5
:100D1E0000000001000000000000000101000000C2
:100D2E0000000001010100000000000000010100B0
:100D3E0000000000000000000001000000000000A4
:100D4E000000010303010101010000000000000189
:100D5E00010103010101000000000000000000007D
:100D6E000000000000000000000000000000000075
:100D7E000000000000000000000000000000000065
:100D8E000000000000000000000000000000000055
:100D9E000000000000000000000000000000000045
:100DAE000000000000000000000000000000000035
:100DBE000000000000000000000000000000000025
:100DCE000000000000000000000000000000000015
:100DDE000000000000000000000000000000000005
:100DEE0000000000000000000000000000000000F5
:100DFE0000000000000000000000000000000000E5
:100E0E0000000000000000000000000000000000D4
:100E1E0000000000000000000000000000000000C4
:100E2E0000000000000000000000000000000000B4
:100E3E0000000000000000000000000000000000A4
:100E4E000000000000000000000000000000000094
:100E5E000000000000000000000000000000000084
:100E6E000000000000000000000000000000000074
:100E7E000000000000000000000000000000000064
:100E8E000000000000000000000000000000000054
:100E9E000000000000000000000000000000000044
:100EAE000000000000000000000000000000000034
:100EBE000000000000000000000000000000000024
:100ECE000000000000000000000000000000000014
:100EDE000000000000000000000000000000000004
:100EEE0000000000000000000000000000000000F4
:0B0EFE000000000050592301060221F3
:101B22004A001700000000000000000000470021EA
:101B3200000000000000005700000000000000004C
:101B42000000000000000000000000000000000093
:0E1B52000001250001230001240002210000F3
:10176F00AE21AF227C007D0A121482EFC4F8540F11
:10177F00C868FBEEC454F048FAAE21AF227C007D5E
:10178F000A021482E0FDC4540F75F00AA4FFAEF0F4
:10179F00ED540F7C002FF522EC3EF521E52322FFBF
:1017AF00C4540F24301213F9EF540F243022E0FBEE
:1017BF00751810C2017D0622ED2BF522EC3AF521AA
:1017CF0022E0FB751808C2017D0522E50DC4F8540F
:1017DF00F0C868FEE50EC4540F48FF7C007D0A0276
:1017EF00142DD3E522943BE5216480948022E0FF01
:1017FF00C4540F243022ED2430AB0AAA0BA90C02DB
:02180F0013F9CB
:1011AA00E4F508750906F5A0D286C286121F6C7B83
:1011BA00FF7A0F7902121BD81215D3121B9D121E29
:1011CA002B751810C2017B41E4FDFF1214EA751851
:1011DA0010C2017B427F081213A77B437F101213B0
:1011EA00A77B44E4FD7F181214EA751808C2017B34
:1011FA00417D02E4FF1214EA751808C2017B427F9E
:10120A00081213907B437F101213907B447D027F58
:10121A00181214EA7A0A79BE121364121B9D750E0B
:10122A0002750F10C2007B0C7A007D01E4FF1213D5
:10123A009B7B227A007D017F3012139B7B387A00D8
:10124A007D017F6012189D7A0A79C9121364121BF4
:10125A009DC2007B017F161213B27B027F261213F6
:10126A00B27B037D037F3612199FC2007B047D0384
:10127A007F4612199FC2007B057D037F5612199F74
:10128A007A0A79D312137A121B9D7BFF7A0A79DDC7
:10129A00750F10C2007D02E4FF121A797A0A79EEFC
:1012AA0012137A121B9D7BFF7A0B7902C200E4FDAE
:1012BA00FF121A157BFF7A0A79F8750F10D2007D92
:1012CA00067F19121A797F887E13121E0D0509D31B
:1012DA00E5099409748094804003750906C200AB3D
:1012EA0009E4FD7F6F12199F7B017A007917121AA0
:1012FA00D87B017A007917750F10C200E4FD7F28A8
:10130A00121A79C200E4FBFD7F4B12199FE5257B77
:10131A00017A0079007008121E46E4F50880061268
:10132A0016B27508017B017A007900750F08E50885
:10133A0024FF92007D057F23121A797B017A0079B6
:10134A000B750F10E50824FF92007D067F14121A10
:0A135A0079120F09121D1D0212D7AF
:101364007BFF750F10D2007D067F19121A797F88D2
:101374007E13121E0D227BFF750F10D2007D067F97
:1013840019121A797F887E13121E0D227D021214FF
:10139400EA751808C2012212189D750E02750F1005
:1013A400C20022E4FD1214EA751810C201227D0362
:0613B40012199FC2002285
:101D1D00900022E07013900021E0700D121D377FAE
:101D2D00327E00121E0D121D3722C2807FF47E01FD
:061D3D00121E0DD28022EF
:100F09002090161211A22090020525D3E5259408F8
:100F1900748094804003E4F5252091081211A220E1
:100F29009102052320920C7F017E00121E0D209252
:100F3900020524E5251214C40F5D010FB002100348
:100F49000310560410A90510F70611450711980852
:100F5900000011A1900027121793600B0522E522CA
:100F690070020521E4F523E524600BE522152270C2
:100F7900021521E4F524D3E52294631217F64005FE
:100F8900E4F521F52212176F1217C7900027E52201
:100F9900F09000021217D07F2F1214EA900003126A
:100FA90017D07F35021195900025121793600B0514
:100FB90022E52270020521E4F523E524600BE522F0
:100FC900152270021521E4F524D3E522940C121799
:100FD900F64005E4F521F52212176F1217C79000A4
:100FE90025E522F09000051217D07F411214EA90EE
:100FF90000061217D07F470211959000241217930B
:10100900600B0522E52270020521E4F523E5246041
:101019000BE522152270021521E4F524D3E522946B
:101029001F1217F64005E4F521F52212176F121762
:10103900C7900024E522F09000081217D07F5312C0
:1010490014EA9000091217D07F59021195900023D4
:10105900121793600B0522E52270020521E4F5239E
:10106900E524600BE522152270021521E4F524D34D
:10107900E52294171217F64005E4F521F522121717
:101089006F1217C7900023E522F090000B1217BDCD
:101099007F141214EA90000C1217BD7F1C021195DF
:1010A900900022121793600B0522E5227002052198
:1010B900E4F523E524600BE522152270021521E4ED
:1010C900F5241217F14005E4F521F52212176F12E4
:1010D90017C7900022E522F090000E1217BD7F2C51
:1010E9001214EA90000F1217BD7F34021195900077
:1010F90021121793600B0522E52270020521E4F500
:1011090023E524600BE522152270021521E4F5245C
:101119001217F14005E4F521F52212176F1217C7CE
:10112900900021E522F09000111217BD7F4412149E
:10113900EA9000121217BD7F4C02119590002612F9
:101149001793600B0522E52270020521E4F523E5DA
:1011590024600BE522152270021521E4F524D3E55C
:101169002294071217F64005E4F521F52212176FAC
:101179001217C7900026E522F09000141217BD7FC0
:101189005C1214EA9000151217BD7F640214EA7B01
:08119900017A007921121BD834
:0911A100227F017E00121E0D22C6
:061AD8008B0A8A0B890C49
:101ADE00121C9E8E0D8F0E1217DAEF2430AB0AAA4F
:101AEE000BA90C1213E71217DA90000112180590C9
:101AFE000002742E1213F9AE0DE50E7803CEC31349
:101B0E00CE13D8F91217E9900003121805900004AD
:041B1E00E40213F9D1
:101E46008B0A8A0B890C7B017A007921121DAEABB5
:081E56000AAA0BA90C0216B246
:1016B20074321213E790000174301213F99000276C
:1016C200E09000021217AE9000031213F99000048A
:1016D200742D1213F9900025E09000051217AE90B8
:1016E20000061213F9900007742D1213F9900024CA
:1016F2001217FD9000081217B49000091213F99006
:10170200000AE41213F99000231217FD90000B1245
:1017120017B490000C1213F990000D743A1213F9D9
:101722009000221217FD90000E1217B490000F12B3
:1017320013F9900010743A1213F99000211217FD58
:101742009000111217B49000121213F99000137442
:10175200201213F99000261217FD9000141217B4EC
:0D1762009000151213F9900016E40213F91F
:101E0D00D3EF9400EE940040147D4E7C00ED1D70D8
:0D1E1D00011CED4C70F7EF1F70E61E80E316
:011E2A002295
:100026000000000000000000002F00000000070094
:10003600070000147F147F1400242A7F2A1200620E
:1000460064081323003649552250000005030000BA
:1000560000001C224100000041221C000014083E42
:1000660008140008083E0808000000A06000000808
:10007600080808080000606000000020100804025C
:10008600003E5149453E0000427F4000004261511A
:100096004946002141454B31001814127F100027B4
:1000A60045454539003C4A49493000017109050377
:1000B60000364949493600064949291E00003636A8
:1000C600000000005636000000081422410000140B
:1000D60014141414000041221408000201510906E8
:1000E60000324959513E007C1211127C007F494969
:1000F6004936003E41414122007F4141221C007F9A
:1001060049494941007F09090901003E4149497AA7
:10011600007F0808087F0000417F41000020404121
:100126003F01007F08142241007F40404040007F8D
:10013600020C027F007F0408107F003E4141413ED1
:10014600007F09090906003E4151215E007F091919
:1001560029460046494949310001017F0101003F16
:100166004040403F001F2040201F003F4038403F96
:1001760000631408146300070870080700615149FA
:10018600454300007F41410000552A552A5500008D
:1001960041417F000004020102040040404040400B
:1001A600000001020400002054545478007F4844A3
:1001B600443800384444442000384444487F0038DA
:1001C6005454541800087E0901020018A4A4A47C03
:1001D600007F080404780000447D400000408084CD
:1001E6007D00007F102844000000417F4000007C15
:1001F60004180478007C0804047800384444443821
:1002060000FC242424180018242418FC007C08046C
:10021600040800485454542000043F444020003C45
:100226004040207C001C2040201C003C4030403CCC
:10023600004428102844001CA0A0A07C004464545C
:100246004C441414141414140000000000000000A0
:100256000000000000000000000000F800000000A0
:10026600000000333000000000100C06100C0600E1
:10027600000000000000000040C07840C078400048
:10028600043F04043F040400007088FC08300000AA
:10029600001820FF211E0000F008F000E018000002
:1002A60000211C031E211E0000F0088870000000BB
:1002B6001E2123241927211010160E00000000000D
:1002C6000000000000000000000000E0180402002A
:1002D600000000071820400000020418E00000009B
:1002E6000040201807000000404080F08040400099
:1002F6000202010F01020200000000F000000000EF
:100306000101011F010101000000000000000000C2
:1003160080B0700000000000000000000000000037
:1003260000010101010101010000000000000000C0
:10033600003030000000000000000000806018045B
:10034600006018060100000000E010080810E00038
:10035600000F102020100F00001010F80000000001
:100366000020203F20200000007008080888700048
:1003760000302824222130000030088888483000C8
:100386000018202020110E000000C02010F80000E8
:1003960000070424243F240000F808888808080081
:1003A6000019212020110E0000E010888818000096
:1003B600000F112020110E0000380808C838080068
:1003C6000000003F000000000070880808887000E8
:1003D600001C222121221C0000E010080810E00069
:1003E6000000312222110F00000000C0C0000000F2
:1003F6000000003030000000000000800000000017
:10040600000080600000000000008040201008000E
:1004160000010204081020004040404040404000D7
:1004260004040404040404000008102040800000B2
:100436000020100804020100007048080808F000B7
:100446000000003036010000C030C828E810E00087
:100456000718272423140B000000C038E000000012
:10046600203C23020227382008F88888887000007C
:10047600203F202020110E00C03008080808380050
:10048600071820202010080008F808080810E000C7
:10049600203F202020100F0008F88888E808100068
:1004A600203F20202320180008F88888E80810003C
:1004B600203F200003000000C03008080838000074
:1004C60007182020221E020008F808000008F80875
:1004D600203F210101213F20000808F808080000FC
:1004E6000020203F2020000000000808F80808002F
:1004F600C08080807F00000008F888C028180800A7
:10050600203F20012638200008F8080000000000DF
:10051600203F20202020300008F8F800F8F80800D6
:10052600203F003F003F200008F830C00008F808D0
:10053600203F200007183F00E01008080810E000E0
:100546000F10202020100F0008F808080808F000F7
:10055600203F210101010000E01008080810E0001A
:100566000F18242438504F0008F8888888887000AF
:10057600203F2000030C302000708808080838004F
:100586000038202121221C00180808F80808180045
:100596000000203F2000000008F808000008F808C6
:1005A600001F202020201F000878880000C8380877
:1005B600000007380E010000F80800F80008F800EF
:1005C600033C0700073C0300081868808068180889
:1005D60020302C03032C30200838C800C838080007
:1005E6000000203F2000000010080808C838080056
:1005F6002038262120201800000000FE02020200FA
:100606000000007F40404000000C30C000000000A9
:10061600000000010638C00000020202FE000000D1
:10062600004040407F000000000004020202040077
:1006360000000000000000000000000000000000B4
:10064600808080808080808000020204000000009C
:100656000000000000000000000080808080000094
:100666000019242222223F2008F800808000000082
:10067600003F112020110E00000000808080000045
:10068600000E112020201100000000808088F80054
:10069600000E112020103F20000080808080000086
:1006A600001F222222221300008080F088888818EA
:1006B6000020203F202000000000808080808000F5
:1006C600006B94949493600008F80080808000008A
:1006D600203F210000203F20008098980000000065
:1006E6000020203F20200000000000809898000095
:1006F60000C08080807F000008F8000080808000B5
:10070600203F24022D302000000808F800000000D9
:100716000020203F20200000808080808080800094
:10072600203F20003F20003F808000808080000026
:10073600203F210000203F200000808080800000B4
:10074600001F202020201F008080008080000000E5
:1007560080FFA12020110E00000000808080800014
:10076600000E112020A0FF80808080008080800005
:1007760020203F2120000100000080808080800032
:100786000033242424241900008080E080800000A7
:100796000000001F202000008080000000808000F4
:1007A600001F202020103F20808080000080808055
:1007B60000010E30080601008080008000808080E5
:1007C6000F300C030C300F0000808000808080000A
:1007D6000020312E0E312000808080000080808035
:1007E60080818E70180601000080808080808000E5
:1007F6000021302C2221300000000000807C020203
:1008060000000000003F404000000000FF00000024
:1008160000000000FF0000000002027C80000000D3
:100826000040403F000000000006010102020404EF
:100836000000000000000000000C120C00C0701048
:100846000808080810300000000000000000000042
:10085600000000000000000000000000000F18303B
:1008660020202020301C00000000000000000000B6
:10087600000000000000000000020202028242F2B4
:100886000E4282020202000000000000000000008A
:10089600000000000000000010080402010000FF34
:1008A60000000001020C0000000000000000000033
:1008B6000000000000000000000000FE020202F23C
:1008C600020202FE0000000000000000000000001E
:1008D600000000000000000080804047201806014C
:1008E6007E8080878080E00000000000000000001D
:1008F600000000000000000000020202028242F234
:100906000E42820202020000000000000000000009
:10091600000000000000000010080402010000FFB3
:1009260000000001020C00000000000000000000B2
:10093600000000000000000020A4BFA4A4BFA42063
:1009460080708F0808F80800000000000000000012
:10095600000000000000000000FF0A0A4A8A7F002B
:100966008040330C3340800000000000000000008F
:100976000000000000000000000000FE0000000073
:100986000000000000000000000000000000000061
:10099600000000000000000000000033000000001E
:1009A6000000000000000000000000000000000041
:1009B6000000000000000000FE82828282828282A5
:1009C600828282FE3838000000000000000000002D
:1009D6000000000000000000000000000000000011
:1009E6000000000000000000000000000000000001
:1009F6000000000000000000FEFEFEFE82828282F1
:100A0600828282FE383800000000000000000000EC
:100A160000000000000000000000000000000000D0
:100A260000000000000000000000000000000000C0
:100A36000000000000000000FEFEFEFEFEFEFEFEC0
:100A4600828282FE383800000000000000000000AC
:100A56000000000000000000000000000000000090
:100A66000000000000000000000000000000000080
:100A76000000000000000000FEFEFEFEFEFEFEFE80
:100A8600FEFEFEFE383800000000000000000000F8
:100A96000000000000000000000000000000000050
:100AA6000000000000000000000000000000000040
:080AB600000000000000000038
:101924001214B8E582250DF582E43583F583E4933A
:10193400227E00EFC394087480948022F582E435FB
:10194400F0F583E58222244EF582E5833402F583A3
:10195400E493222456F582E5833402F583E493224A
:10196400AB0BAA0CA90D050FE50FAE0E22C3948094
:101974007480948022EF24B0FFEE33FEE4FDFC2259
:10198400E4FDFC7F10FE22E5128510F0A4250AFF79
:0B19940022C3E50D94107480948022A3
:101EA6008F1E121F3E7F78121CF4E4FF121CF4AF43
:071EB6001E121CF4021F2F95
:101EBD008F1E121F3E7F78121CF47F40121CF4AF50
:071ECD001E121CF4021F2F7E
:101EFE008E1C8F1DED4C6003021EBDAF1D121EA663
:011F0E0022B0
:1015D3007FAE121668FFFE121EFE7F101216687F82
:1015E30040FE121EFE7FB01216737F81FE121EFE96
:1015F3007FFF1216737FA1FE121EFE7FA612167EB8
:101603007FA8FE121EFE7F3F12167E7FC8FE121EAB
:10161300FE7FD3121689FFFE121EFE7FD512168996
:101623007F80FE121EFE7FD81216947F05FE121EC7
:10163300FE7FD91216947FF1FE121EFE7FDA121678
:101643009F7F12FE121EFE7FDB12169F7F30121643
:10165300AA7F8D1216AA7F14FE121EFEE4FDFC7FE4
:10166300AFFE021EFEE4FDFCFE121EFEE4FDFC22A4
:10167300E4FDFCFE121EFEE4FDFC22E4FDFCFE1272
:101683001EFEE4FDFC22E4FDFCFE121EFEE4FDFC56
:1016930022E4FDFCFE121EFEE4FDFC22E4FDFCFE42
:0F16A300121EFEE4FDFC22FE121EFEE4FDFC22E0
:101E2B00E4FDFC7F8DFE121EFEE4FDFC7F14FE1212
:0B1E3B001EFEE4FDFC7FAFFE021EFE59
:101E5E00E4FDFC7F8DFE121EFE121984121EFEE49E
:081E6E00FDFC7FAEFE021EFE2A
:101B9D00E4F50AAF0A1219355030121979121EFEEA
:101BAD00E4FDFCFFFE121EFE121984121EFEE4F56A
:101BBD000BE50B121971500E7D017C00E4FFFE1236
:0A1BCD001EFE050B80EB050A80C91F
:011BD70022EB
:101B6100E4F529AF291219355031121979121EFEE7
:101B7100E4FDFCFFFE121EFE121984121EFEE4F5A6
:101B81002AE52A121971500F7D017C007F017E0028
:0B1B9100121EFE052A80EA052980C80C
:011B9C002226
:101C70008F1BED24B0FFE433FEE4FDFC121EFEE5F5
:101C80001B54F0C4540F7E004410FFE4FDFC121EF0
:0E1C9000FEE51B540FFF7E00E4FDFC021EFE6D
:0414EA008F158D16B7
:1014EE00E4F519F51AEB24E0F519D3EF947F748027
:1014FE0094804007E4F51505160516E5186410707E
:10150E006E1215C0E51A121938502875F010E5192B
:10151E00A4251A20010B12194012194AFF7E0080D1
:10152E000B12194012194AF4FFE4F4FE1215CB0502
:10153E001A80D1E51604FDAF15121C70E4F51AC31E
:10154E00E51A121939506A75F010E519A4251A20FA
:10155E00010B121940121957FF7E00800B12194011
:10156E00121957F4FFE4F4FE1215CB051A80D012AF
:10157E0015C0C3E51A940674809480503475F00635
:10158E00E51990002620010F1214B8E582251A12D3
:10159E00192BFF7E00800F1214B8E582251A12193E
:1015AE002BF4FFE4F4FE7D017C00121EFE051A8072
:0115BE00C16B
:1015BF0022AD16AF15121C70E4F51A227D017C00C6
:0415CF00121EFE22C8
:041E76008F15A90516
:101E7A007F017E00AD0119ED6009AD157C001214D9
:031E8A001B80F1C9
:011E8D002232
:08189D008F0A8D0B8A0C8B0DE4
:1018A500E4F514E50F6410700875120875131080BF
:1018B50006751206751308E4F510E510C3950E506C
:1018C5005DC3E50E951014FD7F0A121E76AC0CADB6
:1018D5000DCFCDCFCECCCE12142D7C007D0A1214A7
:1018E5002D8D11E514701FE50E14FFE510C39F50F3
:1018F50015E511700E12198B851318A20092017B44
:1019050020801275140112198BE5112430FB851303
:0E19150018A2009201AD0B1214EA0510809C7E
:0119230022A1
:0A1A79008F0A8D0B8B0C8A0D890E6D
:101A8300E4F512E50F6410700875110875101080E5
:101A930006751106751008AB0CAA0DA90E851282E6
:101AA3007583001213BAFB602B851018A2009201F4
:101AB300AD0BAF0A1214EAE511250AF50AC37478CF
:101AC3009511FFE50AD39F4007E4F50A050B050BC3
:041AD300051280C3B5
:011AD70022EC
:06199F008F0A8D0B8B0C7A
:1019A500E4F50E121C70E4F50D121995502875F02A
:1019B50040E50C90083E200008121924FF7E0080A7
:1019C50008121924F4FFE4F4FE7D017C00121EFECA
:1019D500050E050D80D3E50B04FDAF0A121C70E45E
:1019E500F50D121995502875F040E50C90085E200C
:1019F5000008121924FF7E008008121924F4FFE460
:0F1A0500F4FE7D017C00121EFE050E050D80D340
:011A140022AF
:081A15008F0A8B0B8A0C890D6E
:101A1D00E4F50EF50F8D11C3E511121939504CADCA
:101A2D0011AF0A121C70850A10C3E51012197250FD
:101A3D00362000141219647002050E14F5828E837F
:101A4D001213BAFF7E0080141219647002050E1471
:101A5D00F5828E831213BAF4FFE4F4FE7D017C004F
:0B1A6D00121EFE051080C2051180ACA7
:011A7800224B
:101F0F00AE071FEE600A000000000000000080F026
:011F1F00229F
:101ED400C2B77F32121F0FD2B77F06121F0F30B75F
:061EE400FD7F32021F0F1A
:021CCB00AD0763
:101CCD007B01EBD3940874809480501AED1392002D
:101CDD00EDC313FDC2B70000A20092B77F06121F1D
:061CED000FD2B70B80DCF2
:011CF30022CE
:101C3F007C01ECD39408748094805022C2B70000CA
:101C4F00D2B70000A2B7E433FB7F06121F0FEBC41D
:101C5F003333335480FFEDC3134FFD0C80D4AF05E6
:011C6F002252
:101C9E00121ED47FCC121CCB7F44121CCB121ED42E
:101CAE007FCC121CCB7FBE121CCB121C3FAA07127C
:0C1CBE001C3FEFFE7C00E42AFFEC3EFE21
:011CCA0022F7
:101EEA00D394067480948022EF1213E7740129F9BF
:041EFA00E43AFA22AA
:100003007E01EED39408748094805013EF13920012
:0F001300A2009284C283D283EFC313FF0E80E357
:0100220022BB
:101D43007E01EED39408748094805018D283C283AA
:101D5300A284E433FDC43333335480FCEFC3134C08
:041D6300FF0E80DE11
:011D67002259
:0F1F2000D285120003AF05120003C285C28322CF
:0A1F5700D285120003121D43C2855B
:011F6100225D
:061C0D008B268A278928BE
:101C1300D2857FBE120003E4FDED121EEA5015AB20
:101C230026AA27A9288D827583001213BAFF1200F2
:0B1C3300030D80E5E4FF120003C285F2
:011C3E002283
:101DCF00D2857FBF120003E4F51FD3E51F121EEB70
:0E1DDF00500A121D43121EF2051F80EEC2852F
:011DED0022D3
:061BD8008B0A8A0B890C48
:101BDE00C285C283E4FD7F8E121F20E4FCEC121E30
:101BEE00EA501BEC25E02480FFAB0AAA0BA90C8C53
:0E1BFE00827583001213BAFD121F200C80DFC7
:011C0C0022B5
:101DAE00C285C283E4F50DD3E50D121EEB5011E58D
:101DBE000D25E02481FF121F57121EF2050D80E73C
:011DCE0022F2
:0A1F6200121F52C2A1EEC313FE22AB
:071F4B00D2B6121F52D2A111
:051F5200000000002268
:0D1F3E00C2A1121F4BC2B6121F52C2A12237
:0F1F2F00C2A1C2B6121F4DD2B6121F52C2A122BA
:101CF4007E80EE60115F7004C2B68002D2B6121FFD
:101D04004D121F6580ECD2B6121F52D2A1A2B69218
:081D140002121F52C2A1A2023B
:011D1C0022A4
:101D8C00D2B67E80EE6015121F52D2A120B605F499
:101D9C0052078003EE4207121F6280E8121F4BC2EB
:011DAC00A195
:011DAD002213
:101D6800D2B67E80EE6015121F52D2A120B605F4BD
:101D780052078003EE4207121F6280E8C2B6121FA4
:031D88004DC2A1A8
:011D8B002235
:03002300021DEECD
:101DEE00C0E0C0D075D000C00730980CC298AF9933
:0F1DFE00EF6455700343E760D007D0D0D0E032D8
:101E8E00759850E4F587758920758BFD758DFDC2AB
:081E9E00ABD28ED2ACD2AF2210
:031F6C00021E8EC4
:03000000021811D2
:0C181100787FE4F6D8FD75812A02185893
:1013BA00BB010CE58229F582E5833AF583E02250E8
:1013CA0006E92582F8E622BBFE06E92582F8E22232
:0D13DA00E58229F582E5833AF583E493224C
:1013E700BB010689828A83F0225002F722BBFE01E5
:0213F700F322DF
:1013F900F8BB010DE58229F582E5833AF583E8F02A
:10140900225006E92582C8F622BBFE05E92582C8D5
:02141900F222BD
:10141B00EF8DF0A4A8F0CF8CF0A428CE8DF0A42EE5
:02142B00FE229F
:10142D00BC000BBE0029EF8DF084FFADF022E4CCA3
:10143D00F875F008EF2FFFEE33FEEC33FCEE9DEC6C
:10144D00984005FCEE9DFE0FD5F0E9E4CEFD22EDB2
:10145D00F8F5F0EE8420D21CFEADF075F008EF2FFC
:10146D00FFED33FD4007985006D5F0F222C398FDED
:05147D000FD5F0EA228A
:10148200C2D5EC30E709B2D5E4C39DFDE49CFCEE85
:1014920030E715B2D5E4C39FFFE49EFE12142DC3BC
:1014A200E49DFDE49CFC800312142D30D507C3E4B7
:0614B2009FFFE49EFE22F4
:0C14B800A42582F582E5F03583F583223F
:1014C400D083D082F8E4937012740193700DA3A3B7
:1014D40093F8740193F5828883E4737402936860CB
:0614E400EFA3A3A380DFCB
:10181D000211AAE493A3F8E493A34003F68001F226
:10182D0008DFF48029E493A3F85407240CC8C333CC
:10183D00C4540F4420C8834004F456800146F6DF9B
:10184D00E4800B0102040810204080901B22E47EEE
:10185D00019360BCA3FF543F30E509541FFEE49390
:10186D00A360010ECF54C025E060A840B8E493A357
:10187D00FAE493A3F8E493A3C8C582C8CAC583CA82
:10188D00F0A3C8C582C8CAC583CADFE9DEE780BE3A
:011B60000084
:00000001FF
