:06018B008B088A09890AB5
:10019100EF1475F040A4FFED142F2480FF1202F13B
:1001A100AB08AA09A90A1201EC6013050AE50A7055
:0E01B10002050914F91201ECFF12030280E2AC
:0101BF00221D
:1002C9007F381202F17F0C1202F17F061202F17FD0
:0402D900010202F12B
:0B033B0075A0FF120346EF20E7F92237
:0A034600C2B6D2B5D2B4AFA0C2B463
:01035000228A
:1002F1008F0B12033BC2B6C2B5850BA0D2B4C2B4F8
:0103010022D9
:100302008F0B12033BD2B6C2B5850BA0D2B4C2B4D6
:0103120022C8
:07032F00D282120336D281D5
:050336000000000022A0
:0D032200C28112032FC282120336C2812253
:0F031300C281C282120331D282120336C281220A
:1001C0007E80EE60145F7004C2828002D2821203CD
:1001D00031C281EEC313FE80E9D282120336D2818E
:0B01E000A2829201120336C281A2012C
:0101EB0022F1
:10026B00D2827E80EE601B120336D281208205F48F
:10027B0052078003EE4207120336C281EEC313FE10
:07028B0080E212032FC28183
:010292002249
:10021700D2827E80EE601B120336D281208205F4E3
:1002270052078003EE4207120336C281EEC313FE64
:0902370080E2C282120331C2818F
:01024000229B
:100293008E0E8F0F8D101203227FA01201C0E50E68
:1002A300FF1201C0AF0F1201C0AF101201C0020351
:0102B3001337
:040241008E118F1279
:100245001203227FA01201C0E511FF1201C0AF12F7
:100255001201C01203227FA11201C012026B8F137B
:05026500120313AF13AA
:01026A002271
:10008F008B088A09890A8C0B8D0CD3E50D940074AB
:10009F00809480404D1203227FA01201C0500512A0
:1000AF00031380F1E50BFF1201C0AF0C1201C0D397
:1000BF00E50D9400748094804023AB08050AE50A8F
:1000CF00AA097002050914F91201ECFF1201C015FB
:1000DF000D050CE50C7002050B543F70D212031383
:0300EF0080A822C4
:1000F2008B088A09890A8C0B8D0C1203227FA012AD
:1001020001C0500512031380F1E50BFF1201C0AFCD
:100112000C1201C01203227FA11201C0D3E50D947B
:1001220001748094804019120217AB08050AE50A8F
:10013200AA097002050914F9EF120205150D80DCF7
:1001420012026BAB08AA09A90AEF120205020313F5
:0202B4008F14A5
:1002B600120322E51425E0FF1201C0920012031377
:0202C600A20094
:0102C8002213
:1002DD001121415432346332353620577220537414
:0302ED007221007B
:1001520075A0FFD287C2871202C97B007A0079217B
:10016200750D107D057C0012008F7B007A007932BC
:10017200750D107D057C001200F27B007A00793249
:090182007D017F0112018B80FE5A
:03000000020003F8
:0C000300787FE4F6D8FD75814502004AC4
:1001EC00BB010689828A83E0225002E722BBFE0211
:0901FC00E32289828A83E4932244
:10020500BB010689828A83F0225002F722BBFE01D8
:02021500F322D2
:10000F00020152E493A3F8E493A34003F68001F2B4
:10001F0008DFF48029E493A3F85407240CC8C333F2
:10002F00C4540F4420C8834004F456800146F6DFC1
:10003F00E4800B01020408102040809002DDE47E72
:10004F00019360BCA3FF543F30E509541FFEE493B6
:10005F00A360010ECF54C025E060A840B8E493A37D
:10006F00FAE493A3F8E493A3C8C582C8CAC583CAA8
:10007F00F0A3C8C582C8CAC583CADFE9DEE780BE60
:0102F000000D
:00000001FF
