:03000000020006F5
:0C000600787FE4F6D8FD75810902004DFA
:0400D9000208000019
:0800D100D288D2A8D2AF80FE54
:0300030002009266
:10009200C0E0C0D075D000C000C007AF09A8077487
:1000A20001088002C333D8FCF4F590C3E509940833
:1000B200E5089400400875080075090080080509E4
:0F00C200E50970020508D007D000D0D0D0E03299
:100012000200D1E493A3F8E493A34003F68001F233
:1000220008DFF48029E493A3F85407240CC8C333EF
:10003200C4540F4420C8834004F456800146F6DFBE
:10004200E4800B01020408102040809000D9E47E75
:10005200019360BCA3FF543F30E509541FFEE493B3
:10006200A360010ECF54C025E060A840B8E493A37A
:10007200FAE493A3F8E493A3C8C582C8CAC583CAA5
:10008200F0A3C8C582C8CAC583CADFE9DEE780BE5D
:0100DD000022
:00000001FF
