:03000000020800F3
:0C080000787FE4F6D8FD75810B020847F4
:1008BA004D696E692D3531205354433839433532E9
:0D08CA0020556172742074657374210A005A
:03092B00010B00BD
:10091B001208F0D2AF7BFF7A0879BA12088C80FEEE
:03002300020906C9
:10090600309807C298859999B290309907C299B2E2
:0509160091750B003299
:1008F000759850E4F587758920758BFD758DFDC25F
:06090000ABD28ED2AC2246
:10088C008B088A09890AAB08AA09A90A1208D76039
:10089C001CE50B70FC750B01AB08050AE50AAA09EF
:0E08AC007002050914F91208D7F59980D922B7
:10080C0002091BE493A3F8E493A34003F68001F2DE
:10081C0008DFF48029E493A3F85407240CC8C333ED
:10082C00C4540F4420C8834004F456800146F6DFBC
:10083C00E4800B010204081020408090092BE47E18
:10084C00019360BCA3FF543F30E509541FFEE493B1
:10085C00A360010ECF54C025E060A840B8E493A378
:10086C00FAE493A3F8E493A3C8C582C8CAC583CAA3
:10087C00F0A3C8C582C8CAC583CADFE9DEE780BE5B
:01092E0000C8
:1008D700BB010689828A83E0225002E722BBFE021F
:0908E700E32289828A83E4932252
:00000001FF
