:0A027900D2AFE4F5E7F5E5F5E62263
:09028300C2AF75E64675E6B9222A
:10010C008B288A29892AAD07AC06E4F5E275E5014E
:10011C0075E782E52C152CAE2B7002152B4E602248
:10012C008CE3EDF5E41202830DBD00010CAB280548
:10013C002AE52AAA297002052914F9E5E21201E13F
:05014C0080D1020279E0
:100151008B288A29892AAD07AC0675E78275E502E5
:10016100E52C152CAE2B7002152B4E60228CE3ED85
:10017100F5E4AB28052AE52AAA297002052914F914
:100181001201C8F5E20DBD00010C12028380D102FB
:020191000279F1
:10021800AD07AC0675E78275E5038CE3EDF5E412EE
:050228000283020279CF
:1001F30005080000000000081E00000000000000C9
:1002030000110D74696D6573206F6620506F7765FB
:04021300724F6E00B8
:10008F0012022D75A0FFD287C2877B007A007908F4
:10009F00752B00752C057FF07E2112010C0508E5EC
:1000AF000875F064842430F51EE50875F06484E566
:1000BF00F075F00A842430F51FE50875F00A84E521
:1000CF00F02430F520E4F522FB7A00790D7D017FD5
:1000DF00011201937B007A00791E7D067F021201C7
:1000EF00937F007E201202187B007A007908752B0F
:0D00FF0000752C057FF07E2112015180FE5E
:060193008B268A27892853
:10019900EF1475F040A4FFED142F2480FF120241E3
:1001A900AB26AA27A9281201C860130528E52870DB
:0E01B90002052714F91201C8FF12025280E25B
:0101C7002215
:10022D007F381202417F0C1202417F061202417F7C
:04023D000102024177
:0B02630075A0FF12026EEF20E7F922E9
:0A026E00C2B6D2B5D2B4AFA0C2B43C
:010278002263
:100241008F29120263C2B6C2B58529A0D2B4C2B445
:01025100228A
:100252008F29120263D2B6C2B58529A0D2B4C2B424
:010262002279
:03000000020003F8
:0C000300787FE4F6D8FD75812C02004ADD
:1001C800BB010689828A83E0225002E722BBFE0235
:0901D800E32289828A83E4932268
:1001E100BB010689828A83F0225002F722BBFE01FD
:0201F100F322F7
:10000F0002008FE493A3F8E493A34003F68001F278
:10001F0008DFF48029E493A3F85407240CC8C333F2
:10002F00C4540F4420C8834004F456800146F6DFC1
:10003F00E4800B01020408102040809001F3E47E5D
:10004F00019360BCA3FF543F30E509541FFEE493B6
:10005F00A360010ECF54C025E060A840B8E493A37D
:10006F00FAE493A3F8E493A3C8C582C8CAC583CAA8
:10007F00F0A3C8C582C8CAC583CADFE9DEE780BE60
:0102170000E6
:00000001FF
