:03000300010800F1
:1000CA00758901758A67758CFCD28CD2A9D2AF80EA
:0200DA00FE2204
:03000B0002009A56
:10009A00C0E0C0D075D000C006C007758A67758CED
:1000AA00FC0508AF087E00C3EF9432EE64809480AA
:1000BA004005750800B290D007D006D0D0D0E03203
:0300000002000EED
:0C000E00787FE4F6D8FD758108020055EB
:10001A000200CAE493A3F8E493A34003F68001F232
:10002A0008DFF48029E493A3F85407240CC8C333E7
:10003A00C4540F4420C8834004F456800146F6DFB6
:10004A00E4800B0102040810204080900003E47E43
:10005A00019360BCA3FF543F30E509541FFEE493AB
:10006A00A360010ECF54C025E060A840B8E493A372
:10007A00FAE493A3F8E493A3C8C582C8CAC583CA9D
:10008A00F0A3C8C582C8CAC583CADFE9DEE780BE55
:0100060000F9
:00000001FF
