:100003007590FEE4F508F5090509E5097002050890
:10001300B488F5E508B413F07590FDE4F508F50927
:100023000509E50970020508B488F5E508B413F07D
:100033007590FBE4F508F5090509E5097002050863
:10004300B488F5E508B413F07590F7E4F508F509FD
:100053000509E50970020508B488F5E508B413F04D
:100063007590EFE4F508F5090509E509700205083F
:10007300B488F5E508B413F07590DFE4F508F509E5
:100083000509E50970020508B488F5E508B413F01D
:100093007590BFE4F508F5090509E509700205083F
:1000A300B488F5E508B413F075907FE4F508F50915
:1000B3000509E50970020508B488F5E508B413F0ED
:0100C300221A
:030000000200C437
:0C00C400787FE4F6D8FD75810902000386
:00000001FF
