:03000000020003F8
:0C000300787FE4F6D8FD75810B02004AFE
:0400D500020800001D
:10008F007580FFAF09A8077401088002C333D8FC3D
:10009F00F4F590E4F50AF50B050BE50B7002050A74
:1000AF00B4A8F5E50AB461F0C3E5099408E508645E
:1000BF008094804007E4F508F50980C70509E50934
:0600CF0070C1050880BDB0
:10000F0002008FE493A3F8E493A34003F68001F278
:10001F0008DFF48029E493A3F85407240CC8C333F2
:10002F00C4540F4420C8834004F456800146F6DFC1
:10003F00E4800B01020408102040809000D5E47E7C
:10004F00019360BCA3FF543F30E509541FFEE493B6
:10005F00A360010ECF54C025E060A840B8E493A37D
:10006F00FAE493A3F8E493A3C8C582C8CAC583CAA8
:10007F00F0A3C8C582C8CAC583CADFE9DEE780BE60
:0100D9000026
:00000001FF
